{
  "contractName": "NFTMarketplaceERC721",
  "abi": [
    {
      "anonymous": false,
      "inputs": [
        {
          "indexed": true,
          "internalType": "address",
          "name": "owner",
          "type": "address"
        },
        {
          "indexed": true,
          "internalType": "address",
          "name": "approved",
          "type": "address"
        },
        {
          "indexed": true,
          "internalType": "uint256",
          "name": "tokenId",
          "type": "uint256"
        }
      ],
      "name": "Approval",
      "type": "event"
    },
    {
      "anonymous": false,
      "inputs": [
        {
          "indexed": true,
          "internalType": "address",
          "name": "owner",
          "type": "address"
        },
        {
          "indexed": true,
          "internalType": "address",
          "name": "operator",
          "type": "address"
        },
        {
          "indexed": false,
          "internalType": "bool",
          "name": "approved",
          "type": "bool"
        }
      ],
      "name": "ApprovalForAll",
      "type": "event"
    },
    {
      "anonymous": false,
      "inputs": [
        {
          "indexed": false,
          "internalType": "uint8",
          "name": "version",
          "type": "uint8"
        }
      ],
      "name": "Initialized",
      "type": "event"
    },
    {
      "anonymous": false,
      "inputs": [
        {
          "indexed": true,
          "internalType": "address",
          "name": "previousOwner",
          "type": "address"
        },
        {
          "indexed": true,
          "internalType": "address",
          "name": "newOwner",
          "type": "address"
        }
      ],
      "name": "OwnershipTransferred",
      "type": "event"
    },
    {
      "anonymous": false,
      "inputs": [
        {
          "indexed": false,
          "internalType": "address",
          "name": "account",
          "type": "address"
        }
      ],
      "name": "Paused",
      "type": "event"
    },
    {
      "anonymous": false,
      "inputs": [
        {
          "indexed": true,
          "internalType": "bytes32",
          "name": "role",
          "type": "bytes32"
        },
        {
          "indexed": true,
          "internalType": "bytes32",
          "name": "previousAdminRole",
          "type": "bytes32"
        },
        {
          "indexed": true,
          "internalType": "bytes32",
          "name": "newAdminRole",
          "type": "bytes32"
        }
      ],
      "name": "RoleAdminChanged",
      "type": "event"
    },
    {
      "anonymous": false,
      "inputs": [
        {
          "indexed": true,
          "internalType": "bytes32",
          "name": "role",
          "type": "bytes32"
        },
        {
          "indexed": true,
          "internalType": "address",
          "name": "account",
          "type": "address"
        },
        {
          "indexed": true,
          "internalType": "address",
          "name": "sender",
          "type": "address"
        }
      ],
      "name": "RoleGranted",
      "type": "event"
    },
    {
      "anonymous": false,
      "inputs": [
        {
          "indexed": true,
          "internalType": "bytes32",
          "name": "role",
          "type": "bytes32"
        },
        {
          "indexed": true,
          "internalType": "address",
          "name": "account",
          "type": "address"
        },
        {
          "indexed": true,
          "internalType": "address",
          "name": "sender",
          "type": "address"
        }
      ],
      "name": "RoleRevoked",
      "type": "event"
    },
    {
      "anonymous": false,
      "inputs": [
        {
          "indexed": true,
          "internalType": "uint256",
          "name": "tokenId",
          "type": "uint256"
        },
        {
          "indexed": true,
          "internalType": "address",
          "name": "account",
          "type": "address"
        },
        {
          "indexed": false,
          "internalType": "uint256",
          "name": "percentage",
          "type": "uint256"
        }
      ],
      "name": "RoyaltyAdded",
      "type": "event"
    },
    {
      "anonymous": false,
      "inputs": [
        {
          "indexed": true,
          "internalType": "address",
          "name": "from",
          "type": "address"
        },
        {
          "indexed": true,
          "internalType": "address",
          "name": "to",
          "type": "address"
        },
        {
          "indexed": true,
          "internalType": "uint256",
          "name": "tokenId",
          "type": "uint256"
        }
      ],
      "name": "Transfer",
      "type": "event"
    },
    {
      "anonymous": false,
      "inputs": [
        {
          "indexed": false,
          "internalType": "address",
          "name": "account",
          "type": "address"
        }
      ],
      "name": "Unpaused",
      "type": "event"
    },
    {
      "inputs": [],
      "name": "ADMIN_ROLE",
      "outputs": [
        {
          "internalType": "bytes32",
          "name": "",
          "type": "bytes32"
        }
      ],
      "stateMutability": "view",
      "type": "function"
    },
    {
      "inputs": [],
      "name": "DEFAULT_ADMIN_ROLE",
      "outputs": [
        {
          "internalType": "bytes32",
          "name": "",
          "type": "bytes32"
        }
      ],
      "stateMutability": "view",
      "type": "function"
    },
    {
      "inputs": [],
      "name": "MINTER_ROLE",
      "outputs": [
        {
          "internalType": "bytes32",
          "name": "",
          "type": "bytes32"
        }
      ],
      "stateMutability": "view",
      "type": "function"
    },
    {
      "inputs": [],
      "name": "PAUSER_ROLE",
      "outputs": [
        {
          "internalType": "bytes32",
          "name": "",
          "type": "bytes32"
        }
      ],
      "stateMutability": "view",
      "type": "function"
    },
    {
      "inputs": [],
      "name": "_contractURI",
      "outputs": [
        {
          "internalType": "string",
          "name": "",
          "type": "string"
        }
      ],
      "stateMutability": "view",
      "type": "function"
    },
    {
      "inputs": [
        {
          "internalType": "address",
          "name": "to",
          "type": "address"
        },
        {
          "internalType": "uint256",
          "name": "tokenId",
          "type": "uint256"
        }
      ],
      "name": "approve",
      "outputs": [],
      "stateMutability": "nonpayable",
      "type": "function"
    },
    {
      "inputs": [
        {
          "internalType": "address",
          "name": "owner",
          "type": "address"
        }
      ],
      "name": "balanceOf",
      "outputs": [
        {
          "internalType": "uint256",
          "name": "",
          "type": "uint256"
        }
      ],
      "stateMutability": "view",
      "type": "function"
    },
    {
      "inputs": [
        {
          "internalType": "uint256",
          "name": "tokenId",
          "type": "uint256"
        }
      ],
      "name": "burn",
      "outputs": [],
      "stateMutability": "nonpayable",
      "type": "function"
    },
    {
      "inputs": [
        {
          "internalType": "uint256",
          "name": "tokenId",
          "type": "uint256"
        }
      ],
      "name": "getApproved",
      "outputs": [
        {
          "internalType": "address",
          "name": "",
          "type": "address"
        }
      ],
      "stateMutability": "view",
      "type": "function"
    },
    {
      "inputs": [
        {
          "internalType": "bytes32",
          "name": "role",
          "type": "bytes32"
        }
      ],
      "name": "getRoleAdmin",
      "outputs": [
        {
          "internalType": "bytes32",
          "name": "",
          "type": "bytes32"
        }
      ],
      "stateMutability": "view",
      "type": "function"
    },
    {
      "inputs": [
        {
          "internalType": "bytes32",
          "name": "role",
          "type": "bytes32"
        },
        {
          "internalType": "uint256",
          "name": "index",
          "type": "uint256"
        }
      ],
      "name": "getRoleMember",
      "outputs": [
        {
          "internalType": "address",
          "name": "",
          "type": "address"
        }
      ],
      "stateMutability": "view",
      "type": "function"
    },
    {
      "inputs": [
        {
          "internalType": "bytes32",
          "name": "role",
          "type": "bytes32"
        }
      ],
      "name": "getRoleMemberCount",
      "outputs": [
        {
          "internalType": "uint256",
          "name": "",
          "type": "uint256"
        }
      ],
      "stateMutability": "view",
      "type": "function"
    },
    {
      "inputs": [
        {
          "internalType": "bytes32",
          "name": "role",
          "type": "bytes32"
        },
        {
          "internalType": "address",
          "name": "account",
          "type": "address"
        }
      ],
      "name": "hasRole",
      "outputs": [
        {
          "internalType": "bool",
          "name": "",
          "type": "bool"
        }
      ],
      "stateMutability": "view",
      "type": "function"
    },
    {
      "inputs": [
        {
          "internalType": "address",
          "name": "owner",
          "type": "address"
        },
        {
          "internalType": "address",
          "name": "operator",
          "type": "address"
        }
      ],
      "name": "isApprovedForAll",
      "outputs": [
        {
          "internalType": "bool",
          "name": "",
          "type": "bool"
        }
      ],
      "stateMutability": "view",
      "type": "function"
    },
    {
      "inputs": [],
      "name": "name",
      "outputs": [
        {
          "internalType": "string",
          "name": "",
          "type": "string"
        }
      ],
      "stateMutability": "view",
      "type": "function"
    },
    {
      "inputs": [],
      "name": "owner",
      "outputs": [
        {
          "internalType": "address",
          "name": "",
          "type": "address"
        }
      ],
      "stateMutability": "view",
      "type": "function"
    },
    {
      "inputs": [
        {
          "internalType": "uint256",
          "name": "tokenId",
          "type": "uint256"
        }
      ],
      "name": "ownerOf",
      "outputs": [
        {
          "internalType": "address",
          "name": "",
          "type": "address"
        }
      ],
      "stateMutability": "view",
      "type": "function"
    },
    {
      "inputs": [],
      "name": "paused",
      "outputs": [
        {
          "internalType": "bool",
          "name": "",
          "type": "bool"
        }
      ],
      "stateMutability": "view",
      "type": "function"
    },
    {
      "inputs": [],
      "name": "renounceOwnership",
      "outputs": [],
      "stateMutability": "nonpayable",
      "type": "function"
    },
    {
      "inputs": [
        {
          "internalType": "bytes32",
          "name": "role",
          "type": "bytes32"
        },
        {
          "internalType": "address",
          "name": "account",
          "type": "address"
        }
      ],
      "name": "renounceRole",
      "outputs": [],
      "stateMutability": "nonpayable",
      "type": "function"
    },
    {
      "inputs": [
        {
          "internalType": "bytes32",
          "name": "role",
          "type": "bytes32"
        },
        {
          "internalType": "address",
          "name": "account",
          "type": "address"
        }
      ],
      "name": "revokeRole",
      "outputs": [],
      "stateMutability": "nonpayable",
      "type": "function"
    },
    {
      "inputs": [
        {
          "internalType": "address",
          "name": "from",
          "type": "address"
        },
        {
          "internalType": "address",
          "name": "to",
          "type": "address"
        },
        {
          "internalType": "uint256",
          "name": "tokenId",
          "type": "uint256"
        }
      ],
      "name": "safeTransferFrom",
      "outputs": [],
      "stateMutability": "nonpayable",
      "type": "function"
    },
    {
      "inputs": [
        {
          "internalType": "address",
          "name": "from",
          "type": "address"
        },
        {
          "internalType": "address",
          "name": "to",
          "type": "address"
        },
        {
          "internalType": "uint256",
          "name": "tokenId",
          "type": "uint256"
        },
        {
          "internalType": "bytes",
          "name": "data",
          "type": "bytes"
        }
      ],
      "name": "safeTransferFrom",
      "outputs": [],
      "stateMutability": "nonpayable",
      "type": "function"
    },
    {
      "inputs": [
        {
          "internalType": "address",
          "name": "operator",
          "type": "address"
        },
        {
          "internalType": "bool",
          "name": "approved",
          "type": "bool"
        }
      ],
      "name": "setApprovalForAll",
      "outputs": [],
      "stateMutability": "nonpayable",
      "type": "function"
    },
    {
      "inputs": [],
      "name": "symbol",
      "outputs": [
        {
          "internalType": "string",
          "name": "",
          "type": "string"
        }
      ],
      "stateMutability": "view",
      "type": "function"
    },
    {
      "inputs": [
        {
          "internalType": "uint256",
          "name": "index",
          "type": "uint256"
        }
      ],
      "name": "tokenByIndex",
      "outputs": [
        {
          "internalType": "uint256",
          "name": "",
          "type": "uint256"
        }
      ],
      "stateMutability": "view",
      "type": "function"
    },
    {
      "inputs": [
        {
          "internalType": "address",
          "name": "owner",
          "type": "address"
        },
        {
          "internalType": "uint256",
          "name": "index",
          "type": "uint256"
        }
      ],
      "name": "tokenOfOwnerByIndex",
      "outputs": [
        {
          "internalType": "uint256",
          "name": "",
          "type": "uint256"
        }
      ],
      "stateMutability": "view",
      "type": "function"
    },
    {
      "inputs": [],
      "name": "totalSupply",
      "outputs": [
        {
          "internalType": "uint256",
          "name": "",
          "type": "uint256"
        }
      ],
      "stateMutability": "view",
      "type": "function"
    },
    {
      "inputs": [
        {
          "internalType": "address",
          "name": "from",
          "type": "address"
        },
        {
          "internalType": "address",
          "name": "to",
          "type": "address"
        },
        {
          "internalType": "uint256",
          "name": "tokenId",
          "type": "uint256"
        }
      ],
      "name": "transferFrom",
      "outputs": [],
      "stateMutability": "nonpayable",
      "type": "function"
    },
    {
      "inputs": [
        {
          "internalType": "string",
          "name": "name",
          "type": "string"
        },
        {
          "internalType": "string",
          "name": "symbol",
          "type": "string"
        },
        {
          "internalType": "string",
          "name": "baseTokenURI",
          "type": "string"
        },
        {
          "internalType": "address",
          "name": "rootAdmin",
          "type": "address"
        }
      ],
      "name": "initialize",
      "outputs": [],
      "stateMutability": "nonpayable",
      "type": "function"
    },
    {
      "inputs": [
        {
          "internalType": "string",
          "name": "baseTokenURI",
          "type": "string"
        }
      ],
      "name": "updateBaseURI",
      "outputs": [],
      "stateMutability": "nonpayable",
      "type": "function"
    },
    {
      "inputs": [],
      "name": "contractURI",
      "outputs": [
        {
          "internalType": "string",
          "name": "",
          "type": "string"
        }
      ],
      "stateMutability": "view",
      "type": "function"
    },
    {
      "inputs": [
        {
          "internalType": "string",
          "name": "uri",
          "type": "string"
        }
      ],
      "name": "updateContractURI",
      "outputs": [],
      "stateMutability": "nonpayable",
      "type": "function"
    },
    {
      "inputs": [
        {
          "internalType": "uint256",
          "name": "tokenId",
          "type": "uint256"
        }
      ],
      "name": "tokenURI",
      "outputs": [
        {
          "internalType": "string",
          "name": "tokenUri",
          "type": "string"
        }
      ],
      "stateMutability": "view",
      "type": "function"
    },
    {
      "inputs": [
        {
          "internalType": "address",
          "name": "newOwner",
          "type": "address"
        }
      ],
      "name": "transferOwnership",
      "outputs": [],
      "stateMutability": "nonpayable",
      "type": "function"
    },
    {
      "inputs": [
        {
          "internalType": "bytes32",
          "name": "role",
          "type": "bytes32"
        },
        {
          "internalType": "address",
          "name": "account",
          "type": "address"
        }
      ],
      "name": "grantRole",
      "outputs": [],
      "stateMutability": "nonpayable",
      "type": "function"
    },
    {
      "inputs": [
        {
          "internalType": "address",
          "name": "newAdmin",
          "type": "address"
        }
      ],
      "name": "changeRootAdmin",
      "outputs": [],
      "stateMutability": "nonpayable",
      "type": "function"
    },
    {
      "inputs": [
        {
          "internalType": "address",
          "name": "account",
          "type": "address"
        },
        {
          "internalType": "bytes32",
          "name": "role",
          "type": "bytes32"
        }
      ],
      "name": "addMinterOrPauser",
      "outputs": [],
      "stateMutability": "nonpayable",
      "type": "function"
    },
    {
      "inputs": [
        {
          "internalType": "address",
          "name": "receiver",
          "type": "address"
        },
        {
          "internalType": "uint256",
          "name": "collectibleId",
          "type": "uint256"
        },
        {
          "internalType": "string",
          "name": "IPFSHash",
          "type": "string"
        },
        {
          "components": [
            {
              "internalType": "address",
              "name": "account",
              "type": "address"
            },
            {
              "internalType": "uint256",
              "name": "percentage",
              "type": "uint256"
            }
          ],
          "internalType": "struct NFTMarketplaceERC721.Royalties",
          "name": "royalties",
          "type": "tuple"
        }
      ],
      "name": "mint",
      "outputs": [],
      "stateMutability": "nonpayable",
      "type": "function"
    },
    {
      "inputs": [
        {
          "internalType": "uint256",
          "name": "_tokenId",
          "type": "uint256"
        },
        {
          "internalType": "uint256",
          "name": "_salePrice",
          "type": "uint256"
        }
      ],
      "name": "royaltyInfo",
      "outputs": [
        {
          "internalType": "address",
          "name": "receiver",
          "type": "address"
        },
        {
          "internalType": "uint256",
          "name": "royaltyAmount",
          "type": "uint256"
        }
      ],
      "stateMutability": "view",
      "type": "function"
    },
    {
      "inputs": [
        {
          "internalType": "bool",
          "name": "approval",
          "type": "bool"
        }
      ],
      "name": "setApprovalForOwner",
      "outputs": [],
      "stateMutability": "nonpayable",
      "type": "function"
    },
    {
      "inputs": [
        {
          "internalType": "bool",
          "name": "approval",
          "type": "bool"
        },
        {
          "internalType": "address",
          "name": "minterAccount",
          "type": "address"
        }
      ],
      "name": "setApprovalForMinter",
      "outputs": [],
      "stateMutability": "nonpayable",
      "type": "function"
    },
    {
      "inputs": [
        {
          "internalType": "address",
          "name": "account",
          "type": "address"
        }
      ],
      "name": "isApprovedForOwner",
      "outputs": [
        {
          "internalType": "bool",
          "name": "approval",
          "type": "bool"
        }
      ],
      "stateMutability": "view",
      "type": "function"
    },
    {
      "inputs": [],
      "name": "pause",
      "outputs": [],
      "stateMutability": "nonpayable",
      "type": "function"
    },
    {
      "inputs": [],
      "name": "unpause",
      "outputs": [],
      "stateMutability": "nonpayable",
      "type": "function"
    },
    {
      "inputs": [
        {
          "internalType": "bytes4",
          "name": "interfaceId",
          "type": "bytes4"
        }
      ],
      "name": "supportsInterface",
      "outputs": [
        {
          "internalType": "bool",
          "name": "",
          "type": "bool"
        }
      ],
      "stateMutability": "view",
      "type": "function"
    }
  ],
  "bytecode": "0x608060405234801561001057600080fd5b506135f9806100206000396000f3fe608060405234801561001057600080fd5b506004361061028a5760003560e01c80637536fad51161015c578063a22cb465116100ce578063d539139311610087578063d53913931461059e578063d547741f146105b3578063e63ab1e9146105c6578063e8a3d485146105db578063e985e9c5146105e3578063f2fde38b146105f657600080fd5b8063a22cb46514610537578063b88d4fde1461054a578063c0e727401461055d578063c87b56dd14610565578063ca15c87314610578578063cc3961b01461058b57600080fd5b80638da5cb5b116101205780638da5cb5b146104dd5780639010d07c146104ee57806391d1485414610501578063931688cb1461051457806395d89b4114610527578063a217fddf1461052f57600080fd5b80637536fad51461048757806375b238fc1461049a5780637e5b1e24146104af5780638456cb59146104c25780638670a86e146104ca57600080fd5b806336461704116102005780635c6d8da1116101b95780635c6d8da1146104275780635c975abb1461043a5780636352211e1461044657806366eb463f1461045957806370a082311461046c578063715018a61461047f57600080fd5b806336461704146103c057806336568abe146103d35780633f4ba83a146103e657806342842e0e146103ee57806342966c68146104015780634f6ccce71461041457600080fd5b806318160ddd1161025257806318160ddd1461031f57806323b872dd14610332578063248a9ca3146103455780632a55205a146103685780632f2ff15d1461039a5780632f745c59146103ad57600080fd5b806301ffc9a71461028f57806306fdde03146102b7578063081812fc146102cc578063095ea7b3146102f7578063165081941461030c575b600080fd5b6102a261029d366004612c80565b610609565b60405190151581526020015b60405180910390f35b6102bf61063a565b6040516102ae9190612cf5565b6102df6102da366004612d08565b6106cc565b6040516001600160a01b0390911681526020016102ae565b61030a610305366004612d36565b6106f3565b005b61030a61031a366004612d77565b61080d565b61012f545b6040519081526020016102ae565b61030a610340366004612d92565b610838565b610324610353366004612d08565b60009081526065602052604090206001015490565b61037b610376366004612dd3565b61086a565b604080516001600160a01b0390931683526020830191909152016102ae565b61030a6103a8366004612df5565b61091c565b6103246103bb366004612d36565b6109af565b61030a6103ce366004612d36565b610a46565b61030a6103e1366004612df5565b610aee565b61030a610b68565b61030a6103fc366004612d92565b610c01565b61030a61040f366004612d08565b610c1c565b610324610422366004612d08565b610c4d565b61030a610435366004612ed1565b610ce2565b6101915460ff166102a2565b6102df610454366004612d08565b610db4565b61030a610467366004612f6c565b610e14565b61032461047a366004612f6c565b610e61565b61030a610ee7565b61030a610495366004612f89565b610ef9565b6103246000805160206135a483398151915281565b61030a6104bd366004612fb5565b610f5e565b61030a610f7a565b6102a26104d8366004612f6c565b611011565b60c9546001600160a01b03166102df565b6102df6104fc366004612dd3565b611040565b6102a261050f366004612df5565b611058565b61030a610522366004612fb5565b611083565b6102bf61109f565b610324600081565b61030a610545366004612fea565b6110ae565b61030a61055836600461301f565b6110b9565b6102bf6110f1565b6102bf610573366004612d08565b611180565b610324610586366004612d08565b611326565b61030a61059936600461309f565b61133d565b61032460008051602061358483398151915281565b61030a6105c1366004612df5565b6113ea565b61032460008051602061356483398151915281565b6102bf61140f565b6102a26105f1366004613113565b61141f565b61030a610604366004612f6c565b61144e565b6000636ad56fd360e11b6001600160e01b031983160161062b57506001919050565b61063482611475565b92915050565b606060fb805461064990613131565b80601f016020809104026020016040519081016040528092919081815260200182805461067590613131565b80156106c25780601f10610697576101008083540402835291602001916106c2565b820191906000526020600020905b8154815290600101906020018083116106a557829003601f168201915b5050505050905090565b60006106d78261149a565b50600090815260ff60205260409020546001600160a01b031690565b60006106fe82610db4565b9050806001600160a01b0316836001600160a01b0316036107705760405162461bcd60e51b815260206004820152602160248201527f4552433732313a20617070726f76616c20746f2063757272656e74206f776e656044820152603960f91b60648201526084015b60405180910390fd5b336001600160a01b038216148061078c575061078c813361141f565b6107fe5760405162461bcd60e51b815260206004820152603e60248201527f4552433732313a20617070726f76652063616c6c6572206973206e6f7420746f60448201527f6b656e206f776e6572206e6f7220617070726f76656420666f7220616c6c00006064820152608401610767565b61080883836114f9565b505050565b60006108286000805160206135a48339815191526000611040565b905061083481836110ae565b5050565b610843335b82611567565b61085f5760405162461bcd60e51b815260040161076790613165565b6108088383836115c6565b600082815260fd602052604081205481906001600160a01b03166108d05760405162461bcd60e51b815260206004820152601f60248201527f717565727920666f72206e6f6e206e6f6e6578697374656e7420746f6b656e006044820152606401610767565b60008481526101f76020526040902060010154612710906108f190856131c9565b6108fb91906131fe565b60009485526101f76020526040909420546001600160a01b03169492505050565b6000805160206135a483398151915282036109a5576109486000805160206135a4833981519152611326565b156109a55760405162461bcd60e51b815260206004820152602760248201527f65786163746c79206f6e6520616464726573732063616e20686176652061646d604482015266696e20726f6c6560c81b6064820152608401610767565b610834828261176d565b60006109ba83610e61565b8210610a1c5760405162461bcd60e51b815260206004820152602b60248201527f455243373231456e756d657261626c653a206f776e657220696e646578206f7560448201526a74206f6620626f756e647360a81b6064820152608401610767565b506001600160a01b0391909116600090815261012d60209081526040808320938352929052205490565b610a5e6000805160206135a483398151915233611058565b80610a73575060c9546001600160a01b031633145b610ab65760405162461bcd60e51b81526020600482015260146024820152732932b9ba3934b1ba32b2103a379030b236b4b71760611b6044820152606401610767565b600080516020613584833981519152811480610adf575060008051602061356483398151915281145b15610834576108348183611792565b6001600160a01b0381163314610b5e5760405162461bcd60e51b815260206004820152602f60248201527f416363657373436f6e74726f6c3a2063616e206f6e6c792072656e6f756e636560448201526e103937b632b9903337b91039b2b63360891b6064820152608401610767565b610834828261179c565b610b806000805160206135a483398151915233611058565b80610b9e5750610b9e60008051602061356483398151915233611058565b80610bb3575060c9546001600160a01b031633145b610bf75760405162461bcd60e51b81526020600482015260156024820152742932b9ba3934b1ba32b2103a37903830bab9b2b91760591b6044820152606401610767565b610bff6117be565b565b610808838383604051806020016040528060008152506110b9565b610c253361083d565b610c415760405162461bcd60e51b815260040161076790613165565b610c4a81611811565b50565b6000610c5961012f5490565b8210610cbc5760405162461bcd60e51b815260206004820152602c60248201527f455243373231456e756d657261626c653a20676c6f62616c20696e646578206f60448201526b7574206f6620626f756e647360a01b6064820152608401610767565b61012f8281548110610cd057610cd0613212565b90600052602060002001549050919050565b600054610100900460ff1615808015610d025750600054600160ff909116105b80610d1c5750303b158015610d1c575060005460ff166001145b610d385760405162461bcd60e51b815260040161076790613228565b6000805460ff191660011790558015610d5b576000805461ff0019166101001790555b610d67858585856118b8565b8015610dad576000805461ff0019169055604051600181527f7f26b83ff96e1f2b6a682f133852f6798a09c465da95921460cefb38474024989060200160405180910390a15b5050505050565b600081815260fd60205260408120546001600160a01b0316806106345760405162461bcd60e51b8152602060048201526018602482015277115490cdcc8c4e881a5b9d985b1a59081d1bdad95b88125160421b6044820152606401610767565b6000610e2f6000805160206135a48339815191526000611040565b9050610e496000805160206135a4833981519152826113ea565b6108346000805160206135a48339815191528361091c565b60006001600160a01b038216610ecb5760405162461bcd60e51b815260206004820152602960248201527f4552433732313a2061646472657373207a65726f206973206e6f7420612076616044820152683634b21037bbb732b960b91b6064820152608401610767565b506001600160a01b0316600090815260fe602052604090205490565b610eef61198f565b610bff60006119e9565b610f1160008051602061358483398151915282611058565b610f545760405162461bcd60e51b81526020600482015260146024820152736e6f742061206d696e746572206164647265737360601b6044820152606401610767565b61083481836110ae565b610f6661198f565b8051610834906101f6906020840190612bd1565b610f926000805160206135a483398151915233611058565b80610fb05750610fb060008051602061356483398151915233611058565b80610fc5575060c9546001600160a01b031633145b6110095760405162461bcd60e51b81526020600482015260156024820152742932b9ba3934b1ba32b2103a37903830bab9b2b91760591b6044820152606401610767565b610bff611a3b565b60008061102d6000805160206135a48339815191526000611040565b9050611039838261141f565b9392505050565b60008281526097602052604081206110399083611a79565b60009182526065602090815260408084206001600160a01b0393909316845291905290205460ff1690565b61108b61198f565b8051610834906101f8906020840190612bd1565b606060fc805461064990613131565b610834338383611a85565b6110c33383611567565b6110df5760405162461bcd60e51b815260040161076790613165565b6110eb84848484611b54565b50505050565b6101f680546110ff90613131565b80601f016020809104026020016040519081016040528092919081815260200182805461112b90613131565b80156111785780601f1061114d57610100808354040283529160200191611178565b820191906000526020600020905b81548152906001019060200180831161115b57829003601f168201915b505050505081565b600081815260fd60205260409020546060906001600160a01b03166111ff5760405162461bcd60e51b815260206004820152602f60248201527f4552433732314d657461646174613a2055524920717565727920666f72206e6f60448201526e3732bc34b9ba32b73a103a37b5b2b760891b6064820152608401610767565b60008281526101f560205260408120805461121990613131565b80601f016020809104026020016040519081016040528092919081815260200182805461124590613131565b80156112925780601f1061126757610100808354040283529160200191611292565b820191906000526020600020905b81548152906001019060200180831161127557829003601f168201915b505050505090506101f880546112a790613131565b90506000036112b65792915050565b60006101f880546112c690613131565b9050111561132057805160000361130b576101f86112e384611b87565b6040516020016112f4929190613292565b604051602081830303815290604052915050919050565b6101f8816040516020016112f4929190613292565b50919050565b600081815260976020526040812061063490611c88565b6113556000805160206135a483398151915233611058565b80611373575061137360008051602061358483398151915233611058565b80611388575060c9546001600160a01b031633145b6113cc5760405162461bcd60e51b81526020600482015260156024820152742932b9ba3934b1ba32b2103a379036b4b73a32b91760591b6044820152606401610767565b6113d68484611c92565b6113e08383611de0565b6110eb8382611e82565b60008281526065602052604090206001015461140581611f8a565b610808838361179c565b60606101f6805461064990613131565b6001600160a01b0391821660009081526101006020908152604080832093909416825291909152205460ff1690565b61145661198f565b61145f81611f94565b61146a600082611792565b610c4a600033610aee565b60006001600160e01b0319821663780e9d6360e01b148061063457506106348261200a565b600081815260fd60205260409020546001600160a01b0316610c4a5760405162461bcd60e51b8152602060048201526018602482015277115490cdcc8c4e881a5b9d985b1a59081d1bdad95b88125160421b6044820152606401610767565b600081815260ff6020526040902080546001600160a01b0319166001600160a01b038416908117909155819061152e82610db4565b6001600160a01b03167f8c5be1e5ebec7d5bd14f71427d1e84f3dd0314c0f7b2291e5b200ac8c7c3b92560405160405180910390a45050565b60008061157383610db4565b9050806001600160a01b0316846001600160a01b0316148061159a575061159a818561141f565b806115be5750836001600160a01b03166115b3846106cc565b6001600160a01b0316145b949350505050565b826001600160a01b03166115d982610db4565b6001600160a01b03161461163d5760405162461bcd60e51b815260206004820152602560248201527f4552433732313a207472616e736665722066726f6d20696e636f72726563742060448201526437bbb732b960d91b6064820152608401610767565b6001600160a01b03821661169f5760405162461bcd60e51b8152602060048201526024808201527f4552433732313a207472616e7366657220746f20746865207a65726f206164646044820152637265737360e01b6064820152608401610767565b6116aa83838361204a565b6116b56000826114f9565b6001600160a01b038316600090815260fe602052604081208054600192906116de908490613338565b90915550506001600160a01b038216600090815260fe6020526040812080546001929061170c90849061334f565b9091555050600081815260fd602052604080822080546001600160a01b0319166001600160a01b0386811691821790925591518493918716917fddf252ad1be2c89b69c2b068fc378daa952ba7f163c4a11628f55a4df523b3ef91a4505050565b60008281526065602052604090206001015461178881611f8a565b6108088383612055565b6108348282612055565b6117a68282612077565b600082815260976020526040902061080890826120de565b6117c66120f3565b610191805460ff191690557f5db9ee0a495bf2e6ff9c91a7834c1ba4fdd244a5e8aa4e537bd38aeae4b073aa335b6040516001600160a01b03909116815260200160405180910390a1565b600061181c82610db4565b905061182a8160008461204a565b6118356000836114f9565b6001600160a01b038116600090815260fe6020526040812080546001929061185e908490613338565b9091555050600082815260fd602052604080822080546001600160a01b0319169055518391906001600160a01b038416907fddf252ad1be2c89b69c2b068fc378daa952ba7f163c4a11628f55a4df523b3ef908390a45050565b600054610100900460ff16158080156118d85750600054600160ff909116105b806118f25750303b1580156118f2575060005460ff166001145b61190e5760405162461bcd60e51b815260040161076790613228565b6000805460ff191660011790558015611931576000805461ff0019166101001790555b61193961213d565b61194161213d565b61194961213d565b61195161213d565b61195b8585612164565b61196361213d565b61196b6121b2565b61197361213d565b61197b6121e2565b61198361213d565b610d6785858585612216565b60c9546001600160a01b03163314610bff5760405162461bcd60e51b815260206004820181905260248201527f4f776e61626c653a2063616c6c6572206973206e6f7420746865206f776e65726044820152606401610767565b60c980546001600160a01b038381166001600160a01b0319831681179093556040519116919082907f8be0079c531659141344cd1fd0a4f28419497f9722a3daafe3b4186f6b6457e090600090a35050565b611a43612313565b610191805460ff191660011790557f62e78cea01bee320cd4e420270b5ea74000d11b0c9f74754ebdbfc544b05a2586117f43390565b6000611039838361235a565b816001600160a01b0316836001600160a01b031603611ae65760405162461bcd60e51b815260206004820152601960248201527f4552433732313a20617070726f766520746f2063616c6c6572000000000000006044820152606401610767565b6001600160a01b0383811660008181526101006020908152604080832094871680845294825291829020805460ff191686151590811790915591519182527f17307eab39ab6107e8899845ad3d59bd9653f200f220920489ca2b5937696c31910160405180910390a3505050565b611b5f8484846115c6565b611b6b84848484612384565b6110eb5760405162461bcd60e51b815260040161076790613367565b606081600003611bae5750506040805180820190915260018152600360fc1b602082015290565b8160005b8115611bd85780611bc2816133b9565b9150611bd19050600a836131fe565b9150611bb2565b60008167ffffffffffffffff811115611bf357611bf3612e25565b6040519080825280601f01601f191660200182016040528015611c1d576020820181803683370190505b5090505b84156115be57611c32600183613338565b9150611c3f600a866133d2565b611c4a90603061334f565b60f81b818381518110611c5f57611c5f613212565b60200101906001600160f81b031916908160001a905350611c81600a866131fe565b9450611c21565b6000610634825490565b6001600160a01b038216611ce85760405162461bcd60e51b815260206004820181905260248201527f4552433732313a206d696e7420746f20746865207a65726f20616464726573736044820152606401610767565b600081815260fd60205260409020546001600160a01b031615611d4d5760405162461bcd60e51b815260206004820152601c60248201527f4552433732313a20746f6b656e20616c7265616479206d696e746564000000006044820152606401610767565b611d596000838361204a565b6001600160a01b038216600090815260fe60205260408120805460019290611d8290849061334f565b9091555050600081815260fd602052604080822080546001600160a01b0319166001600160a01b03861690811790915590518392907fddf252ad1be2c89b69c2b068fc378daa952ba7f163c4a11628f55a4df523b3ef908290a45050565b600082815260fd60205260409020546001600160a01b0316611e595760405162461bcd60e51b815260206004820152602c60248201527f4552433732314d657461646174613a2055524920736574206f66206e6f6e657860448201526b34b9ba32b73a103a37b5b2b760a11b6064820152608401610767565b80518190156108085760008381526101f56020908152604090912083516110eb92850190612bd1565b6107d081602001351115611ef75760405162461bcd60e51b815260206004820152603660248201527f6578636565647320726f79616c747920636f6c6c656374697665206d61782076604482015275185b1d59481bd9881d1dd95b9d1e481c195c98d95b9d60521b6064820152608401610767565b6000611f066020830183612f6c565b6001600160a01b0316146108345760008281526101f7602052604090208190611f2f82826133e6565b50611f3f90506020820182612f6c565b6001600160a01b0316827f1518a753ce2ba621ee225961119ac7c1dc5ed445928dc2a37e81108a24fccdf18360200135604051611f7e91815260200190565b60405180910390a35050565b610c4a8133612485565b611f9c61198f565b6001600160a01b0381166120015760405162461bcd60e51b815260206004820152602660248201527f4f776e61626c653a206e6577206f776e657220697320746865207a65726f206160448201526564647265737360d01b6064820152608401610767565b610c4a816119e9565b60006001600160e01b031982166380ac58cd60e01b148061203b57506001600160e01b03198216635b5e139f60e01b145b806106345750610634826124e9565b61080883838361250e565b61205f8282612581565b60008281526097602052604090206108089082612607565b6120818282611058565b156108345760008281526065602090815260408083206001600160a01b0385168085529252808320805460ff1916905551339285917ff6391f5c32d9c69d2a47ea670b442974b53935d1edc7fd64eb21e047a839171b9190a45050565b6000611039836001600160a01b03841661261c565b6101915460ff16610bff5760405162461bcd60e51b815260206004820152601460248201527314185d5cd8589b194e881b9bdd081c185d5cd95960621b6044820152606401610767565b600054610100900460ff16610bff5760405162461bcd60e51b81526004016107679061341c565b600054610100900460ff1661218b5760405162461bcd60e51b81526004016107679061341c565b815161219e9060fb906020850190612bd1565b5080516108089060fc906020840190612bd1565b600054610100900460ff166121d95760405162461bcd60e51b81526004016107679061341c565b610bff336119e9565b600054610100900460ff166122095760405162461bcd60e51b81526004016107679061341c565b610191805460ff19169055565b600054610100900460ff16158080156122365750600054600160ff909116105b806122505750303b158015612250575060005460ff166001145b61226c5760405162461bcd60e51b815260040161076790613228565b6000805460ff19166001179055801561228f576000805461ff0019166101001790555b82516122a3906101f8906020860190612bd1565b506122af600033611792565b6122c76000805160206135a483398151915283611792565b6122ed6000805160206135848339815191526000805160206135a483398151915261270f565b610d676000805160206135648339815191526000805160206135a483398151915261270f565b6101915460ff1615610bff5760405162461bcd60e51b815260206004820152601060248201526f14185d5cd8589b194e881c185d5cd95960821b6044820152606401610767565b600082600001828154811061237157612371613212565b9060005260206000200154905092915050565b60006001600160a01b0384163b1561247a57604051630a85bd0160e11b81526001600160a01b0385169063150b7a02906123c8903390899088908890600401613467565b6020604051808303816000875af1925050508015612403575060408051601f3d908101601f19168201909252612400918101906134a4565b60015b612460573d808015612431576040519150601f19603f3d011682016040523d82523d6000602084013e612436565b606091505b5080516000036124585760405162461bcd60e51b815260040161076790613367565b805181602001fd5b6001600160e01b031916630a85bd0160e11b1490506115be565b506001949350505050565b61248f8282611058565b610834576124a7816001600160a01b0316601461275a565b6124b283602061275a565b6040516020016124c39291906134c1565b60408051601f198184030181529082905262461bcd60e51b825261076791600401612cf5565b60006001600160e01b03198216635a05180f60e01b14806106345750610634826128f6565b61251983838361292b565b6101915460ff16156108085760405162461bcd60e51b815260206004820152602b60248201527f4552433732315061757361626c653a20746f6b656e207472616e73666572207760448201526a1a1a5b19481c185d5cd95960aa1b6064820152608401610767565b61258b8282611058565b6108345760008281526065602090815260408083206001600160a01b03851684529091529020805460ff191660011790556125c33390565b6001600160a01b0316816001600160a01b0316837f2f8788117e7eff1d82e926ec794901d17c78024a50270940304540a733656f0d60405160405180910390a45050565b6000611039836001600160a01b0384166129e5565b60008181526001830160205260408120548015612705576000612640600183613338565b855490915060009061265490600190613338565b90508181146126b957600086600001828154811061267457612674613212565b906000526020600020015490508087600001848154811061269757612697613212565b6000918252602080832090910192909255918252600188019052604090208390555b85548690806126ca576126ca613536565b600190038181906000526020600020016000905590558560010160008681526020019081526020016000206000905560019350505050610634565b6000915050610634565b600082815260656020526040808220600101805490849055905190918391839186917fbd79b86ffe0ab8e8776151514217cd7cacd52c909f66475c3af44e129f0b00ff9190a4505050565b606060006127698360026131c9565b61277490600261334f565b67ffffffffffffffff81111561278c5761278c612e25565b6040519080825280601f01601f1916602001820160405280156127b6576020820181803683370190505b509050600360fc1b816000815181106127d1576127d1613212565b60200101906001600160f81b031916908160001a905350600f60fb1b8160018151811061280057612800613212565b60200101906001600160f81b031916908160001a90535060006128248460026131c9565b61282f90600161334f565b90505b60018111156128a7576f181899199a1a9b1b9c1cb0b131b232b360811b85600f166010811061286357612863613212565b1a60f81b82828151811061287957612879613212565b60200101906001600160f81b031916908160001a90535060049490941c936128a08161354c565b9050612832565b5083156110395760405162461bcd60e51b815260206004820181905260248201527f537472696e67733a20686578206c656e67746820696e73756666696369656e746044820152606401610767565b60006001600160e01b03198216637965db0b60e01b148061063457506301ffc9a760e01b6001600160e01b0319831614610634565b6001600160a01b038316612988576129838161012f8054600083815261013060205260408120829055600182018355919091527f232da9e50dad2971456a78fb5cd6ff6b75019984d6e918139ce990999420f9790155565b6129ab565b816001600160a01b0316836001600160a01b0316146129ab576129ab8382612a34565b6001600160a01b0382166129c25761080881612ad6565b826001600160a01b0316826001600160a01b031614610808576108088282612b8b565b6000818152600183016020526040812054612a2c57508154600181810184556000848152602080822090930184905584548482528286019093526040902091909155610634565b506000610634565b60006001612a4184610e61565b612a4b9190613338565b600083815261012e6020526040902054909150808214612aa1576001600160a01b038416600090815261012d60209081526040808320858452825280832054848452818420819055835261012e90915290208190555b50600091825261012e602090815260408084208490556001600160a01b03909416835261012d81528383209183525290812055565b61012f54600090612ae990600190613338565b6000838152610130602052604081205461012f8054939450909284908110612b1357612b13613212565b906000526020600020015490508061012f8381548110612b3557612b35613212565b6000918252602080832090910192909255828152610130909152604080822084905585825281205561012f805480612b6f57612b6f613536565b6001900381819060005260206000200160009055905550505050565b6000612b9683610e61565b6001600160a01b03909316600090815261012d60209081526040808320868452825280832085905593825261012e9052919091209190915550565b828054612bdd90613131565b90600052602060002090601f016020900481019282612bff5760008555612c45565b82601f10612c1857805160ff1916838001178555612c45565b82800160010185558215612c45579182015b82811115612c45578251825591602001919060010190612c2a565b50612c51929150612c55565b5090565b5b80821115612c515760008155600101612c56565b6001600160e01b031981168114610c4a57600080fd5b600060208284031215612c9257600080fd5b813561103981612c6a565b60005b83811015612cb8578181015183820152602001612ca0565b838111156110eb5750506000910152565b60008151808452612ce1816020860160208601612c9d565b601f01601f19169290920160200192915050565b6020815260006110396020830184612cc9565b600060208284031215612d1a57600080fd5b5035919050565b6001600160a01b0381168114610c4a57600080fd5b60008060408385031215612d4957600080fd5b8235612d5481612d21565b946020939093013593505050565b80358015158114612d7257600080fd5b919050565b600060208284031215612d8957600080fd5b61103982612d62565b600080600060608486031215612da757600080fd5b8335612db281612d21565b92506020840135612dc281612d21565b929592945050506040919091013590565b60008060408385031215612de657600080fd5b50508035926020909101359150565b60008060408385031215612e0857600080fd5b823591506020830135612e1a81612d21565b809150509250929050565b634e487b7160e01b600052604160045260246000fd5b600067ffffffffffffffff80841115612e5657612e56612e25565b604051601f8501601f19908116603f01168101908282118183101715612e7e57612e7e612e25565b81604052809350858152868686011115612e9757600080fd5b858560208301376000602087830101525050509392505050565b600082601f830112612ec257600080fd5b61103983833560208501612e3b565b60008060008060808587031215612ee757600080fd5b843567ffffffffffffffff80821115612eff57600080fd5b612f0b88838901612eb1565b95506020870135915080821115612f2157600080fd5b612f2d88838901612eb1565b94506040870135915080821115612f4357600080fd5b50612f5087828801612eb1565b9250506060850135612f6181612d21565b939692955090935050565b600060208284031215612f7e57600080fd5b813561103981612d21565b60008060408385031215612f9c57600080fd5b612fa583612d62565b91506020830135612e1a81612d21565b600060208284031215612fc757600080fd5b813567ffffffffffffffff811115612fde57600080fd5b6115be84828501612eb1565b60008060408385031215612ffd57600080fd5b823561300881612d21565b915061301660208401612d62565b90509250929050565b6000806000806080858703121561303557600080fd5b843561304081612d21565b9350602085013561305081612d21565b925060408501359150606085013567ffffffffffffffff81111561307357600080fd5b8501601f8101871361308457600080fd5b61309387823560208401612e3b565b91505092959194509250565b60008060008084860360a08112156130b657600080fd5b85356130c181612d21565b945060208601359350604086013567ffffffffffffffff8111156130e457600080fd5b6130f088828901612eb1565b9350506040605f198201121561310557600080fd5b509295919450926060019150565b6000806040838503121561312657600080fd5b8235612fa581612d21565b600181811c9082168061314557607f821691505b60208210810361132057634e487b7160e01b600052602260045260246000fd5b6020808252602e908201527f4552433732313a2063616c6c6572206973206e6f7420746f6b656e206f776e6560408201526d1c881b9bdc88185c1c1c9bdd995960921b606082015260800190565b634e487b7160e01b600052601160045260246000fd5b60008160001904831182151516156131e3576131e36131b3565b500290565b634e487b7160e01b600052601260045260246000fd5b60008261320d5761320d6131e8565b500490565b634e487b7160e01b600052603260045260246000fd5b6020808252602e908201527f496e697469616c697a61626c653a20636f6e747261637420697320616c72656160408201526d191e481a5b9a5d1a585b1a5e995960921b606082015260800190565b60008151613288818560208601612c9d565b9290920192915050565b600080845481600182811c9150808316806132ae57607f831692505b602080841082036132cd57634e487b7160e01b86526022600452602486fd5b8180156132e157600181146132f25761331f565b60ff1986168952848901965061331f565b60008b81526020902060005b868110156133175781548b8201529085019083016132fe565b505084890196505b50505050505061332f8185613276565b95945050505050565b60008282101561334a5761334a6131b3565b500390565b60008219821115613362576133626131b3565b500190565b60208082526032908201527f4552433732313a207472616e7366657220746f206e6f6e20455243373231526560408201527131b2b4bb32b91034b6b83632b6b2b73a32b960711b606082015260800190565b6000600182016133cb576133cb6131b3565b5060010190565b6000826133e1576133e16131e8565b500690565b81356133f181612d21565b81546001600160a01b0319166001600160a01b03919091161781556020919091013560019190910155565b6020808252602b908201527f496e697469616c697a61626c653a20636f6e7472616374206973206e6f74206960408201526a6e697469616c697a696e6760a81b606082015260800190565b6001600160a01b038581168252841660208201526040810183905260806060820181905260009061349a90830184612cc9565b9695505050505050565b6000602082840312156134b657600080fd5b815161103981612c6a565b7f416363657373436f6e74726f6c3a206163636f756e74200000000000000000008152600083516134f9816017850160208801612c9d565b7001034b99036b4b9b9b4b733903937b6329607d1b601791840191820152835161352a816028840160208801612c9d565b01602801949350505050565b634e487b7160e01b600052603160045260246000fd5b60008161355b5761355b6131b3565b50600019019056fe65d7a28e3265b37a6474929f336521b332c1681b933f6cb9f3376673440d862a9f2df0fed2c77648de5860a4cc508cd0818c85b8b8a1ab4ceeef8d981c8956a6a49807205ce4d355092ef5a8a18f56e8913cf4a201fbe287825b095693c21775a2646970667358221220caee681bde8d0d07ed126b2bda6041cfb97b76baaaa6ae47c8384ea4b3250cd864736f6c634300080d0033",
  "immutableReferences": {},
  "source": "/**\n * SPDX-License-Identifier: MIT\n * @author Accubits\n * @title NFTMarketplaceERC721\n */\n\npragma solidity 0.8.13;\n\nimport '@openzeppelin/contracts-upgradeable/token/ERC721/ERC721Upgradeable.sol';\nimport '@openzeppelin/contracts-upgradeable/token/ERC721/extensions/ERC721EnumerableUpgradeable.sol';\nimport '@openzeppelin/contracts-upgradeable/token/ERC721/extensions/ERC721BurnableUpgradeable.sol';\nimport '@openzeppelin/contracts-upgradeable/token/ERC721/extensions/ERC721PausableUpgradeable.sol';\nimport '@openzeppelin/contracts-upgradeable/access/AccessControlEnumerableUpgradeable.sol';\nimport '@openzeppelin/contracts-upgradeable/access/IAccessControlUpgradeable.sol';\nimport '@openzeppelin/contracts-upgradeable/access/OwnableUpgradeable.sol';\nimport '@openzeppelin/contracts-upgradeable/utils/ContextUpgradeable.sol';\nimport '@openzeppelin/contracts-upgradeable/utils/CountersUpgradeable.sol';\nimport '@openzeppelin/contracts-upgradeable/proxy/utils/Initializable.sol';\n\n/**\n * @title NFT2.0 MarketPlace ERC721 Contract\n * @dev {ERC721} token, including:\n *\n *  - ability for holders to burn (destroy) their tokens\n *  - a minter role that allows for token minting (creation)\n *  - a pauser role that allows to stop all token transfers\n *  - token ID and URI autogeneration\n *\n * This contract uses {AccessControl} to lock permissioned functions using the\n * different roles - head to its documentation for details.\n *\n * The account that deploys the contract will be granted the minter and pauser\n * roles, as well as the default admin role, which will let it grant both minter\n * and pauser roles to other accounts.\n */\ncontract NFTMarketplaceERC721 is\n  Initializable,\n  AccessControlEnumerableUpgradeable,\n  OwnableUpgradeable,\n  ERC721EnumerableUpgradeable,\n  ERC721BurnableUpgradeable,\n  ERC721PausableUpgradeable\n{\n  using StringsUpgradeable for uint256;\n\n  mapping(uint256 => string) private _tokenURIs;\n  string public _contractURI;\n\n  struct Royalties {\n    address account;\n    uint256 percentage;\n  }\n\n  /// storing the royalty details of a token\n  mapping(uint256 => Royalties) private _royalties;\n\n  event RoyaltyAdded(uint256 indexed tokenId, address indexed account, uint256 percentage);\n\n  /**\n   * @dev Constructor/Initilizer\n   * @param name ERC721 Token name\n   * @param symbol ERC721 Token symbol\n   * @param baseTokenURI ERC721 Token Base URI\n   * @param rootAdmin Admin Address\n   */\n  function initialize(\n    string memory name,\n    string memory symbol,\n    string memory baseTokenURI,\n    address rootAdmin\n  ) public virtual initializer {\n    __NFTMarketplaceUpgradableV2_init(name, symbol, baseTokenURI, rootAdmin);\n  }\n\n  bytes32 public constant MINTER_ROLE = keccak256('MINTER_ROLE');\n  bytes32 public constant PAUSER_ROLE = keccak256('PAUSER_ROLE');\n  bytes32 public constant ADMIN_ROLE = keccak256('ADMIN_ROLE');\n\n  string private _baseTokenURI;\n\n  bytes4 private constant _INTERFACE_ID_ERC2981 = 0x2a55205a;\n\n  /**\n   * @dev Grants `DEFAULT_ADMIN_ROLE`, `MINTER_ROLE` and `PAUSER_ROLE` to the\n   * account that deploys the contract.\n   *\n   * Token URIs will be autogenerated based on `baseURI` and their token IDs.\n   * See {ERC721-tokenURI}.\n   * @param name ERC721 Token name\n   * @param symbol ERC721 Token symbol\n   * @param baseTokenURI ERC721 Token Base URI\n   * @param rootAdmin Admin Address\n   */\n  function __NFTMarketplaceUpgradableV2_init(\n    string memory name,\n    string memory symbol,\n    string memory baseTokenURI,\n    address rootAdmin\n  ) internal initializer {\n    __Context_init_unchained();\n    __ERC165_init_unchained();\n    __AccessControl_init_unchained();\n    __AccessControlEnumerable_init_unchained();\n    __ERC721_init_unchained(name, symbol);\n    __ERC721Enumerable_init_unchained();\n    __Ownable_init_unchained();\n    __ERC721Burnable_init_unchained();\n    __Pausable_init_unchained();\n    __ERC721Pausable_init_unchained();\n    __NFTMarketplaceUpgradableV2_init_unchained(name, symbol, baseTokenURI, rootAdmin);\n  }\n\n  /**\n   * @dev Grants `DEFAULT_ADMIN_ROLE`, `MINTER_ROLE` and `PAUSER_ROLE` to the\n   * account that deploys the contract.\n   *\n   * Token URIs will be autogenerated based on `baseURI` and their token IDs.\n   * See {ERC721-tokenURI}.\n   * @param name ERC721 Token name\n   * @param symbol ERC721 Token symbol\n   * @param baseTokenURI ERC721 Token Base URI\n   * @param rootAdmin Admin Address\n   */\n  function __NFTMarketplaceUpgradableV2_init_unchained(\n    string memory name,\n    string memory symbol,\n    string memory baseTokenURI,\n    address rootAdmin\n  ) internal initializer {\n    _baseTokenURI = baseTokenURI;\n\n    _setupRole(DEFAULT_ADMIN_ROLE, _msgSender());\n    _setupRole(ADMIN_ROLE, rootAdmin);\n    _setRoleAdmin(MINTER_ROLE, ADMIN_ROLE);\n    _setRoleAdmin(PAUSER_ROLE, ADMIN_ROLE);\n  }\n\n  /**\n   * @dev Function to get Base URI\n   * @return baseURI Base URI\n   */\n  function _baseURI() internal view virtual override returns (string memory) {\n    return _baseTokenURI;\n  }\n\n  /**\n   * @dev Function to update Base URI\n   * @param baseTokenURI Base URI\n   */\n  function updateBaseURI(string memory baseTokenURI) public onlyOwner {\n    _baseTokenURI = baseTokenURI;\n  }\n\n  /**\n   * @dev Function to get contractURI\n   * @return contractURI contractURI\n   */\n  function contractURI() public view returns (string memory) {\n    return _contractURI;\n  }\n\n  /**\n   * @dev Function to update contractURI\n   * @param uri contractURI\n   */\n  function updateContractURI(string memory uri) public onlyOwner {\n    _contractURI = uri;\n  }\n\n  /**\n   * @dev See {IERC721Metadata-tokenURI}.\n   */\n  function tokenURI(uint256 tokenId) public view override returns (string memory tokenUri) {\n    require(_exists(tokenId), 'ERC721Metadata: URI query for nonexistent token');\n\n    string memory _tokenURI = _tokenURIs[tokenId];\n\n    /// If there is no base URI, return the token URI.\n    if (bytes(_baseTokenURI).length == 0) {\n      return _tokenURI;\n    }\n    /// If both are set, concatenate the baseURI and tokenURI (via abi.encodePacked).\n    if (bytes(_baseTokenURI).length > 0) {\n      if (bytes(_tokenURI).length == 0) {\n        /// If there is a baseURI but no tokenURI, concatenate the tokenID to the baseURI.\n        return string(abi.encodePacked(_baseTokenURI, tokenId.toString()));\n      }\n\n      return string(abi.encodePacked(_baseTokenURI, _tokenURI));\n    }\n  }\n\n  /**\n   * @dev Sets `_tokenURI` as the tokenURI of `tokenId`.\n   *\n   * Requirements:\n   *\n   * - `tokenId` must exist.\n   */\n  function _setTokenURI(uint256 tokenId, string memory _tokenURI) internal virtual {\n    require(_exists(tokenId), 'ERC721Metadata: URI set of nonexistent token');\n\n    bytes memory tempBytes = bytes(_tokenURI);\n    if (tempBytes.length > 0) _tokenURIs[tokenId] = _tokenURI;\n  }\n\n  /**\n   * @dev overriding the inherited {transferOwnership} function to reflect the admin changes into the {DEFAULT_ADMIN_ROLE}\n   */\n  function transferOwnership(address newOwner) public override onlyOwner {\n    super.transferOwnership(newOwner);\n    _setupRole(DEFAULT_ADMIN_ROLE, newOwner);\n    renounceRole(DEFAULT_ADMIN_ROLE, _msgSender());\n  }\n\n  /**\n   * @dev overriding the inherited {grantRole} function to have a single root admin\n   */\n  function grantRole(bytes32 role, address account) public override(AccessControlUpgradeable, IAccessControlUpgradeable) {\n    if (role == ADMIN_ROLE) require(getRoleMemberCount(ADMIN_ROLE) == 0, 'exactly one address can have admin role');\n\n    super.grantRole(role, account);\n  }\n\n  /**\n   * @dev modifier to check admin rights.\n   * contract owner and root admin have admin rights\n   */\n  modifier onlyAdmin() {\n    require(hasRole(ADMIN_ROLE, _msgSender()) || owner() == _msgSender(), 'Restricted to admin.');\n    _;\n  }\n\n  /**\n   * @dev modifier to check mint rights.\n   * contract owner, root admin and minter's have mint rights\n   */\n  modifier onlyMinter() {\n    require(hasRole(ADMIN_ROLE, _msgSender()) || hasRole(MINTER_ROLE, _msgSender()) || owner() == _msgSender(), 'Restricted to minter.');\n    _;\n  }\n\n  /**\n   * @dev modifier to check pause rights.\n   * contract owner, root admin and pausers's have pause rights\n   */\n  modifier onlyPauser() {\n    require(hasRole(ADMIN_ROLE, _msgSender()) || hasRole(PAUSER_ROLE, _msgSender()) || owner() == _msgSender(), 'Restricted to pauser.');\n    _;\n  }\n\n  /**\n   * @dev This function is to change the root admin\n   * exaclty one root admin is allowed per contract\n   * only contract owner have the authority to add, remove or change\n   */\n  function changeRootAdmin(address newAdmin) public {\n    address oldAdmin = getRoleMember(ADMIN_ROLE, 0);\n    revokeRole(ADMIN_ROLE, oldAdmin);\n    grantRole(ADMIN_ROLE, newAdmin);\n  }\n\n  /**\n   * @dev This function is to add a minter or pauser into the contract,\n   * only root admin and contract owner have the authority to add them\n   * but only the root admin can revoke them using {revokeRole}\n   * minter or pauser can also self renounce the access using {renounceRole}\n   */\n  function addMinterOrPauser(address account, bytes32 role) public onlyAdmin {\n    if (role == MINTER_ROLE || role == PAUSER_ROLE) _setupRole(role, account);\n  }\n\n  /// As part of the lazy minting this mint function will be called by the admin and will transfer the NFT to the buyer\n  function mint(\n    address receiver,\n    uint256 collectibleId,\n    string memory IPFSHash,\n    Royalties calldata royalties\n  ) public onlyMinter {\n    _mint(receiver, collectibleId);\n    _setTokenURI(collectibleId, IPFSHash);\n    _setRoyalties(collectibleId, royalties);\n  }\n\n  /**\n   * @dev This function is set royalties\n   */\n  function _setRoyalties(uint256 collectibleId, Royalties calldata royalties) internal virtual {\n    require(royalties.percentage <= 2000, 'exceeds royalty collective max value of twenty percent');\n\n    if (royalties.account != address(0)) {\n      _royalties[collectibleId] = royalties;\n      emit RoyaltyAdded(collectibleId, royalties.account, royalties.percentage);\n    }\n  }\n\n  /**\n   * @dev This function is to get royalty amount\n   */\n  function royaltyInfo(uint256 _tokenId, uint256 _salePrice) external view returns (address receiver, uint256 royaltyAmount) {\n    require(_exists(_tokenId), 'query for non nonexistent token');\n\n    royaltyAmount = (_salePrice * _royalties[_tokenId].percentage) / 10000;\n    receiver = _royalties[_tokenId].account;\n  }\n\n  /**\n   * @dev This funtion is to give authority to root admin to transfer token to the\n   * buyer on behalf of the token owner\n   *\n   * The token owner can approve and renounce the access via this function\n   */\n  function setApprovalForOwner(bool approval) public {\n    address defaultAdmin = getRoleMember(ADMIN_ROLE, 0);\n    setApprovalForAll(defaultAdmin, approval);\n  }\n\n  /**\n   * @dev This funtion is to give authority to minter to transfer token to the\n   * buyer on behalf of the token owner\n   *\n   * The token owner can approve and renounce the access via this function\n   */\n  function setApprovalForMinter(bool approval, address minterAccount) public {\n    require(hasRole(MINTER_ROLE, minterAccount), 'not a minter address');\n    setApprovalForAll(minterAccount, approval);\n  }\n\n  /**\n   * @dev This funtion is to check weather the contract admin have approval from a token owner\n   *\n   */\n  function isApprovedForOwner(address account) public view returns (bool approval) {\n    address defaultAdmin = getRoleMember(ADMIN_ROLE, 0);\n    return isApprovedForAll(account, defaultAdmin);\n  }\n\n  /**\n   * @dev Pauses all token transfers.\n   *\n   * See {ERC721Pausable} and {Pausable-_pause}.\n   *\n   * Requirements:\n   *\n   * - the caller must have the `PAUSER_ROLE`.\n   */\n  function pause() public virtual onlyPauser {\n    _pause();\n  }\n\n  /**\n   * @dev Unpauses all token transfers.\n   *\n   * See {ERC721Pausable} and {Pausable-_unpause}.\n   *\n   * Requirements:\n   *\n   * - the caller must have the `PAUSER_ROLE`.\n   */\n  function unpause() public virtual onlyPauser {\n    _unpause();\n  }\n\n  function _beforeTokenTransfer(\n    address from,\n    address to,\n    uint256 tokenId\n  ) internal virtual override(ERC721Upgradeable, ERC721EnumerableUpgradeable, ERC721PausableUpgradeable) {\n    super._beforeTokenTransfer(from, to, tokenId);\n  }\n\n  /**\n   * @dev See {IERC165-supportsInterface}.\n   */\n  function supportsInterface(bytes4 interfaceId)\n    public\n    view\n    virtual\n    override(AccessControlEnumerableUpgradeable, ERC721Upgradeable, ERC721EnumerableUpgradeable)\n    returns (bool)\n  {\n    /// add support to EIP-2981: NFT Royalty Standard\n    if (interfaceId == _INTERFACE_ID_ERC2981) {\n      return true;\n    }\n    return super.supportsInterface(interfaceId);\n  }\n\n  uint256[48] private __gap;\n}\n",
  "sourcePath": "/home/accubits-prasanth/Documents/Accubits/NFT 2.0/Smart Contract/contracts/NFTMarketplaceERC721.sol",
  "compiler": {
    "name": "solc",
    "version": "0.8.13+commit.abaa5c0e.Emscripten.clang"
  },
  "schemaVersion": "3.4.6",
  "updatedAt": "2022-09-15T11:28:42.619Z",
  "devdoc": {
    "details": "{ERC721} token, including:  - ability for holders to burn (destroy) their tokens  - a minter role that allows for token minting (creation)  - a pauser role that allows to stop all token transfers  - token ID and URI autogeneration This contract uses {AccessControl} to lock permissioned functions using the different roles - head to its documentation for details. The account that deploys the contract will be granted the minter and pauser roles, as well as the default admin role, which will let it grant both minter and pauser roles to other accounts.",
    "kind": "dev",
    "methods": {
      "addMinterOrPauser(address,bytes32)": {
        "details": "This function is to add a minter or pauser into the contract, only root admin and contract owner have the authority to add them but only the root admin can revoke them using {revokeRole} minter or pauser can also self renounce the access using {renounceRole}"
      },
      "approve(address,uint256)": {
        "details": "See {IERC721-approve}."
      },
      "balanceOf(address)": {
        "details": "See {IERC721-balanceOf}."
      },
      "burn(uint256)": {
        "details": "Burns `tokenId`. See {ERC721-_burn}. Requirements: - The caller must own `tokenId` or be an approved operator."
      },
      "changeRootAdmin(address)": {
        "details": "This function is to change the root admin exaclty one root admin is allowed per contract only contract owner have the authority to add, remove or change"
      },
      "contractURI()": {
        "details": "Function to get contractURI",
        "returns": {
          "_0": "contractURI contractURI"
        }
      },
      "getApproved(uint256)": {
        "details": "See {IERC721-getApproved}."
      },
      "getRoleAdmin(bytes32)": {
        "details": "Returns the admin role that controls `role`. See {grantRole} and {revokeRole}. To change a role's admin, use {_setRoleAdmin}."
      },
      "getRoleMember(bytes32,uint256)": {
        "details": "Returns one of the accounts that have `role`. `index` must be a value between 0 and {getRoleMemberCount}, non-inclusive. Role bearers are not sorted in any particular way, and their ordering may change at any point. WARNING: When using {getRoleMember} and {getRoleMemberCount}, make sure you perform all queries on the same block. See the following https://forum.openzeppelin.com/t/iterating-over-elements-on-enumerableset-in-openzeppelin-contracts/2296[forum post] for more information."
      },
      "getRoleMemberCount(bytes32)": {
        "details": "Returns the number of accounts that have `role`. Can be used together with {getRoleMember} to enumerate all bearers of a role."
      },
      "grantRole(bytes32,address)": {
        "details": "overriding the inherited {grantRole} function to have a single root admin"
      },
      "hasRole(bytes32,address)": {
        "details": "Returns `true` if `account` has been granted `role`."
      },
      "initialize(string,string,string,address)": {
        "details": "Constructor/Initilizer",
        "params": {
          "baseTokenURI": "ERC721 Token Base URI",
          "name": "ERC721 Token name",
          "rootAdmin": "Admin Address",
          "symbol": "ERC721 Token symbol"
        }
      },
      "isApprovedForAll(address,address)": {
        "details": "See {IERC721-isApprovedForAll}."
      },
      "isApprovedForOwner(address)": {
        "details": "This funtion is to check weather the contract admin have approval from a token owner"
      },
      "name()": {
        "details": "See {IERC721Metadata-name}."
      },
      "owner()": {
        "details": "Returns the address of the current owner."
      },
      "ownerOf(uint256)": {
        "details": "See {IERC721-ownerOf}."
      },
      "pause()": {
        "details": "Pauses all token transfers. See {ERC721Pausable} and {Pausable-_pause}. Requirements: - the caller must have the `PAUSER_ROLE`."
      },
      "paused()": {
        "details": "Returns true if the contract is paused, and false otherwise."
      },
      "renounceOwnership()": {
        "details": "Leaves the contract without owner. It will not be possible to call `onlyOwner` functions anymore. Can only be called by the current owner. NOTE: Renouncing ownership will leave the contract without an owner, thereby removing any functionality that is only available to the owner."
      },
      "renounceRole(bytes32,address)": {
        "details": "Revokes `role` from the calling account. Roles are often managed via {grantRole} and {revokeRole}: this function's purpose is to provide a mechanism for accounts to lose their privileges if they are compromised (such as when a trusted device is misplaced). If the calling account had been revoked `role`, emits a {RoleRevoked} event. Requirements: - the caller must be `account`. May emit a {RoleRevoked} event."
      },
      "revokeRole(bytes32,address)": {
        "details": "Revokes `role` from `account`. If `account` had been granted `role`, emits a {RoleRevoked} event. Requirements: - the caller must have ``role``'s admin role. May emit a {RoleRevoked} event."
      },
      "royaltyInfo(uint256,uint256)": {
        "details": "This function is to get royalty amount"
      },
      "safeTransferFrom(address,address,uint256)": {
        "details": "See {IERC721-safeTransferFrom}."
      },
      "safeTransferFrom(address,address,uint256,bytes)": {
        "details": "See {IERC721-safeTransferFrom}."
      },
      "setApprovalForAll(address,bool)": {
        "details": "See {IERC721-setApprovalForAll}."
      },
      "setApprovalForMinter(bool,address)": {
        "details": "This funtion is to give authority to minter to transfer token to the buyer on behalf of the token owner The token owner can approve and renounce the access via this function"
      },
      "setApprovalForOwner(bool)": {
        "details": "This funtion is to give authority to root admin to transfer token to the buyer on behalf of the token owner The token owner can approve and renounce the access via this function"
      },
      "supportsInterface(bytes4)": {
        "details": "See {IERC165-supportsInterface}."
      },
      "symbol()": {
        "details": "See {IERC721Metadata-symbol}."
      },
      "tokenByIndex(uint256)": {
        "details": "See {IERC721Enumerable-tokenByIndex}."
      },
      "tokenOfOwnerByIndex(address,uint256)": {
        "details": "See {IERC721Enumerable-tokenOfOwnerByIndex}."
      },
      "tokenURI(uint256)": {
        "details": "See {IERC721Metadata-tokenURI}."
      },
      "totalSupply()": {
        "details": "See {IERC721Enumerable-totalSupply}."
      },
      "transferFrom(address,address,uint256)": {
        "details": "See {IERC721-transferFrom}."
      },
      "transferOwnership(address)": {
        "details": "overriding the inherited {transferOwnership} function to reflect the admin changes into the {DEFAULT_ADMIN_ROLE}"
      },
      "unpause()": {
        "details": "Unpauses all token transfers. See {ERC721Pausable} and {Pausable-_unpause}. Requirements: - the caller must have the `PAUSER_ROLE`."
      },
      "updateBaseURI(string)": {
        "details": "Function to update Base URI",
        "params": {
          "baseTokenURI": "Base URI"
        }
      },
      "updateContractURI(string)": {
        "details": "Function to update contractURI",
        "params": {
          "uri": "contractURI"
        }
      }
    },
    "title": "NFT2.0 MarketPlace ERC721 Contract",
    "version": 1
  },
  "userdoc": {
    "kind": "user",
    "methods": {
      "mint(address,uint256,string,(address,uint256))": {
        "notice": "As part of the lazy minting this mint function will be called by the admin and will transfer the NFT to the buyer"
      }
    },
    "version": 1
  }
}