{
  "contractName": "PrimaryAuctionNFTMarketPlace",
  "abi": [
    {
      "inputs": [
        {
          "components": [
            {
              "internalType": "address",
              "name": "receiver",
              "type": "address"
            },
            {
              "internalType": "uint256",
              "name": "percentageValue",
              "type": "uint256"
            }
          ],
          "internalType": "struct PrimaryAuctionNFTMarketPlace.Fee",
          "name": "_platformFee",
          "type": "tuple"
        },
        {
          "internalType": "address",
          "name": "_rootAdmin",
          "type": "address"
        }
      ],
      "stateMutability": "nonpayable",
      "type": "constructor"
    },
    {
      "anonymous": false,
      "inputs": [
        {
          "indexed": true,
          "internalType": "uint256",
          "name": "tokenId",
          "type": "uint256"
        },
        {
          "indexed": true,
          "internalType": "address",
          "name": "tokenContract",
          "type": "address"
        },
        {
          "indexed": true,
          "internalType": "address",
          "name": "auctioner",
          "type": "address"
        },
        {
          "indexed": false,
          "internalType": "uint256",
          "name": "quantity",
          "type": "uint256"
        },
        {
          "indexed": false,
          "internalType": "address",
          "name": "erc20Token",
          "type": "address"
        },
        {
          "indexed": false,
          "internalType": "uint256",
          "name": "heighestBid",
          "type": "uint256"
        },
        {
          "indexed": false,
          "internalType": "address",
          "name": "heighestBidder",
          "type": "address"
        }
      ],
      "name": "AuctionCancelled",
      "type": "event"
    },
    {
      "anonymous": false,
      "inputs": [
        {
          "indexed": true,
          "internalType": "uint256",
          "name": "tokenId",
          "type": "uint256"
        },
        {
          "indexed": true,
          "internalType": "address",
          "name": "nftAddress",
          "type": "address"
        },
        {
          "indexed": true,
          "internalType": "address",
          "name": "auctioner",
          "type": "address"
        },
        {
          "indexed": false,
          "internalType": "uint256",
          "name": "basePrice",
          "type": "uint256"
        },
        {
          "indexed": false,
          "internalType": "uint256",
          "name": "salePrice",
          "type": "uint256"
        },
        {
          "indexed": false,
          "internalType": "address",
          "name": "erc20Token",
          "type": "address"
        },
        {
          "indexed": false,
          "internalType": "uint256",
          "name": "quantity",
          "type": "uint256"
        }
      ],
      "name": "AuctionCreated",
      "type": "event"
    },
    {
      "anonymous": false,
      "inputs": [
        {
          "indexed": true,
          "internalType": "uint256",
          "name": "tokenId",
          "type": "uint256"
        },
        {
          "indexed": true,
          "internalType": "address",
          "name": "tokenContract",
          "type": "address"
        },
        {
          "indexed": true,
          "internalType": "address",
          "name": "auctioner",
          "type": "address"
        },
        {
          "indexed": false,
          "internalType": "address",
          "name": "heighestBidder",
          "type": "address"
        },
        {
          "indexed": false,
          "internalType": "address",
          "name": "erc20Token",
          "type": "address"
        },
        {
          "indexed": false,
          "internalType": "uint256",
          "name": "quantity",
          "type": "uint256"
        },
        {
          "indexed": false,
          "internalType": "uint256",
          "name": "heighestBid",
          "type": "uint256"
        }
      ],
      "name": "AuctionSettled",
      "type": "event"
    },
    {
      "anonymous": false,
      "inputs": [
        {
          "indexed": true,
          "internalType": "uint256",
          "name": "tokenId",
          "type": "uint256"
        },
        {
          "indexed": true,
          "internalType": "address",
          "name": "tokenContract",
          "type": "address"
        },
        {
          "indexed": true,
          "internalType": "address",
          "name": "auctioner",
          "type": "address"
        },
        {
          "indexed": false,
          "internalType": "address",
          "name": "bidder",
          "type": "address"
        },
        {
          "indexed": false,
          "internalType": "address",
          "name": "erc20Token",
          "type": "address"
        },
        {
          "indexed": false,
          "internalType": "uint256",
          "name": "quantity",
          "type": "uint256"
        },
        {
          "indexed": false,
          "internalType": "uint256",
          "name": "price",
          "type": "uint256"
        }
      ],
      "name": "BidPlaced",
      "type": "event"
    },
    {
      "anonymous": false,
      "inputs": [
        {
          "indexed": true,
          "internalType": "address",
          "name": "from",
          "type": "address"
        },
        {
          "indexed": false,
          "internalType": "uint256",
          "name": "amount",
          "type": "uint256"
        }
      ],
      "name": "FundReceived",
      "type": "event"
    },
    {
      "anonymous": false,
      "inputs": [
        {
          "components": [
            {
              "internalType": "address",
              "name": "receiver",
              "type": "address"
            },
            {
              "internalType": "uint256",
              "name": "percentageValue",
              "type": "uint256"
            }
          ],
          "indexed": false,
          "internalType": "struct PrimaryAuctionNFTMarketPlace.Fee",
          "name": "sellerProfit",
          "type": "tuple"
        },
        {
          "components": [
            {
              "internalType": "address",
              "name": "receiver",
              "type": "address"
            },
            {
              "internalType": "uint256",
              "name": "percentageValue",
              "type": "uint256"
            }
          ],
          "indexed": false,
          "internalType": "struct PrimaryAuctionNFTMarketPlace.Fee",
          "name": "platformFee",
          "type": "tuple"
        }
      ],
      "name": "FundTransfer",
      "type": "event"
    },
    {
      "anonymous": false,
      "inputs": [
        {
          "indexed": true,
          "internalType": "uint256",
          "name": "tokenId",
          "type": "uint256"
        },
        {
          "indexed": true,
          "internalType": "address",
          "name": "nftAddress",
          "type": "address"
        },
        {
          "indexed": true,
          "internalType": "address",
          "name": "seller",
          "type": "address"
        },
        {
          "indexed": false,
          "internalType": "uint256",
          "name": "price",
          "type": "uint256"
        },
        {
          "indexed": false,
          "internalType": "address",
          "name": "erc20Token",
          "type": "address"
        },
        {
          "indexed": false,
          "internalType": "address",
          "name": "buyer",
          "type": "address"
        },
        {
          "indexed": false,
          "internalType": "uint256",
          "name": "quantity",
          "type": "uint256"
        }
      ],
      "name": "NftSold",
      "type": "event"
    },
    {
      "anonymous": false,
      "inputs": [
        {
          "indexed": true,
          "internalType": "bytes32",
          "name": "role",
          "type": "bytes32"
        },
        {
          "indexed": true,
          "internalType": "bytes32",
          "name": "previousAdminRole",
          "type": "bytes32"
        },
        {
          "indexed": true,
          "internalType": "bytes32",
          "name": "newAdminRole",
          "type": "bytes32"
        }
      ],
      "name": "RoleAdminChanged",
      "type": "event"
    },
    {
      "anonymous": false,
      "inputs": [
        {
          "indexed": true,
          "internalType": "bytes32",
          "name": "role",
          "type": "bytes32"
        },
        {
          "indexed": true,
          "internalType": "address",
          "name": "account",
          "type": "address"
        },
        {
          "indexed": true,
          "internalType": "address",
          "name": "sender",
          "type": "address"
        }
      ],
      "name": "RoleGranted",
      "type": "event"
    },
    {
      "anonymous": false,
      "inputs": [
        {
          "indexed": true,
          "internalType": "bytes32",
          "name": "role",
          "type": "bytes32"
        },
        {
          "indexed": true,
          "internalType": "address",
          "name": "account",
          "type": "address"
        },
        {
          "indexed": true,
          "internalType": "address",
          "name": "sender",
          "type": "address"
        }
      ],
      "name": "RoleRevoked",
      "type": "event"
    },
    {
      "inputs": [],
      "name": "ADMIN_ROLE",
      "outputs": [
        {
          "internalType": "bytes32",
          "name": "",
          "type": "bytes32"
        }
      ],
      "stateMutability": "view",
      "type": "function"
    },
    {
      "inputs": [],
      "name": "AUCTION_TYPEHASH",
      "outputs": [
        {
          "internalType": "bytes32",
          "name": "",
          "type": "bytes32"
        }
      ],
      "stateMutability": "view",
      "type": "function"
    },
    {
      "inputs": [],
      "name": "DEFAULT_ADMIN_ROLE",
      "outputs": [
        {
          "internalType": "bytes32",
          "name": "",
          "type": "bytes32"
        }
      ],
      "stateMutability": "view",
      "type": "function"
    },
    {
      "inputs": [
        {
          "internalType": "bytes32",
          "name": "role",
          "type": "bytes32"
        }
      ],
      "name": "getRoleAdmin",
      "outputs": [
        {
          "internalType": "bytes32",
          "name": "",
          "type": "bytes32"
        }
      ],
      "stateMutability": "view",
      "type": "function"
    },
    {
      "inputs": [
        {
          "internalType": "bytes32",
          "name": "role",
          "type": "bytes32"
        },
        {
          "internalType": "uint256",
          "name": "index",
          "type": "uint256"
        }
      ],
      "name": "getRoleMember",
      "outputs": [
        {
          "internalType": "address",
          "name": "",
          "type": "address"
        }
      ],
      "stateMutability": "view",
      "type": "function"
    },
    {
      "inputs": [
        {
          "internalType": "bytes32",
          "name": "role",
          "type": "bytes32"
        }
      ],
      "name": "getRoleMemberCount",
      "outputs": [
        {
          "internalType": "uint256",
          "name": "",
          "type": "uint256"
        }
      ],
      "stateMutability": "view",
      "type": "function"
    },
    {
      "inputs": [
        {
          "internalType": "bytes32",
          "name": "role",
          "type": "bytes32"
        },
        {
          "internalType": "address",
          "name": "account",
          "type": "address"
        }
      ],
      "name": "grantRole",
      "outputs": [],
      "stateMutability": "nonpayable",
      "type": "function"
    },
    {
      "inputs": [
        {
          "internalType": "bytes32",
          "name": "role",
          "type": "bytes32"
        },
        {
          "internalType": "address",
          "name": "account",
          "type": "address"
        }
      ],
      "name": "hasRole",
      "outputs": [
        {
          "internalType": "bool",
          "name": "",
          "type": "bool"
        }
      ],
      "stateMutability": "view",
      "type": "function"
    },
    {
      "inputs": [
        {
          "internalType": "bytes32",
          "name": "role",
          "type": "bytes32"
        },
        {
          "internalType": "address",
          "name": "account",
          "type": "address"
        }
      ],
      "name": "renounceRole",
      "outputs": [],
      "stateMutability": "nonpayable",
      "type": "function"
    },
    {
      "inputs": [
        {
          "internalType": "bytes32",
          "name": "role",
          "type": "bytes32"
        },
        {
          "internalType": "address",
          "name": "account",
          "type": "address"
        }
      ],
      "name": "revokeRole",
      "outputs": [],
      "stateMutability": "nonpayable",
      "type": "function"
    },
    {
      "inputs": [
        {
          "internalType": "bytes4",
          "name": "interfaceId",
          "type": "bytes4"
        }
      ],
      "name": "supportsInterface",
      "outputs": [
        {
          "internalType": "bool",
          "name": "",
          "type": "bool"
        }
      ],
      "stateMutability": "view",
      "type": "function"
    },
    {
      "inputs": [
        {
          "components": [
            {
              "internalType": "uint256",
              "name": "tokenId",
              "type": "uint256"
            },
            {
              "internalType": "uint256",
              "name": "basePrice",
              "type": "uint256"
            },
            {
              "internalType": "uint256",
              "name": "salePrice",
              "type": "uint256"
            },
            {
              "internalType": "uint256",
              "name": "bidPrice",
              "type": "uint256"
            },
            {
              "internalType": "uint256",
              "name": "quantity",
              "type": "uint256"
            },
            {
              "internalType": "address",
              "name": "erc20Token",
              "type": "address"
            },
            {
              "internalType": "address",
              "name": "auctioner",
              "type": "address"
            },
            {
              "internalType": "address",
              "name": "nftAddress",
              "type": "address"
            },
            {
              "internalType": "address",
              "name": "royaltyReceiver",
              "type": "address"
            },
            {
              "internalType": "uint256",
              "name": "royaltyPercentage",
              "type": "uint256"
            },
            {
              "internalType": "string",
              "name": "IPFSHash",
              "type": "string"
            }
          ],
          "internalType": "struct PrimaryAuctionNFTMarketPlace.Metadata",
          "name": "_metadata",
          "type": "tuple"
        },
        {
          "internalType": "bytes",
          "name": "_signature",
          "type": "bytes"
        }
      ],
      "name": "createAuction",
      "outputs": [],
      "stateMutability": "payable",
      "type": "function"
    },
    {
      "inputs": [
        {
          "internalType": "uint256",
          "name": "_tokenId",
          "type": "uint256"
        },
        {
          "internalType": "uint256",
          "name": "_price",
          "type": "uint256"
        },
        {
          "internalType": "address",
          "name": "_nftAddress",
          "type": "address"
        },
        {
          "internalType": "address",
          "name": "_auctioner",
          "type": "address"
        },
        {
          "internalType": "bytes",
          "name": "_signature",
          "type": "bytes"
        }
      ],
      "name": "placeBid",
      "outputs": [],
      "stateMutability": "payable",
      "type": "function"
    },
    {
      "inputs": [
        {
          "internalType": "uint256",
          "name": "_tokenId",
          "type": "uint256"
        },
        {
          "internalType": "address",
          "name": "_nftAddress",
          "type": "address"
        },
        {
          "internalType": "address",
          "name": "_auctioner",
          "type": "address"
        },
        {
          "internalType": "bytes",
          "name": "_signature",
          "type": "bytes"
        }
      ],
      "name": "instantBuyNFT",
      "outputs": [],
      "stateMutability": "payable",
      "type": "function"
    },
    {
      "inputs": [
        {
          "internalType": "uint256",
          "name": "_tokenId",
          "type": "uint256"
        },
        {
          "internalType": "address",
          "name": "_nftAddress",
          "type": "address"
        },
        {
          "internalType": "address",
          "name": "_auctioner",
          "type": "address"
        },
        {
          "internalType": "address",
          "name": "_buyer",
          "type": "address"
        },
        {
          "internalType": "bytes",
          "name": "_signature",
          "type": "bytes"
        }
      ],
      "name": "instantBuyNFTwithFiat",
      "outputs": [],
      "stateMutability": "payable",
      "type": "function"
    },
    {
      "inputs": [
        {
          "internalType": "uint256",
          "name": "_tokenId",
          "type": "uint256"
        },
        {
          "internalType": "address",
          "name": "_nftAddress",
          "type": "address"
        },
        {
          "internalType": "address",
          "name": "_auctioner",
          "type": "address"
        },
        {
          "internalType": "bytes",
          "name": "_signature",
          "type": "bytes"
        }
      ],
      "name": "settleAuction",
      "outputs": [],
      "stateMutability": "nonpayable",
      "type": "function"
    },
    {
      "inputs": [
        {
          "internalType": "uint256",
          "name": "_tokenId",
          "type": "uint256"
        },
        {
          "internalType": "address",
          "name": "_nftAddress",
          "type": "address"
        },
        {
          "internalType": "address",
          "name": "_auctioner",
          "type": "address"
        },
        {
          "internalType": "bytes",
          "name": "_signature",
          "type": "bytes"
        }
      ],
      "name": "cancelAuction",
      "outputs": [],
      "stateMutability": "nonpayable",
      "type": "function"
    },
    {
      "inputs": [
        {
          "internalType": "uint256",
          "name": "_tokenId",
          "type": "uint256"
        },
        {
          "internalType": "address",
          "name": "_nftAddress",
          "type": "address"
        },
        {
          "internalType": "address",
          "name": "_auctioner",
          "type": "address"
        }
      ],
      "name": "getAuction",
      "outputs": [
        {
          "components": [
            {
              "internalType": "uint256",
              "name": "tokenId",
              "type": "uint256"
            },
            {
              "internalType": "uint256",
              "name": "basePrice",
              "type": "uint256"
            },
            {
              "internalType": "uint256",
              "name": "salePrice",
              "type": "uint256"
            },
            {
              "internalType": "address",
              "name": "erc20Token",
              "type": "address"
            },
            {
              "internalType": "uint256",
              "name": "quantity",
              "type": "uint256"
            },
            {
              "internalType": "address",
              "name": "auctioner",
              "type": "address"
            },
            {
              "internalType": "address",
              "name": "currentBidder",
              "type": "address"
            },
            {
              "internalType": "uint256",
              "name": "bidAmount",
              "type": "uint256"
            }
          ],
          "internalType": "struct PrimaryAuctionNFTMarketPlace.Auction",
          "name": "",
          "type": "tuple"
        }
      ],
      "stateMutability": "view",
      "type": "function"
    }
  ],
  "bytecode": "0x610140604052600880546001600160401b03191667d9b67a2680ac58cd1790553480156200002c57600080fd5b506040516200434b3803806200434b8339810160408190526200004f91620003ba565b604080518082018252601c81527f5072696d61727941756374696f6e4e46544d61726b6574506c61636500000000602080830191825283518085019094526005845264302e302e3160d81b9084015260016002558151902060e08190527fae209a0b48f21c054280f2455d32cf309387644879d9acbd8ffc1991638118856101008190524660a0529192917f8b73c3c69bb8fe3d512ecc4cf759cc79239f7b179b0ffacaa9a75d522b39400f6200014b8184846040805160208101859052908101839052606081018290524660808201523060a082015260009060c0016040516020818303038152906040528051906020012090509392505050565b6080523060c052610120525062000167925084915050620001a8565b6200017460003362000238565b620001a07fa49807205ce4d355092ef5a8a18f56e8913cf4a201fbe287825b095693c217758262000238565b505062000443565b611388816020015111156200020e5760405162461bcd60e51b815260206004820152602260248201527f4665653a206d617820616c6c6f776564207065726563656e7461676520697320604482015261035360f41b606482015260840160405180910390fd5b8051600680546001600160a01b0319166001600160a01b0390921691909117905560200151600755565b62000244828262000248565b5050565b6200025f82826200028b60201b62001abd1760201c565b60008281526001602090815260409091206200028691839062001b416200032b821b17901c565b505050565b6000828152602081815260408083206001600160a01b038516845290915290205460ff1662000244576000828152602081815260408083206001600160a01b03851684529091529020805460ff19166001179055620002e73390565b6001600160a01b0316816001600160a01b0316837f2f8788117e7eff1d82e926ec794901d17c78024a50270940304540a733656f0d60405160405180910390a45050565b600062000342836001600160a01b0384166200034b565b90505b92915050565b6000818152600183016020526040812054620003945750815460018181018455600084815260208082209093018490558454848252828601909352604090209190915562000345565b50600062000345565b80516001600160a01b0381168114620003b557600080fd5b919050565b6000808284036060811215620003cf57600080fd5b6040811215620003de57600080fd5b50604080519081016001600160401b03811182821017156200041057634e487b7160e01b600052604160045260246000fd5b6040526200041e846200039d565b81526020848101519082015291506200043a604084016200039d565b90509250929050565b60805160a05160c05160e0516101005161012051613eb862000493600039600061312a0152600061317901526000613154015260006130ad015260006130d7015260006131010152613eb86000f3fe6080604052600436106101095760003560e01c806375b238fc11610095578063a217fddf11610064578063a217fddf1461036d578063c5b1254614610382578063ca15c873146103a2578063d547741f146103c2578063dfd70ba6146103e257600080fd5b806375b238fc146102c1578063873d8801146102f55780639010d07c1461031557806391d148541461034d57600080fd5b80634078699b116100dc5780634078699b146101c3578063424c6576146101d65780634a56c719146101e95780634b75cc6b1461021d5780635005003d1461023057600080fd5b806301ffc9a71461010e578063248a9ca3146101435780632f2ff15d1461018157806336568abe146101a3575b600080fd5b34801561011a57600080fd5b5061012e6101293660046135e3565b6103f5565b60405190151581526020015b60405180910390f35b34801561014f57600080fd5b5061017361015e36600461360d565b60009081526020819052604090206001015490565b60405190815260200161013a565b34801561018d57600080fd5b506101a161019c366004613642565b610420565b005b3480156101af57600080fd5b506101a16101be366004613642565b61044a565b6101a16101d13660046136b0565b6104cd565b6101a16101e43660046137f5565b610a0f565b3480156101f557600080fd5b506101737fa4b17d0fbbf1942a5bfd821195d163cbd3f0023479f7093b1a8110a31863439781565b6101a161022b366004613913565b610c73565b34801561023c57600080fd5b5061025061024b366004613982565b6110b1565b60405161013a9190600061010082019050825182526020830151602083015260408301516040830152606083015160018060a01b038082166060850152608085015160808501528060a08601511660a08501528060c08601511660c0850152505060e083015160e083015292915050565b3480156102cd57600080fd5b506101737fa49807205ce4d355092ef5a8a18f56e8913cf4a201fbe287825b095693c2177581565b34801561030157600080fd5b506101a1610310366004613913565b6111a8565b34801561032157600080fd5b506103356103303660046139be565b6114f7565b6040516001600160a01b03909116815260200161013a565b34801561035957600080fd5b5061012e610368366004613642565b61150f565b34801561037957600080fd5b50610173600081565b34801561038e57600080fd5b506101a161039d366004613913565b611538565b3480156103ae57600080fd5b506101736103bd36600461360d565b6117a3565b3480156103ce57600080fd5b506101a16103dd366004613642565b6117ba565b6101a16103f03660046139e0565b6117df565b60006001600160e01b03198216635a05180f60e01b148061041a575061041a82611b56565b92915050565b60008281526020819052604090206001015461043b81611b8b565b6104458383611b98565b505050565b6001600160a01b03811633146104bf5760405162461bcd60e51b815260206004820152602f60248201527f416363657373436f6e74726f6c3a2063616e206f6e6c792072656e6f756e636560448201526e103937b632b9903337b91039b2b63360891b60648201526084015b60405180910390fd5b6104c98282611bba565b5050565b33321461051c5760405162461bcd60e51b815260206004820152601b60248201527f43616c6c65722063616e6e6f74206265206120636f6e7472616374000000000060448201526064016104b6565b6001600160a01b0380851660009081526003602090815260408083208a845282528083209387168352929052206105568785878686611bdc565b5061055f611e89565b156105b75760405162461bcd60e51b815260206004820152602260248201527f506c616365204269643a2041646d696e2043616e204e6f7420506c61636520426044820152611a5960f21b60648201526084016104b6565b60058101546001600160a01b031633036106275760405162461bcd60e51b815260206004820152602b60248201527f506c61636520426964203a2053656c6c6572206e6f7420616c6c6f776564207460448201526a1bc81c1b1858d948189a5960aa1b60648201526084016104b6565b806001015486101561068e5760405162461bcd60e51b815260206004820152602a60248201527f506c61636520426964203a205072696365204c657373205468616e20746865206044820152696261736520707269636560b01b60648201526084016104b6565b806007015486116107075760405162461bcd60e51b815260206004820152603a60248201527f506c61636520426964203a20546865207072696365206973206c65737320746860448201527f656e207468652070726576696f75732062696420616d6f756e7400000000000060648201526084016104b6565b60038101546001600160a01b0316610861578534146107845760405162461bcd60e51b815260206004820152603360248201527f506c616365204269643a20416d6f756e7420726563656976656420616e642070604482015272726963652073686f756c642062652073616d6560681b60648201526084016104b6565b806007015434116108075760405162461bcd60e51b815260206004820152604160248201527f506c616365204269643a20416d6f756e742072656365697665642073686f756c60448201527f642062652067726174686572207468616e207468652063757272656e742062696064820152601960fa1b608482015260a4016104b6565b60068101546001600160a01b03161561085c57600681015460078201546040516001600160a01b039092169181156108fc0291906000818181858888f1935050505015801561085a573d6000803e3d6000fd5b505b61098f565b6003810154604051636eb1769f60e11b81523360048201523060248201526000916001600160a01b03169063dd62ed3e90604401602060405180830381865afa1580156108b2573d6000803e3d6000fd5b505050506040513d601f19601f820116820180604052508101906108d69190613a17565b9050868110156109395760405162461bcd60e51b815260206004820152602860248201527f506c61636520426964203a20416c6c6f77616e6365206973204c657373207468604482015267656e20507269636560c01b60648201526084016104b6565b6003820154610953906001600160a01b031633308a611ecb565b60068201546001600160a01b03161561098d5760068201546007830154600384015461098d926001600160a01b0391821692911690611f3c565b505b600781018690556006810180546001600160a01b03191633908117909155600382015460048301546040516001600160a01b03888116948a8216948d947fd14e7efd3a5d34c571d1b8dc0d3fe542d915fcce02c92537f00f957fa21710eb946109fe9492909216918e90613a30565b60405180910390a450505050505050565b6002805403610a305760405162461bcd60e51b81526004016104b690613a59565b60028081905550610ace83600001518460200151856040015186608001518760a001518860c001518960e001516001600160a01b0390811660009081526003602081815260408084208b8552825280842095851680855295909152909120978855600188019690965560028701949094559385018054919093166001600160a01b031991821617909255600484015560059092018054909216179055565b610ae783600001518460c001518560e001518585611bdc565b506000836040015111610b3c5760405162461bcd60e51b815260206004820181905260248201527f4372656174652041756374696f6e3a205a65726f2073616c652070726963652e60448201526064016104b6565b6000836020015111610b9a5760405162461bcd60e51b815260206004820152602160248201527f4372656174652041756374696f6e203a205a65726f20626173652070726963656044820152601760f91b60648201526084016104b6565b610bbe8360e001518460000151856101400151866101000151876101200151611f6c565b610bdc836000015184606001518560e001518660c0015186866104cd565b8260c001516001600160a01b03168360e001516001600160a01b031684600001517fb63bd5ea5fe8b0839543a6bc6cbab690db71cbe7f7760751570b603520f7f393866020015187604001518860a001518960800151604051610c61949392919093845260208401929092526001600160a01b03166040830152606082015260800190565b60405180910390a45050600160025550565b6002805403610c945760405162461bcd60e51b81526004016104b690613a59565b600280556001600160a01b0380851660009081526003602090815260408083208984528252808320938716835292905220610cd28685878686611bdc565b50610cdb611e89565b15610d4e5760405162461bcd60e51b815260206004820152603a60248201527f41756374696f6e20496e7374616e74204275793a2041646d696e206e6f74206160448201527f6c6c6f77656420746f20706572666f726d20707572636861736500000000000060648201526084016104b6565b60058101546001600160a01b03163303610dd05760405162461bcd60e51b815260206004820152603b60248201527f41756374696f6e20496e7374616e74204275793a2053656c6c6572206e6f742060448201527f616c6c6f77656420746f20706572666f726d207075726368617365000000000060648201526084016104b6565b8060070154816002015411610df75760405162461bcd60e51b81526004016104b690613a90565b60038101546001600160a01b0316610ee75780600201543414610e8d5760405162461bcd60e51b815260206004820152604260248201527f41756374696f6e20496e7374616e74204275793a20416d6f756e74207265636560448201527f6976656420616e642073616c652070726963652073686f756c642062652073616064820152616d6560f01b608482015260a4016104b6565b60068101546001600160a01b031615610ee257600681015460078201546040516001600160a01b039092169181156108fc0291906000818181858888f19350505050158015610ee0573d6000803e3d6000fd5b505b61102b565b6003810154604051636eb1769f60e11b81523360048201523060248201526000916001600160a01b03169063dd62ed3e90604401602060405180830381865afa158015610f38573d6000803e3d6000fd5b505050506040513d601f19601f82011682018060405250810190610f5c9190613a17565b90508160020154811015610fcc5760405162461bcd60e51b815260206004820152603160248201527f41756374696f6e20496e7374616e74204275793a20416c6c6f77616e6365206960448201527073204c657373207468656e20507269636560781b60648201526084016104b6565b60028201546003830154610fef916001600160a01b039091169033903090611ecb565b60068201546001600160a01b03161561102957600682015460078301546003840154611029926001600160a01b0391821692911690611f3c565b505b6040805161010081018252825481526001830154602082015260028301549181019190915260038201546001600160a01b039081166060830152600483015460808301526005830154811660a083015260068301541660c0820152600782015460e082015233906110a3908890889088908590611fe6565b505060016002555050505050565b61111460405180610100016040528060008152602001600081526020016000815260200160006001600160a01b031681526020016000815260200160006001600160a01b0316815260200160006001600160a01b03168152602001600081525090565b506001600160a01b03808316600090815260036020818152604080842088855282528084208686168552825292839020835161010081018552815481526001820154928101929092526002810154938201939093529082015483166060820152600482015460808201526005820154831660a0820152600682015490921660c08301526007015460e08201525b9392505050565b60028054036111c95760405162461bcd60e51b81526004016104b690613a59565b600280556001600160a01b0380851660008181526003602090815260408083208a8452825280832094881683529381528382209282526004815283822089835290529190912061121c8786888787611bdc565b50611225611e89565b8061123c575060058201546001600160a01b031633145b6112a35760405162461bcd60e51b815260206004820152603260248201527f536574746c652041756374696f6e203a205265737472696374656420746f2061604482015271756374696f6e6572206f722061646d696e2160701b60648201526084016104b6565b60068201546001600160a01b0316156113a3576006820154600483015482546001840154600285018054611375956001600160a01b03908116958d958f9591949216929091906112f290613adb565b80601f016020809104026020016040519081016040528092919081815260200182805461131e90613adb565b801561136b5780601f106113405761010080835404028352916020019161136b565b820191906000526020600020905b81548152906001019060200180831161134e57829003601f168201915b5050505050612131565b60078201546003830154600584015461139e92916001600160a01b039081169160009116612344565b611408565b60058201546004830154825460018401546002850180546113df956001600160a01b03908116958d958f9591949216929091906112f290613adb565b60078201546003830154600584015461140892916001600160a01b039081169160009116612344565b815460068301546003840154600485015460078601546040516001600160a01b03808c16968d82169690957f48a87152ac364ad1ecf168c1655c82a3c46e6decf62e37a5ee5f5e95087138b495611469959284169491909316929190613a30565b60405180910390a45050506001600160a01b03928316600090815260036020818152604080842097845296815286832094909516825292909352509181208181556001808201839055600280830184905593820180546001600160a01b0319908116909155600483018490556005830180548216905560068301805490911690556007909101919091559055565b60008281526001602052604081206111a19083612647565b6000918252602082815260408084206001600160a01b0393909316845291905290205460ff1690565b60028054036115595760405162461bcd60e51b81526004016104b690613a59565b600280556001600160a01b03808516600090815260036020908152604080832089845282528083209387168352929052206115978685878686611bdc565b506115a0611e89565b806115b7575060058101546001600160a01b031633145b61161d5760405162461bcd60e51b815260206004820152603160248201527f43616e63656c2041756374696f6e3a205265737472696374656420746f2061756044820152706374696f6e6572206f722061646d696e2160781b60648201526084016104b6565b60068101546001600160a01b0316156116af5760038101546001600160a01b031661168857600681015460078201546040516001600160a01b039092169181156108fc0291906000818181858888f19350505050158015611682573d6000803e3d6000fd5b506116af565b6006810154600782015460038301546116af926001600160a01b0391821692911690611f3c565b6004810154600382015460078301546006840154604080519485526001600160a01b03938416602086015284019190915281166060830152858116919087169088907f9e573a6c30ffdf12c19459fcb97657c7efe4b9750cf2942586c70868de563cc89060800160405180910390a45050506001600160a01b039182166000908152600360208181526040808420968452958152858320939094168252919092529181208181556001808201839055600280830184905593820180546001600160a01b0319908116909155600483018490556005830180548216905560068301805490911690556007909101919091559055565b600081815260016020526040812061041a90612653565b6000828152602081905260409020600101546117d581611b8b565b6104458383611bba565b6117e7611e89565b6118295760405162461bcd60e51b81526020600482015260136024820152722932b9ba3934b1ba32b2103a379030b236b4b760691b60448201526064016104b6565b600280540361184a5760405162461bcd60e51b81526004016104b690613a59565b600280556001600160a01b0380861660009081526003602090815260408083208a845282528083209388168352929052206118888786888686611bdc565b5080600701548160020154116118b05760405162461bcd60e51b81526004016104b690613a90565b60058101546001600160a01b03908116908516036119365760405162461bcd60e51b815260206004820152603c60248201527f41756374696f6e20496e7374616e7420427579203a2053656c6c6572206e6f7460448201527f20616c6c6f77656420746f20706572666f726d2070757263686173650000000060648201526084016104b6565b80600701548160020154116119a15760405162461bcd60e51b815260206004820152602b60248201527f41756374696f6e20496e7374616e74204275793a20626964206578636565647360448201526a2073616c6520707269636560a81b60648201526084016104b6565b60038101546001600160a01b0316611a0d5760068101546001600160a01b031615611a0857600681015460078201546040516001600160a01b039092169181156108fc0291906000818181858888f19350505050158015611a06573d6000803e3d6000fd5b505b611a47565b60068101546001600160a01b031615611a4757600681015460078201546003830154611a47926001600160a01b0391821692911690611f3c565b6040805161010081018252825481526001830154602082015260028301549181019190915260038201546001600160a01b039081166060830152600483015460808301526005830154811660a083015260068301541660c0820152600782015460e08201526110a3908890889088908890611fe6565b611ac7828261150f565b6104c9576000828152602081815260408083206001600160a01b03851684529091529020805460ff19166001179055611afd3390565b6001600160a01b0316816001600160a01b0316837f2f8788117e7eff1d82e926ec794901d17c78024a50270940304540a733656f0d60405160405180910390a45050565b60006111a1836001600160a01b03841661265d565b60006001600160e01b03198216637965db0b60e01b148061041a57506301ffc9a760e01b6001600160e01b031983161461041a565b611b9581336126ac565b50565b611ba28282611abd565b60008281526001602052604090206104459082611b41565b611bc48282612710565b60008281526001602052604090206104459082612775565b6001600160a01b0380841660009081526003602090815260408083208984528252808320938816835292905290812033611c685760405162461bcd60e51b815260206004820152602760248201527f47656e6172616c2056616c69646174696f6e3a205a65726f2053656e646572206044820152664164647265737360c81b60648201526084016104b6565b6001600160a01b038516611cca5760405162461bcd60e51b8152602060048201526024808201527f47656e6172616c2056616c69646174696f6e3a205a65726f204e4654204164646044820152637265737360e01b60648201526084016104b6565b6001600160a01b038616611d345760405162461bcd60e51b815260206004820152602b60248201527f47656e6172616c2056616c69646174696f6e3a205a65726f2041756374696f6e60448201526a032b91020b2323932b9b9960ad1b60648201526084016104b6565b611d3d8561278a565b611da75760405162461bcd60e51b815260206004820152603560248201527f47656e6172616c2056616c69646174696f6e3a204e6f7420636f6e6669726d696044820152741b99c81d1bc8185b881391950818dbdb9d1c9858dd605a1b60648201526084016104b6565b8060040154600003611e055760405162461bcd60e51b815260206004820152602160248201527f47656e6172616c2056616c69646174696f6e3a205a65726f205175616e7469746044820152607960f81b60648201526084016104b6565b80548714611e6c5760405162461bcd60e51b815260206004820152602e60248201527f47656e6172616c2056616c69646174696f6e3a20546f6b656e2069642069732060448201526d3737ba1037b71030bab1ba34b7b760911b60648201526084016104b6565b611e79878688878761288d565b5060019150505b95945050505050565b6000611eb57fa49807205ce4d355092ef5a8a18f56e8913cf4a201fbe287825b095693c217753361150f565b80611ec65750611ec660003361150f565b905090565b6040516001600160a01b0380851660248301528316604482015260648101829052611f369085906323b872dd60e01b906084015b60408051601f198184030181529190526020810180516001600160e01b03166001600160e01b031990931692909217909152612970565b50505050565b6040516001600160a01b03831660248201526044810182905261044590849063a9059cbb60e01b90606401611eff565b6001600160a01b03851660009081526004602090815260408083208784529091529020600281018054611f9e90613adb565b9050600003611fde578351611fbc906002830190602087019061354a565b5080546001600160a01b0319166001600160a01b038416178155600181018290555b505050505050565b6001600160a01b038085166000908152600460209081526040808320898452909152902060808301518154600183015460028401805494956120389589958c958e95919493169290916112f290613adb565b6120518260400151836060015160018560a00151612344565b836001600160a01b0316856001600160a01b031683600001517f48a87152ac364ad1ecf168c1655c82a3c46e6decf62e37a5ee5f5e95087138b4868660600151876080015188604001516040516120ab9493929190613a30565b60405180910390a45050506001600160a01b03918216600090815260036020818152604080842096845295815285832093909416825291909252918120818155600181018290556002810182905591820180546001600160a01b031990811690915560048301829055600583018054821690556006830180549091169055600790910155565b6008546040516301ffc9a760e01b81526001600160a01b038816916301ffc9a7916121729160e01b906004016001600160e01b031991909116815260200190565b602060405180830381865afa15801561218f573d6000803e3d6000fd5b505050506040513d601f19601f820116820180604052508101906121b39190613b15565b15612238576040805180820182526001600160a01b038086168252602082018590529151630cc3961b60e41b8152909188169063cc3961b090612200908b908a9087908790600401613b8f565b600060405180830381600087803b15801561221a57600080fd5b505af115801561222e573d6000803e3d6000fd5b505050505061233b565b6008546040516301ffc9a760e01b815264010000000090910460e01b6001600160e01b03191660048201526001600160a01b038716906301ffc9a790602401602060405180830381865afa158015612294573d6000803e3d6000fd5b505050506040513d601f19601f820116820180604052508101906122b89190613b15565b1561233b576040805180820182526001600160a01b03808616825260208201859052915163fc038ab360e01b8152909188169063fc038ab390612307908b908a908a9088908890600401613bd7565b600060405180830381600087803b15801561232157600080fd5b505af1158015612335573d6000803e3d6000fd5b50505050505b50505050505050565b6007546000908190156123705760075461236d9061271090612367908990612a42565b90612a4e565b90505b61237a8682612a5a565b91506001600160a01b03851661252f576006546001600160a01b0316158015906123a45750600081115b15612474576006546040516000916001600160a01b03169083908381818185875af1925050503d80600081146123f6576040519150601f19603f3d011682016040523d82523d6000602084013e6123fb565b606091505b50509050806124725760405162461bcd60e51b815260206004820152603860248201527f46756e64205472616e736665723a205472616e7366657220746f20706c61746660448201527f6f726d20666565207265636569766572206661696c65642e000000000000000060648201526084016104b6565b505b6000836001600160a01b03168360405160006040518083038185875af1925050503d80600081146124c1576040519150601f19603f3d011682016040523d82523d6000602084013e6124c6565b606091505b50509050806125295760405162461bcd60e51b815260206004820152602960248201527f46756e64205472616e736665723a205472616e7366657220746f2073656c6c6560448201526839103330b4b632b21760b91b60648201526084016104b6565b506125d7565b831561258a576006546001600160a01b03161580159061254f5750600081115b1561257057600654612570906001600160a01b038781169133911684611ecb565b6125856001600160a01b038616338585611ecb565b6125d7565b6006546001600160a01b0316158015906125a45750600081115b156125c3576006546125c3906001600160a01b03878116911683611f3c565b6125d76001600160a01b0386168484611f3c565b6040805180820182526001600160a01b0380861682526020808301869052835180850185526006549092168252810184905291517f40487f252a20d8f2b6b418aa086921caabfdfcef0fd4c378ac2c09dff3cfb70b926126379291613c2a565b60405180910390a1505050505050565b60006111a18383612a66565b600061041a825490565b60008181526001830160205260408120546126a45750815460018181018455600084815260208082209093018490558454848252828601909352604090209190915561041a565b50600061041a565b6126b6828261150f565b6104c9576126ce816001600160a01b03166014612a90565b6126d9836020612a90565b6040516020016126ea929190613c64565b60408051601f198184030181529082905262461bcd60e51b82526104b691600401613cd9565b61271a828261150f565b156104c9576000828152602081815260408083206001600160a01b0385168085529252808320805460ff1916905551339285917ff6391f5c32d9c69d2a47ea670b442974b53935d1edc7fd64eb21e047a839171b9190a45050565b60006111a1836001600160a01b038416612c2c565b6008546040516301ffc9a760e01b815260e09190911b6001600160e01b03191660048201526000906001600160a01b038316906301ffc9a790602401602060405180830381865afa1580156127e3573d6000803e3d6000fd5b505050506040513d601f19601f820116820180604052508101906128079190613b15565b8061041a57506008546040516301ffc9a760e01b815264010000000090910460e01b6001600160e01b03191660048201526001600160a01b038316906301ffc9a790602401602060405180830381865afa158015612869573d6000803e3d6000fd5b505050506040513d601f19601f8201168201806040525081019061041a9190613b15565b6000806128da61289e888888612d1f565b85858080601f016020809104026020016040519081016040528093929190818152602001838380828437600092019190915250612ed992505050565b90506129067fa49807205ce4d355092ef5a8a18f56e8913cf4a201fbe287825b095693c217758261150f565b80612917575061291760008261150f565b6129635760405162461bcd60e51b815260206004820152601e60248201527f5369676e617475726520766572696669636174696f6e206661696c656421000060448201526064016104b6565b5060019695505050505050565b60006129c5826040518060400160405280602081526020017f5361666545524332303a206c6f772d6c6576656c2063616c6c206661696c6564815250856001600160a01b0316612eee9092919063ffffffff16565b80519091501561044557808060200190518101906129e39190613b15565b6104455760405162461bcd60e51b815260206004820152602a60248201527f5361666545524332303a204552433230206f7065726174696f6e20646964206e6044820152691bdd081cdd58d8d9595960b21b60648201526084016104b6565b60006111a18284613d02565b60006111a18284613d21565b60006111a18284613d43565b6000826000018281548110612a7d57612a7d613d5a565b9060005260206000200154905092915050565b60606000612a9f836002613d02565b612aaa906002613d70565b67ffffffffffffffff811115612ac257612ac2613728565b6040519080825280601f01601f191660200182016040528015612aec576020820181803683370190505b509050600360fc1b81600081518110612b0757612b07613d5a565b60200101906001600160f81b031916908160001a905350600f60fb1b81600181518110612b3657612b36613d5a565b60200101906001600160f81b031916908160001a9053506000612b5a846002613d02565b612b65906001613d70565b90505b6001811115612bdd576f181899199a1a9b1b9c1cb0b131b232b360811b85600f1660108110612b9957612b99613d5a565b1a60f81b828281518110612baf57612baf613d5a565b60200101906001600160f81b031916908160001a90535060049490941c93612bd681613d88565b9050612b68565b5083156111a15760405162461bcd60e51b815260206004820181905260248201527f537472696e67733a20686578206c656e67746820696e73756666696369656e7460448201526064016104b6565b60008181526001830160205260408120548015612d15576000612c50600183613d43565b8554909150600090612c6490600190613d43565b9050818114612cc9576000866000018281548110612c8457612c84613d5a565b9060005260206000200154905080876000018481548110612ca757612ca7613d5a565b6000918252602080832090910192909255918252600188019052604090208390555b8554869080612cda57612cda613d9f565b60019003818190600052602060002001600090559055856001016000868152602001908152602001600020600090556001935050505061041a565b600091505061041a565b60008060036000846001600160a01b03166001600160a01b0316815260200190815260200160002060008681526020019081526020016000206000856001600160a01b03166001600160a01b031681526020019081526020016000209050600060046000856001600160a01b03166001600160a01b0316815260200190815260200160002060008781526020019081526020016000209050612ecf7fa4b17d0fbbf1942a5bfd821195d163cbd3f0023479f7093b1a8110a318634397878460010154856002015486600401548760030160009054906101000a90046001600160a01b03168860050160009054906101000a90046001600160a01b03168b8960000160009054906101000a90046001600160a01b03168a600101548b600201604051612e4a9190613db5565b60408051918290038220602083019c909c528101999099526060890197909752608088019590955260a08701939093526001600160a01b0391821660c0870152811660e0860152908116610100850152166101208301526101408201526101608101919091526101800160405160208183030381529060405280519060200120612efd565b9695505050505050565b600080612ee68484612f4b565b949350505050565b6060612ee68484600085612f6f565b600061041a612f0a6130a0565b8360405161190160f01b6020820152602281018390526042810182905260009060620160405160208183030381529060405280519060200120905092915050565b6000806000612f5a85856131c7565b91509150612f6781613235565b509392505050565b606082471015612fd05760405162461bcd60e51b815260206004820152602660248201527f416464726573733a20696e73756666696369656e742062616c616e636520666f6044820152651c8818d85b1b60d21b60648201526084016104b6565b6001600160a01b0385163b6130275760405162461bcd60e51b815260206004820152601d60248201527f416464726573733a2063616c6c20746f206e6f6e2d636f6e747261637400000060448201526064016104b6565b600080866001600160a01b031685876040516130439190613e50565b60006040518083038185875af1925050503d8060008114613080576040519150601f19603f3d011682016040523d82523d6000602084013e613085565b606091505b50915091506130958282866133eb565b979650505050505050565b6000306001600160a01b037f0000000000000000000000000000000000000000000000000000000000000000161480156130f957507f000000000000000000000000000000000000000000000000000000000000000046145b1561312357507f000000000000000000000000000000000000000000000000000000000000000090565b50604080517f00000000000000000000000000000000000000000000000000000000000000006020808301919091527f0000000000000000000000000000000000000000000000000000000000000000828401527f000000000000000000000000000000000000000000000000000000000000000060608301524660808301523060a0808401919091528351808403909101815260c0909201909252805191012090565b60008082516041036131fd5760208301516040840151606085015160001a6131f187828585613424565b9450945050505061322e565b8251604003613226576020830151604084015161321b868383613511565b93509350505061322e565b506000905060025b9250929050565b600081600481111561324957613249613e6c565b036132515750565b600181600481111561326557613265613e6c565b036132b25760405162461bcd60e51b815260206004820152601860248201527f45434453413a20696e76616c6964207369676e6174757265000000000000000060448201526064016104b6565b60028160048111156132c6576132c6613e6c565b036133135760405162461bcd60e51b815260206004820152601f60248201527f45434453413a20696e76616c6964207369676e6174757265206c656e6774680060448201526064016104b6565b600381600481111561332757613327613e6c565b0361337f5760405162461bcd60e51b815260206004820152602260248201527f45434453413a20696e76616c6964207369676e6174757265202773272076616c604482015261756560f01b60648201526084016104b6565b600481600481111561339357613393613e6c565b03611b955760405162461bcd60e51b815260206004820152602260248201527f45434453413a20696e76616c6964207369676e6174757265202776272076616c604482015261756560f01b60648201526084016104b6565b606083156133fa5750816111a1565b82511561340a5782518084602001fd5b8160405162461bcd60e51b81526004016104b69190613cd9565b6000807f7fffffffffffffffffffffffffffffff5d576e7357a4501ddfe92f46681b20a083111561345b5750600090506003613508565b8460ff16601b1415801561347357508460ff16601c14155b156134845750600090506004613508565b6040805160008082526020820180845289905260ff881692820192909252606081018690526080810185905260019060a0016020604051602081039080840390855afa1580156134d8573d6000803e3d6000fd5b5050604051601f1901519150506001600160a01b03811661350157600060019250925050613508565b9150600090505b94509492505050565b6000806001600160ff1b0383168161352e60ff86901c601b613d70565b905061353c87828885613424565b935093505050935093915050565b82805461355690613adb565b90600052602060002090601f01602090048101928261357857600085556135be565b82601f1061359157805160ff19168380011785556135be565b828001600101855582156135be579182015b828111156135be5782518255916020019190600101906135a3565b506135ca9291506135ce565b5090565b5b808211156135ca57600081556001016135cf565b6000602082840312156135f557600080fd5b81356001600160e01b0319811681146111a157600080fd5b60006020828403121561361f57600080fd5b5035919050565b80356001600160a01b038116811461363d57600080fd5b919050565b6000806040838503121561365557600080fd5b8235915061366560208401613626565b90509250929050565b60008083601f84011261368057600080fd5b50813567ffffffffffffffff81111561369857600080fd5b60208301915083602082850101111561322e57600080fd5b60008060008060008060a087890312156136c957600080fd5b86359550602087013594506136e060408801613626565b93506136ee60608801613626565b9250608087013567ffffffffffffffff81111561370a57600080fd5b61371689828a0161366e565b979a9699509497509295939492505050565b634e487b7160e01b600052604160045260246000fd5b604051610160810167ffffffffffffffff8111828210171561376257613762613728565b60405290565b600082601f83011261377957600080fd5b813567ffffffffffffffff8082111561379457613794613728565b604051601f8301601f19908116603f011681019082821181831017156137bc576137bc613728565b816040528381528660208588010111156137d557600080fd5b836020870160208301376000602085830101528094505050505092915050565b60008060006040848603121561380a57600080fd5b833567ffffffffffffffff8082111561382257600080fd5b90850190610160828803121561383757600080fd5b61383f61373e565b823581526020830135602082015260408301356040820152606083013560608201526080830135608082015261387760a08401613626565b60a082015261388860c08401613626565b60c082015261389960e08401613626565b60e08201526101006138ac818501613626565b90820152610120838101359082015261014080840135838111156138cf57600080fd5b6138db8a828701613768565b8284015250508095505060208601359150808211156138f957600080fd5b506139068682870161366e565b9497909650939450505050565b60008060008060006080868803121561392b57600080fd5b8535945061393b60208701613626565b935061394960408701613626565b9250606086013567ffffffffffffffff81111561396557600080fd5b6139718882890161366e565b969995985093965092949392505050565b60008060006060848603121561399757600080fd5b833592506139a760208501613626565b91506139b560408501613626565b90509250925092565b600080604083850312156139d157600080fd5b50508035926020909101359150565b60008060008060008060a087890312156139f957600080fd5b86359550613a0960208801613626565b94506136e060408801613626565b600060208284031215613a2957600080fd5b5051919050565b6001600160a01b0394851681529290931660208301526040820152606081019190915260800190565b6020808252601f908201527f5265656e7472616e637947756172643a207265656e7472616e742063616c6c00604082015260600190565b6020808252602b908201527f41756374696f6e20496e7374616e74204275793a20426964206578636565647360408201526a2073616c6520707269636560a81b606082015260800190565b600181811c90821680613aef57607f821691505b602082108103613b0f57634e487b7160e01b600052602260045260246000fd5b50919050565b600060208284031215613b2757600080fd5b815180151581146111a157600080fd5b60005b83811015613b52578181015183820152602001613b3a565b83811115611f365750506000910152565b60008151808452613b7b816020860160208601613b37565b601f01601f19169290920160200192915050565b60018060a01b038516815283602082015260a060408201526000613bb660a0830185613b63565b83516001600160a01b03166060840152602084015160808401529050611e80565b60018060a01b038616815284602082015283604082015260c060608201526000613c0460c0830185613b63565b83516001600160a01b03166080840152602084015160a084015290509695505050505050565b82516001600160a01b03168152602080840151908201526080810182516001600160a01b03166040830152602083015160608301526111a1565b7f416363657373436f6e74726f6c3a206163636f756e7420000000000000000000815260008351613c9c816017850160208801613b37565b7001034b99036b4b9b9b4b733903937b6329607d1b6017918401918201528351613ccd816028840160208801613b37565b01602801949350505050565b6020815260006111a16020830184613b63565b634e487b7160e01b600052601160045260246000fd5b6000816000190483118215151615613d1c57613d1c613cec565b500290565b600082613d3e57634e487b7160e01b600052601260045260246000fd5b500490565b600082821015613d5557613d55613cec565b500390565b634e487b7160e01b600052603260045260246000fd5b60008219821115613d8357613d83613cec565b500190565b600081613d9757613d97613cec565b506000190190565b634e487b7160e01b600052603160045260246000fd5b600080835481600182811c915080831680613dd157607f831692505b60208084108203613df057634e487b7160e01b86526022600452602486fd5b818015613e045760018114613e1557613e42565b60ff19861689528489019650613e42565b60008a81526020902060005b86811015613e3a5781548b820152908501908301613e21565b505084890196505b509498975050505050505050565b60008251613e62818460208701613b37565b9190910192915050565b634e487b7160e01b600052602160045260246000fdfea2646970667358221220e2826f725f7c4284ada308d2f97af420a426708201501534453cd16835fdc82964736f6c634300080d0033",
  "immutableReferences": {
    "6037": [
      {
        "length": 32,
        "start": 12545
      }
    ],
    "6039": [
      {
        "length": 32,
        "start": 12503
      }
    ],
    "6041": [
      {
        "length": 32,
        "start": 12461
      }
    ],
    "6043": [
      {
        "length": 32,
        "start": 12628
      }
    ],
    "6045": [
      {
        "length": 32,
        "start": 12665
      }
    ],
    "6047": [
      {
        "length": 32,
        "start": 12586
      }
    ]
  },
  "source": "/**\n * SPDX-License-Identifier: MIT\n * @author Accubits\n * @title PrimaryAuctionNFTMarketPlace\n */\npragma solidity 0.8.13;\n\nimport '@openzeppelin/contracts/interfaces/IERC721.sol';\nimport '@openzeppelin/contracts/token/ERC1155/IERC1155.sol';\nimport '@openzeppelin/contracts/token/ERC20/IERC20.sol';\nimport '@openzeppelin/contracts/access/AccessControlEnumerable.sol';\nimport '@openzeppelin/contracts/security/ReentrancyGuard.sol';\nimport '@openzeppelin/contracts/utils/math/SafeMath.sol';\nimport '@openzeppelin/contracts/utils/Address.sol';\nimport '@openzeppelin/contracts/utils/cryptography/draft-EIP712.sol';\nimport '@openzeppelin/contracts/token/ERC20/utils/SafeERC20.sol';\n\n/**\n * @notice ERC1155 interface to support custom functionalites\n */\ninterface ERC1155 {\n  struct Royalties {\n    address payable account;\n    uint256 percentage;\n  }\n\n  function mint(\n    address receiver,\n    uint256 collectibleId,\n    uint256 ntokens,\n    bytes memory IPFS_hash,\n    Royalties calldata royalties\n  ) external;\n\n  function safeTransferFrom(\n    address from,\n    address to,\n    uint256 id,\n    uint256 ntokens,\n    bytes calldata data\n  ) external;\n}\n\n/**\n * @notice ERC721 interface to support custom functionalites\n */\ninterface ERC721 {\n  struct Royalties {\n    address payable account;\n    uint256 percentage;\n  }\n\n  function mint(\n    address receiver,\n    uint256 collectibleId,\n    string memory IPFSHash,\n    Royalties calldata royalties\n  ) external;\n}\n\n/**\n * @title Primary Auction NFT MarketPlace\n * NFT MarketPlace contract to handle primary NFT sales with auction\n */\ncontract PrimaryAuctionNFTMarketPlace is AccessControlEnumerable, ReentrancyGuard, EIP712 {\n  using SafeMath for uint256;\n  using Address for address;\n  using SafeERC20 for IERC20;\n\n  /**\n   * @notice To receive NFT metadata as a single argument\n   */\n  struct Metadata {\n    uint256 tokenId;\n    uint256 basePrice;\n    uint256 salePrice;\n    uint256 bidPrice;\n    uint256 quantity;\n    address erc20Token;\n    address auctioner;\n    address nftAddress;\n    address royaltyReceiver;\n    uint256 royaltyPercentage;\n    string IPFSHash;\n  }\n\n  /**\n   * @notice Additional NFT metadata needed for minting\n   */\n  struct NftInfo {\n    address royaltyReceiver;\n    uint256 royaltyPercentage;\n    string IPFSHash;\n  }\n\n  /**\n   * @notice NFT metadata along with bid details\n   */\n  struct Auction {\n    uint256 tokenId;\n    uint256 basePrice;\n    uint256 salePrice;\n    address erc20Token;\n    uint256 quantity;\n    address auctioner;\n    address currentBidder;\n    uint256 bidAmount;\n  }\n\n  struct Fee {\n    address receiver;\n    uint256 percentageValue;\n  }\n\n  event NftSold(\n    uint256 indexed tokenId,\n    address indexed nftAddress,\n    address indexed seller,\n    uint256 price,\n    address erc20Token,\n    address buyer,\n    uint256 quantity\n  );\n\n  event AuctionCreated(\n    uint256 indexed tokenId,\n    address indexed nftAddress,\n    address indexed auctioner,\n    uint256 basePrice,\n    uint256 salePrice,\n    address erc20Token,\n    uint256 quantity\n  );\n\n  event BidPlaced(\n    uint256 indexed tokenId,\n    address indexed tokenContract,\n    address indexed auctioner,\n    address bidder,\n    address erc20Token,\n    uint256 quantity,\n    uint256 price\n  );\n\n  event AuctionSettled(\n    uint256 indexed tokenId,\n    address indexed tokenContract,\n    address indexed auctioner,\n    address heighestBidder,\n    address erc20Token,\n    uint256 quantity,\n    uint256 heighestBid\n  );\n\n  event AuctionCancelled(\n    uint256 indexed tokenId,\n    address indexed tokenContract,\n    address indexed auctioner,\n    uint256 quantity,\n    address erc20Token,\n    uint256 heighestBid,\n    address heighestBidder\n  );\n\n  event FundTransfer(Fee sellerProfit, Fee platformFee);\n  event FundReceived(address indexed from, uint256 amount);\n\n  mapping(address => mapping(uint256 => mapping(address => Auction))) private mapAuction;\n  mapping(address => mapping(uint256 => NftInfo)) private mapNftInfo;\n  mapping(address => Fee) creatorRoyalties;\n  Fee private platformFee;\n\n  /**\n   * @notice Defining ADMIN ROLE and Interface IDs\n   */\n  bytes32 public constant ADMIN_ROLE = keccak256('ADMIN_ROLE');\n  bytes4 private ERC721InterfaceId = 0x80ac58cd;\n  bytes4 private ERC1155InterfaceId = 0xd9b67a26;\n\n  /**\n    @notice For signature verification of Auction Typed Data\n  */\n  bytes32 public constant AUCTION_TYPEHASH =\n    keccak256(\n      'Auction(uint256 tokenId,uint256 basePrice,uint256 salePrice,uint256 quantity,address erc20Token,address seller,address nftAddress,address royaltyReceiver,uint256 royaltyPercentage,string IPFSHash)'\n    );\n\n  /**\n   * @notice modifier to check admin rights.\n   * contract owner and root admin have admin rights\n   */\n  modifier onlyOwner() {\n    require(_isAdmin(), 'Restricted to admin');\n    _;\n  }\n\n  /**\n   * @notice callerNotAContract\n   * Modifier to check given address is a contract address or not.\n   */\n  modifier callerNotAContract() {\n    require(msg.sender == tx.origin, 'Caller cannot be a contract');\n    _;\n  }\n\n  /**\n   * @notice Constructor\n   * Invokes EIP712 constructor with Domain - Used for signature verification\n   * @param _platformFee Fee type. Fee percentage and Receiver address\n   * @param _rootAdmin Root admin address\n   */\n  constructor(Fee memory _platformFee, address _rootAdmin) EIP712('PrimaryAuctionNFTMarketPlace', '0.0.1') {\n    _setPlatformFee(_platformFee);\n    _setupRole(DEFAULT_ADMIN_ROLE, msg.sender);\n    _setupRole(ADMIN_ROLE, _rootAdmin);\n  }\n\n  /**\n   * @notice setPlatformFee\n   * Internal function to set platform fee percentage.\n   * @param _platformFee Fee percentage\n   * Must be given as percentage * 100\n   */\n  function _setPlatformFee(Fee memory _platformFee) internal {\n    require(_platformFee.percentageValue <= 5000, 'Fee: max allowed perecentage is 50');\n    platformFee = _platformFee;\n  }\n\n  /**\n   * @notice isAdmin\n   * Function to check does the msg.sender has admin role.\n   * @return bool\n   */\n  function _isAdmin() internal view returns (bool) {\n    return (hasRole(ADMIN_ROLE, _msgSender()) || hasRole(DEFAULT_ADMIN_ROLE, _msgSender()));\n  }\n\n  /**\n   * @notice isNFT\n   * Function to check if the given address is an NFT.\n   * Checks for ERC721 or ERC1155 interface support\n   * @param _nftAddress Take erc721 and erc1155 address\n   * @return bool\n   */\n  function _isNFT(address _nftAddress) internal view returns (bool) {\n    return (IERC721(_nftAddress).supportsInterface(ERC721InterfaceId) || IERC1155(_nftAddress).supportsInterface(ERC1155InterfaceId));\n  }\n\n  /**\n   * @notice setAuctionDetails\n   * Function to set the auction details\n   * @param _tokenId NFT unique ID\n   * @param _basePrice Unit base price, lowest bid value\n   * @param _salePrice Unit sale price, for instant buy\n   * @param _quantity Total number of tokens in sale\n   * @param _erc20Token ERC20 token address, which can be used to buy this NFT\n   * @param _auctioner Seller address\n   * @param _nftAddress ERC721 or ERC1155 address\n   */\n  function _setAuctionDetails(\n    uint256 _tokenId,\n    uint256 _basePrice,\n    uint256 _salePrice,\n    uint256 _quantity,\n    address _erc20Token,\n    address _auctioner,\n    address _nftAddress\n  ) internal {\n    Auction storage NftOnAuction = mapAuction[_nftAddress][_tokenId][_auctioner];\n    NftOnAuction.tokenId = _tokenId;\n    NftOnAuction.basePrice = _basePrice;\n    NftOnAuction.salePrice = _salePrice;\n    NftOnAuction.erc20Token = _erc20Token;\n    NftOnAuction.quantity = _quantity;\n    NftOnAuction.auctioner = _auctioner;\n  }\n\n  /**\n   * @notice setNftInfo\n   * Function to save additional nft informations to mint\n   * @param _nftAddress ERC721 or ERC1155 address\n   * @param _tokenId NFT unique ID\n   * @param _ipfsHash IPFS Hash of NFT\n   * @param _royaltyReceiver Royalty receiver address\n   * @param _royaltyAmount Royalty amount\n   */\n  function _setNftInfo(\n    address _nftAddress,\n    uint256 _tokenId,\n    string memory _ipfsHash,\n    address _royaltyReceiver,\n    uint256 _royaltyAmount\n  ) internal {\n    NftInfo storage NftInfoStored = mapNftInfo[_nftAddress][_tokenId];\n\n    // Storing basic nft informations only if it is not already stored.\n    if (bytes(NftInfoStored.IPFSHash).length == 0) {\n      NftInfoStored.IPFSHash = _ipfsHash;\n      NftInfoStored.royaltyReceiver = _royaltyReceiver;\n      NftInfoStored.royaltyPercentage = _royaltyAmount;\n    }\n  }\n\n  /**\n   * @notice createAuction\n   * Function to start auction with first bid.\n   * Validate signatures, stores NFT data and add first bid as well\n   * @param _metadata Details of NFT in Metadata format\n   * @param _signature Metadata signature signed by admin during NFT creation on platform\n   */\n  function createAuction(Metadata memory _metadata, bytes calldata _signature) external payable nonReentrant {\n    _setAuctionDetails(\n      _metadata.tokenId,\n      _metadata.basePrice,\n      _metadata.salePrice,\n      _metadata.quantity,\n      _metadata.erc20Token,\n      _metadata.auctioner,\n      _metadata.nftAddress\n    );\n\n    _validateMetadata(_metadata.tokenId, _metadata.auctioner, _metadata.nftAddress, _signature);\n    require(_metadata.salePrice > 0, 'Create Auction: Zero sale price.');\n    require(_metadata.basePrice > 0, 'Create Auction : Zero base price.');\n\n    _setNftInfo(_metadata.nftAddress, _metadata.tokenId, _metadata.IPFSHash, _metadata.royaltyReceiver, _metadata.royaltyPercentage);\n\n    placeBid(_metadata.tokenId, _metadata.bidPrice, _metadata.nftAddress, _metadata.auctioner, _signature);\n\n    emit AuctionCreated(\n      _metadata.tokenId,\n      _metadata.nftAddress,\n      _metadata.auctioner,\n      _metadata.basePrice,\n      _metadata.salePrice,\n      _metadata.erc20Token,\n      _metadata.quantity\n    );\n  }\n\n  /**\n   * @notice placeBid\n   * Function to place the bid on the nfts using native cryptocurrency and multiple erc20 token\n   * @param _tokenId NFT unique ID\n   * @param _price bid price\n   * @param _nftAddress ERC721 or ERC1155 address\n   * @param _auctioner Seller address\n   * @param _signature Metadata signature signed by admin during NFT creation on platform\n   */\n  function placeBid(\n    uint256 _tokenId,\n    uint256 _price,\n    address _nftAddress,\n    address _auctioner,\n    bytes calldata _signature\n  ) public payable callerNotAContract {\n    Auction storage NftOnAuction = mapAuction[_nftAddress][_tokenId][_auctioner];\n\n    _validateMetadata(_tokenId, _auctioner, _nftAddress, _signature);\n    require(!_isAdmin(), 'Place Bid: Admin Can Not Place Bid');\n    require(msg.sender != NftOnAuction.auctioner, 'Place Bid : Seller not allowed to place bid');\n    require(_price >= NftOnAuction.basePrice, 'Place Bid : Price Less Than the base price');\n    require(_price > NftOnAuction.bidAmount, 'Place Bid : The price is less then the previous bid amount');\n\n    if (NftOnAuction.erc20Token == address(0)) {\n      require(msg.value == _price, 'Place Bid: Amount received and price should be same');\n      require(msg.value > NftOnAuction.bidAmount, 'Place Bid: Amount received should be grather than the current bid');\n      if (NftOnAuction.currentBidder != address(0)) {\n        payable(NftOnAuction.currentBidder).transfer(NftOnAuction.bidAmount);\n      }\n    } else {\n      uint256 checkAllowance = IERC20(NftOnAuction.erc20Token).allowance(msg.sender, address(this));\n      require(checkAllowance >= _price, 'Place Bid : Allowance is Less then Price');\n      IERC20(NftOnAuction.erc20Token).safeTransferFrom(msg.sender, address(this), _price);\n      if (NftOnAuction.currentBidder != address(0)) {\n        IERC20(NftOnAuction.erc20Token).safeTransfer(NftOnAuction.currentBidder, NftOnAuction.bidAmount);\n      }\n    }\n\n    NftOnAuction.bidAmount = _price;\n    NftOnAuction.currentBidder = msg.sender;\n\n    emit BidPlaced(_tokenId, _nftAddress, _auctioner, msg.sender, NftOnAuction.erc20Token, NftOnAuction.quantity, _price);\n  }\n\n  /**\n   * @notice instantBuyNFT\n   * Function to buy the NFT on auction instantly.\n   * Current bid must be less than sale price.\n   * Accept native cryptocurrency or erc20 tokens.\n   * @param _tokenId NFT unique ID\n   * @param _nftAddress ERC721 or ERC1155 address\n   * @param _auctioner Seller address\n   * @param _signature Metadata signature signed by admin during NFT creation on platform\n   */\n  function instantBuyNFT(\n    uint256 _tokenId,\n    address _nftAddress,\n    address _auctioner,\n    bytes calldata _signature\n  ) external payable nonReentrant {\n    Auction storage NftOnAuction = mapAuction[_nftAddress][_tokenId][_auctioner];\n\n    _validateMetadata(_tokenId, _auctioner, _nftAddress, _signature);\n    require(!_isAdmin(), 'Auction Instant Buy: Admin not allowed to perform purchase');\n    require(msg.sender != NftOnAuction.auctioner, 'Auction Instant Buy: Seller not allowed to perform purchase');\n    require(NftOnAuction.salePrice > NftOnAuction.bidAmount, 'Auction Instant Buy: Bid exceeds sale price');\n\n    if (NftOnAuction.erc20Token == address(0)) {\n      require(msg.value == NftOnAuction.salePrice, 'Auction Instant Buy: Amount received and sale price should be same');\n\n      if (NftOnAuction.currentBidder != address(0)) {\n        payable(NftOnAuction.currentBidder).transfer(NftOnAuction.bidAmount);\n      }\n    } else {\n      uint256 checkAllowance = IERC20(NftOnAuction.erc20Token).allowance(msg.sender, address(this));\n\n      require(checkAllowance >= NftOnAuction.salePrice, 'Auction Instant Buy: Allowance is Less then Price');\n\n      IERC20(NftOnAuction.erc20Token).safeTransferFrom(msg.sender, address(this), NftOnAuction.salePrice);\n\n      if (NftOnAuction.currentBidder != address(0)) {\n        IERC20(NftOnAuction.erc20Token).safeTransfer(NftOnAuction.currentBidder, NftOnAuction.bidAmount);\n      }\n    }\n\n    address buyer = msg.sender;\n\n    _NftAuction(_tokenId, _nftAddress, _auctioner, buyer, NftOnAuction);\n  }\n\n  /**\n   * @notice instantBuyNFTwithFiat\n   * This function can only be called by the admin account\n   * The fiat payment will be converted into to crypto via on-ramp and transferred to the contract for\n   * administering the payment split and token transfer on-chain\n   * IMPORTANT: It should only be called after the right amount of crypto/token should received in the contract\n   * The transfer should be confirmed off chain before calling this function\n   * @param _tokenId NFT unique ID\n   * @param _nftAddress ERC721 or ERC1155 address\n   * @param _auctioner Seller address\n   * @param _buyer Buyer address\n   * @param _signature Metadata signature signed by admin during NFT creation on platform\n   */\n  function instantBuyNFTwithFiat(\n    uint256 _tokenId,\n    address _nftAddress,\n    address _auctioner,\n    address _buyer,\n    bytes calldata _signature\n  ) external payable onlyOwner nonReentrant {\n    Auction storage NftOnAuction = mapAuction[_nftAddress][_tokenId][_auctioner];\n\n    _validateMetadata(_tokenId, _auctioner, _nftAddress, _signature);\n    require(NftOnAuction.salePrice > NftOnAuction.bidAmount, 'Auction Instant Buy: Bid exceeds sale price');\n    require(_buyer != NftOnAuction.auctioner, 'Auction Instant Buy : Seller not allowed to perform purchase');\n    require(NftOnAuction.salePrice > NftOnAuction.bidAmount, 'Auction Instant Buy: bid exceeds sale price');\n\n    if (NftOnAuction.erc20Token == address(0)) {\n      if (NftOnAuction.currentBidder != address(0)) {\n        payable(NftOnAuction.currentBidder).transfer(NftOnAuction.bidAmount);\n      }\n    } else {\n      if (NftOnAuction.currentBidder != address(0)) {\n        IERC20(NftOnAuction.erc20Token).safeTransfer(NftOnAuction.currentBidder, NftOnAuction.bidAmount);\n      }\n    }\n\n    _NftAuction(_tokenId, _nftAddress, _auctioner, _buyer, NftOnAuction);\n  }\n\n  /**\n   * @notice NftAuction\n   * Manage auction instant purchase general logic\n   * Minting the NFT and transfering various funds.\n   * @param _tokenId NFT unique ID\n   * @param _nftAddress ERC721 or ERC1155 address\n   * @param _auctioner Seller address\n   * @param _buyer Buyer address\n   */\n  function _NftAuction(\n    uint256 _tokenId,\n    address _nftAddress,\n    address _auctioner,\n    address _buyer,\n    Auction memory NftOnAuction\n  ) internal {\n    NftInfo storage NftInfoStored = mapNftInfo[_nftAddress][_tokenId];\n\n    _mintNFT(\n      _buyer,\n      _nftAddress,\n      _tokenId,\n      NftOnAuction.quantity,\n      NftInfoStored.royaltyReceiver,\n      NftInfoStored.royaltyPercentage,\n      NftInfoStored.IPFSHash\n    );\n\n    _fundTransfer(NftOnAuction.salePrice, NftOnAuction.erc20Token, true, NftOnAuction.auctioner);\n\n    emit AuctionSettled(\n      NftOnAuction.tokenId,\n      _nftAddress,\n      _auctioner,\n      _buyer,\n      NftOnAuction.erc20Token,\n      NftOnAuction.quantity,\n      NftOnAuction.salePrice\n    );\n\n    delete mapAuction[_nftAddress][_tokenId][_auctioner];\n  }\n\n  /**\n   * @notice fundTransfer\n   * Manage fund transfers on purchase of NFT\n   * @param _price Total price\n   * @param _tokenErc20 ERC20 token address\n   * @param _isDirectPurchase Instant buy or settle auction\n   * @param _seller Seller address\n   */\n  function _fundTransfer(\n    uint256 _price,\n    address _tokenErc20,\n    bool _isDirectPurchase,\n    address _seller\n  ) internal {\n    uint256 sellerProfit;\n    uint256 platformProfit;\n\n    if (platformFee.percentageValue > 0) {\n      platformProfit = _price.mul(platformFee.percentageValue).div(10000);\n    }\n\n    sellerProfit = _price.sub(platformProfit);\n\n    if (_tokenErc20 == address(0)) {\n      if (platformFee.receiver != address(0) && platformProfit > 0) {\n        (bool isPlatformFeeTransferSuccess, ) = payable(platformFee.receiver).call{ value: platformProfit }('');\n        require(isPlatformFeeTransferSuccess, 'Fund Transfer: Transfer to platform fee receiver failed.');\n      }\n      (bool isSellerTransferSuccess, ) = payable(_seller).call{ value: sellerProfit }('');\n      require(isSellerTransferSuccess, 'Fund Transfer: Transfer to seller failed.');\n    } else {\n      if (_isDirectPurchase) {\n        if (platformFee.receiver != address(0) && platformProfit > 0) {\n          IERC20(_tokenErc20).safeTransferFrom(msg.sender, platformFee.receiver, platformProfit);\n        }\n        IERC20(_tokenErc20).safeTransferFrom(msg.sender, _seller, sellerProfit);\n      } else {\n        if (platformFee.receiver != address(0) && platformProfit > 0) {\n          IERC20(_tokenErc20).safeTransfer(platformFee.receiver, platformProfit);\n        }\n        IERC20(_tokenErc20).safeTransfer(_seller, sellerProfit);\n      }\n    }\n    emit FundTransfer(Fee(_seller, sellerProfit), Fee(platformFee.receiver, platformProfit));\n  }\n\n  /**\n   * @notice mintNFT\n   * Calling ERC721 or ERC1155 Mint function\n   * @param _receiver NFT Receiver\n   * @param _nftAddress ERC721 or ERC1155 address\n   * @param _tokenId NFT unique ID\n   * @param _quantity Purchasing amount of tokens\n   * @param _royaltyReceiver Royalty receiver address\n   * @param _royaltyPercentage Royalty percentage\n   * @param _ipfsHash IPFS Hash of NFT\n   */\n  function _mintNFT(\n    address _receiver,\n    address _nftAddress,\n    uint256 _tokenId,\n    uint256 _quantity,\n    address _royaltyReceiver,\n    uint256 _royaltyPercentage,\n    string memory _ipfsHash\n  ) internal {\n    if (IERC721(_nftAddress).supportsInterface(ERC721InterfaceId)) {\n      ERC721.Royalties memory royalties = ERC721.Royalties(payable(_royaltyReceiver), _royaltyPercentage);\n      ERC721(_nftAddress).mint(_receiver, _tokenId, _ipfsHash, royalties);\n    } else if (IERC1155(_nftAddress).supportsInterface(ERC1155InterfaceId)) {\n      ERC1155.Royalties memory royalties = ERC1155.Royalties(payable(_royaltyReceiver), _royaltyPercentage);\n      ERC1155(_nftAddress).mint(_receiver, _tokenId, _quantity, bytes(_ipfsHash), royalties);\n    }\n  }\n\n  /**\n   * @notice settleAuction\n   * Function to settle auction.\n   * Must be called by admin or auctioneer\n   * @param _tokenId NFT unique ID\n   * @param _nftAddress ERC721 or ERC1155 address\n   * @param _auctioner Seller address\n   * @param _signature Metadata signature signed by admin during NFT creation on platform\n   */\n  function settleAuction(\n    uint256 _tokenId,\n    address _nftAddress,\n    address _auctioner,\n    bytes calldata _signature\n  ) public nonReentrant {\n    Auction storage NftOnAuction = mapAuction[_nftAddress][_tokenId][_auctioner];\n    NftInfo storage NftInfoStored = mapNftInfo[_nftAddress][_tokenId];\n\n    _validateMetadata(_tokenId, _auctioner, _nftAddress, _signature);\n    require(_isAdmin() || msg.sender == NftOnAuction.auctioner, 'Settle Auction : Restricted to auctioner or admin!');\n\n    if (NftOnAuction.currentBidder != address(0)) {\n      _mintNFT(\n        NftOnAuction.currentBidder,\n        _nftAddress,\n        _tokenId,\n        NftOnAuction.quantity,\n        NftInfoStored.royaltyReceiver,\n        NftInfoStored.royaltyPercentage,\n        NftInfoStored.IPFSHash\n      );\n\n      _fundTransfer(NftOnAuction.bidAmount, NftOnAuction.erc20Token, false, NftOnAuction.auctioner);\n    } else {\n      _mintNFT(\n        NftOnAuction.auctioner,\n        _nftAddress,\n        _tokenId,\n        NftOnAuction.quantity,\n        NftInfoStored.royaltyReceiver,\n        NftInfoStored.royaltyPercentage,\n        NftInfoStored.IPFSHash\n      );\n\n      _fundTransfer(NftOnAuction.bidAmount, NftOnAuction.erc20Token, false, NftOnAuction.auctioner);\n    }\n\n    emit AuctionSettled(\n      NftOnAuction.tokenId,\n      _nftAddress,\n      _auctioner,\n      NftOnAuction.currentBidder,\n      NftOnAuction.erc20Token,\n      NftOnAuction.quantity,\n      NftOnAuction.bidAmount\n    );\n\n    delete mapAuction[_nftAddress][_tokenId][_auctioner];\n  }\n\n  /**\n   * @notice cancelAuction\n   * Function to cancel the auction\n   * Must be called by admin or auctioneer\n   * @param _tokenId NFT unique ID\n   * @param _nftAddress ERC721 or ERC1155 address\n   * @param _auctioner Seller address\n   * @param _signature Metadata signature signed by admin during NFT creation on platform\n   */\n  function cancelAuction(\n    uint256 _tokenId,\n    address _nftAddress,\n    address _auctioner,\n    bytes calldata _signature\n  ) external nonReentrant {\n    Auction storage NftOnAuction = mapAuction[_nftAddress][_tokenId][_auctioner];\n\n    _validateMetadata(_tokenId, _auctioner, _nftAddress, _signature);\n    require(_isAdmin() || msg.sender == NftOnAuction.auctioner, 'Cancel Auction: Restricted to auctioner or admin!');\n\n    /// Return bid if there is any\n    if (NftOnAuction.currentBidder != address(0)) {\n      if (NftOnAuction.erc20Token == address(0)) {\n        payable(NftOnAuction.currentBidder).transfer(NftOnAuction.bidAmount);\n      } else {\n        IERC20(NftOnAuction.erc20Token).safeTransfer(NftOnAuction.currentBidder, NftOnAuction.bidAmount);\n      }\n    }\n\n    emit AuctionCancelled(\n      _tokenId,\n      _nftAddress,\n      _auctioner,\n      NftOnAuction.quantity,\n      NftOnAuction.erc20Token,\n      NftOnAuction.bidAmount,\n      NftOnAuction.currentBidder\n    );\n\n    delete mapAuction[_nftAddress][_tokenId][_auctioner];\n  }\n\n  /**\n   * @notice getAuction\n   * Function to get auction details\n   * @param _tokenId NFT unique ID\n   * @param _nftAddress ERC721 or ERC1155 address\n   * @param _auctioner Seller address\n   * @return Auction Auction data\n   */\n  function getAuction(\n    uint256 _tokenId,\n    address _nftAddress,\n    address _auctioner\n  ) external view returns (Auction memory) {\n    Auction storage nftOnAuction = mapAuction[_nftAddress][_tokenId][_auctioner];\n    return (nftOnAuction);\n  }\n\n  /**\n   * @notice hashTypedData\n   * Function to hash the nft metadata\n   * @param tokenId NFT unique ID\n   * @param auctioner Seller address\n   * @param nftAddress ERC721 or ERC1155 address\n   * @return Hash Hash of metadata\n   */\n  function _hashTypedData(\n    uint256 tokenId,\n    address auctioner,\n    address nftAddress\n  ) internal view returns (bytes32) {\n    Auction storage NftOnAuction = mapAuction[nftAddress][tokenId][auctioner];\n    NftInfo storage NftInfoStored = mapNftInfo[nftAddress][tokenId];\n    return\n      _hashTypedDataV4(\n        keccak256(\n          abi.encode(\n            AUCTION_TYPEHASH,\n            tokenId,\n            NftOnAuction.basePrice,\n            NftOnAuction.salePrice,\n            NftOnAuction.quantity,\n            NftOnAuction.erc20Token,\n            NftOnAuction.auctioner,\n            nftAddress,\n            NftInfoStored.royaltyReceiver,\n            NftInfoStored.royaltyPercentage,\n            keccak256(bytes(NftInfoStored.IPFSHash))\n          )\n        )\n      );\n  }\n\n  /**\n   * @notice getSigner\n   * Function To extract signer address from signature\n   * @param digest Data hash\n   * @param signature Signature\n   * @return signer Signer address\n   */\n  function _getSigner(bytes32 digest, bytes memory signature) internal pure returns (address) {\n    address signer = ECDSA.recover(digest, signature);\n    return signer;\n  }\n\n  /**\n   * @notice verifySignature\n   * Function to perform signature verification\n   * @param tokenId NFT unique ID\n   * @param auctioner Seller address\n   * @param nftAddress ERC721 or ERC1155 address\n   * @param signature Metadata signed by admin during NFT creation on platform\n   * @return boolean Verification status\n   */\n  function _verifySignature(\n    uint256 tokenId,\n    address auctioner,\n    address nftAddress,\n    bytes calldata signature\n  ) internal view returns (bool) {\n    address signer = _getSigner(_hashTypedData(tokenId, auctioner, nftAddress), signature);\n    require(hasRole(ADMIN_ROLE, signer) || hasRole(DEFAULT_ADMIN_ROLE, signer), 'Signature verification failed!');\n    return true;\n  }\n\n  /**\n   * @notice validateMetadata\n   * Function to perform general validations\n   * @param _tokenId NFT unique ID\n   * @param _auctioner Seller address\n   * @param _nftAddress ERC721 or ERC1155 address\n   * @param _signature Metadata signed by admin during NFT creation on platform\n   * @return boolean Verification status\n   */\n  function _validateMetadata(\n    uint256 _tokenId,\n    address _auctioner,\n    address _nftAddress,\n    bytes calldata _signature\n  ) internal view returns (bool) {\n    Auction storage NftOnAuction = mapAuction[_nftAddress][_tokenId][_auctioner];\n\n    require(msg.sender != address(0), 'Genaral Validation: Zero Sender Address');\n    require(_nftAddress != address(0), 'Genaral Validation: Zero NFT Address');\n    require(_auctioner != address(0), 'Genaral Validation: Zero Auctioner Address ');\n    require(_isNFT(_nftAddress), 'Genaral Validation: Not confirming to an NFT contract');\n    require(NftOnAuction.quantity != 0, 'Genaral Validation: Zero Quantity');\n    require(NftOnAuction.tokenId == _tokenId, 'Genaral Validation: Token id is not on auction');\n\n    _verifySignature(_tokenId, _nftAddress, _auctioner, _signature);\n\n    return true;\n  }\n}\n",
  "sourcePath": "/home/accubits-prasanth/Documents/Accubits/NFT 2.0/Smart Contract/contracts/PrimaryAuctionNFTMarketplace.sol",
  "compiler": {
    "name": "solc",
    "version": "0.8.13+commit.abaa5c0e.Emscripten.clang"
  },
  "schemaVersion": "3.4.6",
  "updatedAt": "2022-09-15T11:28:42.651Z",
  "devdoc": {
    "kind": "dev",
    "methods": {
      "cancelAuction(uint256,address,address,bytes)": {
        "params": {
          "_auctioner": "Seller address",
          "_nftAddress": "ERC721 or ERC1155 address",
          "_signature": "Metadata signature signed by admin during NFT creation on platform",
          "_tokenId": "NFT unique ID"
        }
      },
      "constructor": {
        "params": {
          "_platformFee": "Fee type. Fee percentage and Receiver address",
          "_rootAdmin": "Root admin address"
        }
      },
      "createAuction((uint256,uint256,uint256,uint256,uint256,address,address,address,address,uint256,string),bytes)": {
        "params": {
          "_metadata": "Details of NFT in Metadata format",
          "_signature": "Metadata signature signed by admin during NFT creation on platform"
        }
      },
      "getAuction(uint256,address,address)": {
        "params": {
          "_auctioner": "Seller address",
          "_nftAddress": "ERC721 or ERC1155 address",
          "_tokenId": "NFT unique ID"
        },
        "returns": {
          "_0": "Auction Auction data"
        }
      },
      "getRoleAdmin(bytes32)": {
        "details": "Returns the admin role that controls `role`. See {grantRole} and {revokeRole}. To change a role's admin, use {_setRoleAdmin}."
      },
      "getRoleMember(bytes32,uint256)": {
        "details": "Returns one of the accounts that have `role`. `index` must be a value between 0 and {getRoleMemberCount}, non-inclusive. Role bearers are not sorted in any particular way, and their ordering may change at any point. WARNING: When using {getRoleMember} and {getRoleMemberCount}, make sure you perform all queries on the same block. See the following https://forum.openzeppelin.com/t/iterating-over-elements-on-enumerableset-in-openzeppelin-contracts/2296[forum post] for more information."
      },
      "getRoleMemberCount(bytes32)": {
        "details": "Returns the number of accounts that have `role`. Can be used together with {getRoleMember} to enumerate all bearers of a role."
      },
      "grantRole(bytes32,address)": {
        "details": "Grants `role` to `account`. If `account` had not been already granted `role`, emits a {RoleGranted} event. Requirements: - the caller must have ``role``'s admin role. May emit a {RoleGranted} event."
      },
      "hasRole(bytes32,address)": {
        "details": "Returns `true` if `account` has been granted `role`."
      },
      "instantBuyNFT(uint256,address,address,bytes)": {
        "params": {
          "_auctioner": "Seller address",
          "_nftAddress": "ERC721 or ERC1155 address",
          "_signature": "Metadata signature signed by admin during NFT creation on platform",
          "_tokenId": "NFT unique ID"
        }
      },
      "instantBuyNFTwithFiat(uint256,address,address,address,bytes)": {
        "params": {
          "_auctioner": "Seller address",
          "_buyer": "Buyer address",
          "_nftAddress": "ERC721 or ERC1155 address",
          "_signature": "Metadata signature signed by admin during NFT creation on platform",
          "_tokenId": "NFT unique ID"
        }
      },
      "placeBid(uint256,uint256,address,address,bytes)": {
        "params": {
          "_auctioner": "Seller address",
          "_nftAddress": "ERC721 or ERC1155 address",
          "_price": "bid price",
          "_signature": "Metadata signature signed by admin during NFT creation on platform",
          "_tokenId": "NFT unique ID"
        }
      },
      "renounceRole(bytes32,address)": {
        "details": "Revokes `role` from the calling account. Roles are often managed via {grantRole} and {revokeRole}: this function's purpose is to provide a mechanism for accounts to lose their privileges if they are compromised (such as when a trusted device is misplaced). If the calling account had been revoked `role`, emits a {RoleRevoked} event. Requirements: - the caller must be `account`. May emit a {RoleRevoked} event."
      },
      "revokeRole(bytes32,address)": {
        "details": "Revokes `role` from `account`. If `account` had been granted `role`, emits a {RoleRevoked} event. Requirements: - the caller must have ``role``'s admin role. May emit a {RoleRevoked} event."
      },
      "settleAuction(uint256,address,address,bytes)": {
        "params": {
          "_auctioner": "Seller address",
          "_nftAddress": "ERC721 or ERC1155 address",
          "_signature": "Metadata signature signed by admin during NFT creation on platform",
          "_tokenId": "NFT unique ID"
        }
      },
      "supportsInterface(bytes4)": {
        "details": "See {IERC165-supportsInterface}."
      }
    },
    "title": "Primary Auction NFT MarketPlace NFT MarketPlace contract to handle primary NFT sales with auction",
    "version": 1
  },
  "userdoc": {
    "kind": "user",
    "methods": {
      "ADMIN_ROLE()": {
        "notice": "Defining ADMIN ROLE and Interface IDs"
      },
      "AUCTION_TYPEHASH()": {
        "notice": "For signature verification of Auction Typed Data"
      },
      "cancelAuction(uint256,address,address,bytes)": {
        "notice": "cancelAuction Function to cancel the auction Must be called by admin or auctioneer"
      },
      "constructor": {
        "notice": "Constructor Invokes EIP712 constructor with Domain - Used for signature verification"
      },
      "createAuction((uint256,uint256,uint256,uint256,uint256,address,address,address,address,uint256,string),bytes)": {
        "notice": "createAuction Function to start auction with first bid. Validate signatures, stores NFT data and add first bid as well"
      },
      "getAuction(uint256,address,address)": {
        "notice": "getAuction Function to get auction details"
      },
      "instantBuyNFT(uint256,address,address,bytes)": {
        "notice": "instantBuyNFT Function to buy the NFT on auction instantly. Current bid must be less than sale price. Accept native cryptocurrency or erc20 tokens."
      },
      "instantBuyNFTwithFiat(uint256,address,address,address,bytes)": {
        "notice": "instantBuyNFTwithFiat This function can only be called by the admin account The fiat payment will be converted into to crypto via on-ramp and transferred to the contract for administering the payment split and token transfer on-chain IMPORTANT: It should only be called after the right amount of crypto/token should received in the contract The transfer should be confirmed off chain before calling this function"
      },
      "placeBid(uint256,uint256,address,address,bytes)": {
        "notice": "placeBid Function to place the bid on the nfts using native cryptocurrency and multiple erc20 token"
      },
      "settleAuction(uint256,address,address,bytes)": {
        "notice": "settleAuction Function to settle auction. Must be called by admin or auctioneer"
      }
    },
    "version": 1
  }
}