{
  "contractName": "PrimaryFixedPriceNFTMarketPlace",
  "abi": [
    {
      "inputs": [
        {
          "components": [
            {
              "internalType": "address",
              "name": "receiver",
              "type": "address"
            },
            {
              "internalType": "uint256",
              "name": "percentageValue",
              "type": "uint256"
            }
          ],
          "internalType": "struct PrimaryFixedPriceNFTMarketPlace.Fee",
          "name": "_platformFee",
          "type": "tuple"
        },
        {
          "internalType": "address",
          "name": "_rootAdmin",
          "type": "address"
        }
      ],
      "stateMutability": "nonpayable",
      "type": "constructor"
    },
    {
      "anonymous": false,
      "inputs": [
        {
          "components": [
            {
              "internalType": "address",
              "name": "receiver",
              "type": "address"
            },
            {
              "internalType": "uint256",
              "name": "percentageValue",
              "type": "uint256"
            }
          ],
          "indexed": false,
          "internalType": "struct PrimaryFixedPriceNFTMarketPlace.Fee",
          "name": "sellerProfit",
          "type": "tuple"
        },
        {
          "components": [
            {
              "internalType": "address",
              "name": "receiver",
              "type": "address"
            },
            {
              "internalType": "uint256",
              "name": "percentageValue",
              "type": "uint256"
            }
          ],
          "indexed": false,
          "internalType": "struct PrimaryFixedPriceNFTMarketPlace.Fee",
          "name": "platformFee",
          "type": "tuple"
        }
      ],
      "name": "FundTransfer",
      "type": "event"
    },
    {
      "anonymous": false,
      "inputs": [
        {
          "indexed": true,
          "internalType": "uint256",
          "name": "tokenId",
          "type": "uint256"
        },
        {
          "indexed": true,
          "internalType": "address",
          "name": "nftAddress",
          "type": "address"
        },
        {
          "indexed": true,
          "internalType": "address",
          "name": "seller",
          "type": "address"
        },
        {
          "indexed": false,
          "internalType": "uint256",
          "name": "price",
          "type": "uint256"
        },
        {
          "indexed": false,
          "internalType": "address",
          "name": "erc20Token",
          "type": "address"
        },
        {
          "indexed": false,
          "internalType": "address",
          "name": "buyer",
          "type": "address"
        },
        {
          "indexed": false,
          "internalType": "uint256",
          "name": "quantity",
          "type": "uint256"
        }
      ],
      "name": "NftSold",
      "type": "event"
    },
    {
      "anonymous": false,
      "inputs": [
        {
          "indexed": true,
          "internalType": "bytes32",
          "name": "role",
          "type": "bytes32"
        },
        {
          "indexed": true,
          "internalType": "bytes32",
          "name": "previousAdminRole",
          "type": "bytes32"
        },
        {
          "indexed": true,
          "internalType": "bytes32",
          "name": "newAdminRole",
          "type": "bytes32"
        }
      ],
      "name": "RoleAdminChanged",
      "type": "event"
    },
    {
      "anonymous": false,
      "inputs": [
        {
          "indexed": true,
          "internalType": "bytes32",
          "name": "role",
          "type": "bytes32"
        },
        {
          "indexed": true,
          "internalType": "address",
          "name": "account",
          "type": "address"
        },
        {
          "indexed": true,
          "internalType": "address",
          "name": "sender",
          "type": "address"
        }
      ],
      "name": "RoleGranted",
      "type": "event"
    },
    {
      "anonymous": false,
      "inputs": [
        {
          "indexed": true,
          "internalType": "bytes32",
          "name": "role",
          "type": "bytes32"
        },
        {
          "indexed": true,
          "internalType": "address",
          "name": "account",
          "type": "address"
        },
        {
          "indexed": true,
          "internalType": "address",
          "name": "sender",
          "type": "address"
        }
      ],
      "name": "RoleRevoked",
      "type": "event"
    },
    {
      "inputs": [],
      "name": "ADMIN_ROLE",
      "outputs": [
        {
          "internalType": "bytes32",
          "name": "",
          "type": "bytes32"
        }
      ],
      "stateMutability": "view",
      "type": "function"
    },
    {
      "inputs": [],
      "name": "DEFAULT_ADMIN_ROLE",
      "outputs": [
        {
          "internalType": "bytes32",
          "name": "",
          "type": "bytes32"
        }
      ],
      "stateMutability": "view",
      "type": "function"
    },
    {
      "inputs": [],
      "name": "FIXED_PRICE_TYPEHASH",
      "outputs": [
        {
          "internalType": "bytes32",
          "name": "",
          "type": "bytes32"
        }
      ],
      "stateMutability": "view",
      "type": "function"
    },
    {
      "inputs": [
        {
          "internalType": "bytes32",
          "name": "role",
          "type": "bytes32"
        }
      ],
      "name": "getRoleAdmin",
      "outputs": [
        {
          "internalType": "bytes32",
          "name": "",
          "type": "bytes32"
        }
      ],
      "stateMutability": "view",
      "type": "function"
    },
    {
      "inputs": [
        {
          "internalType": "bytes32",
          "name": "role",
          "type": "bytes32"
        },
        {
          "internalType": "uint256",
          "name": "index",
          "type": "uint256"
        }
      ],
      "name": "getRoleMember",
      "outputs": [
        {
          "internalType": "address",
          "name": "",
          "type": "address"
        }
      ],
      "stateMutability": "view",
      "type": "function"
    },
    {
      "inputs": [
        {
          "internalType": "bytes32",
          "name": "role",
          "type": "bytes32"
        }
      ],
      "name": "getRoleMemberCount",
      "outputs": [
        {
          "internalType": "uint256",
          "name": "",
          "type": "uint256"
        }
      ],
      "stateMutability": "view",
      "type": "function"
    },
    {
      "inputs": [
        {
          "internalType": "bytes32",
          "name": "role",
          "type": "bytes32"
        },
        {
          "internalType": "address",
          "name": "account",
          "type": "address"
        }
      ],
      "name": "grantRole",
      "outputs": [],
      "stateMutability": "nonpayable",
      "type": "function"
    },
    {
      "inputs": [
        {
          "internalType": "bytes32",
          "name": "role",
          "type": "bytes32"
        },
        {
          "internalType": "address",
          "name": "account",
          "type": "address"
        }
      ],
      "name": "hasRole",
      "outputs": [
        {
          "internalType": "bool",
          "name": "",
          "type": "bool"
        }
      ],
      "stateMutability": "view",
      "type": "function"
    },
    {
      "inputs": [
        {
          "internalType": "bytes32",
          "name": "role",
          "type": "bytes32"
        },
        {
          "internalType": "address",
          "name": "account",
          "type": "address"
        }
      ],
      "name": "renounceRole",
      "outputs": [],
      "stateMutability": "nonpayable",
      "type": "function"
    },
    {
      "inputs": [
        {
          "internalType": "bytes32",
          "name": "role",
          "type": "bytes32"
        },
        {
          "internalType": "address",
          "name": "account",
          "type": "address"
        }
      ],
      "name": "revokeRole",
      "outputs": [],
      "stateMutability": "nonpayable",
      "type": "function"
    },
    {
      "inputs": [
        {
          "components": [
            {
              "internalType": "address",
              "name": "receiver",
              "type": "address"
            },
            {
              "internalType": "uint256",
              "name": "percentageValue",
              "type": "uint256"
            }
          ],
          "internalType": "struct PrimaryFixedPriceNFTMarketPlace.Fee",
          "name": "_platformFee",
          "type": "tuple"
        }
      ],
      "name": "PlatformFee",
      "outputs": [],
      "stateMutability": "nonpayable",
      "type": "function"
    },
    {
      "inputs": [
        {
          "components": [
            {
              "internalType": "uint256",
              "name": "tokenId",
              "type": "uint256"
            },
            {
              "internalType": "uint256",
              "name": "price",
              "type": "uint256"
            },
            {
              "internalType": "uint256",
              "name": "quantity",
              "type": "uint256"
            },
            {
              "internalType": "address",
              "name": "erc20Token",
              "type": "address"
            },
            {
              "internalType": "address",
              "name": "seller",
              "type": "address"
            },
            {
              "internalType": "address",
              "name": "nftAddress",
              "type": "address"
            },
            {
              "internalType": "address",
              "name": "royaltyReceiver",
              "type": "address"
            },
            {
              "internalType": "uint256",
              "name": "royaltyPercentage",
              "type": "uint256"
            },
            {
              "internalType": "string",
              "name": "IPFSHash",
              "type": "string"
            }
          ],
          "internalType": "struct PrimaryFixedPriceNFTMarketPlace.Metadata",
          "name": "_metadata",
          "type": "tuple"
        },
        {
          "internalType": "uint256",
          "name": "_purchasingQuantity",
          "type": "uint256"
        },
        {
          "internalType": "bytes",
          "name": "_signature",
          "type": "bytes"
        }
      ],
      "name": "buyNft",
      "outputs": [],
      "stateMutability": "payable",
      "type": "function"
    },
    {
      "inputs": [
        {
          "components": [
            {
              "internalType": "uint256",
              "name": "tokenId",
              "type": "uint256"
            },
            {
              "internalType": "uint256",
              "name": "price",
              "type": "uint256"
            },
            {
              "internalType": "uint256",
              "name": "quantity",
              "type": "uint256"
            },
            {
              "internalType": "address",
              "name": "erc20Token",
              "type": "address"
            },
            {
              "internalType": "address",
              "name": "seller",
              "type": "address"
            },
            {
              "internalType": "address",
              "name": "nftAddress",
              "type": "address"
            },
            {
              "internalType": "address",
              "name": "royaltyReceiver",
              "type": "address"
            },
            {
              "internalType": "uint256",
              "name": "royaltyPercentage",
              "type": "uint256"
            },
            {
              "internalType": "string",
              "name": "IPFSHash",
              "type": "string"
            }
          ],
          "internalType": "struct PrimaryFixedPriceNFTMarketPlace.Metadata",
          "name": "_metadata",
          "type": "tuple"
        },
        {
          "internalType": "uint256",
          "name": "_purchasingQuantity",
          "type": "uint256"
        },
        {
          "internalType": "bytes",
          "name": "_signature",
          "type": "bytes"
        },
        {
          "internalType": "address",
          "name": "_buyer",
          "type": "address"
        }
      ],
      "name": "fiatPurchase",
      "outputs": [],
      "stateMutability": "payable",
      "type": "function"
    },
    {
      "inputs": [
        {
          "internalType": "bytes4",
          "name": "interfaceId",
          "type": "bytes4"
        }
      ],
      "name": "supportsInterface",
      "outputs": [
        {
          "internalType": "bool",
          "name": "",
          "type": "bool"
        }
      ],
      "stateMutability": "view",
      "type": "function"
    }
  ],
  "bytecode": "0x610140604052600680546001600160401b03191667d9b67a2680ac58cd1790553480156200002c57600080fd5b5060405162002fbf38038062002fbf8339810160408190526200004f91620003ba565b604080518082018252601f81527f5072696d617279466978656450726963654e46544d61726b6574506c61636500602080830191825283518085019094526005845264302e302e3160d81b9084015260016002558151902060e08190527fae209a0b48f21c054280f2455d32cf309387644879d9acbd8ffc1991638118856101008190524660a0529192917f8b73c3c69bb8fe3d512ecc4cf759cc79239f7b179b0ffacaa9a75d522b39400f6200014b8184846040805160208101859052908101839052606081018290524660808201523060a082015260009060c0016040516020818303038152906040528051906020012090509392505050565b6080523060c052610120525062000167925084915050620001a8565b6200017460003362000238565b620001a07fa49807205ce4d355092ef5a8a18f56e8913cf4a201fbe287825b095693c217758262000238565b505062000443565b611388816020015111156200020e5760405162461bcd60e51b815260206004820152602260248201527f4665653a206d617820616c6c6f776564207065726563656e7461676520697320604482015261035360f41b606482015260840160405180910390fd5b8051600480546001600160a01b0319166001600160a01b0390921691909117905560200151600555565b62000244828262000248565b5050565b6200025f82826200028b60201b6200096f1760201c565b600082815260016020908152604090912062000286918390620009f36200032b821b17901c565b505050565b6000828152602081815260408083206001600160a01b038516845290915290205460ff1662000244576000828152602081815260408083206001600160a01b03851684529091529020805460ff19166001179055620002e73390565b6001600160a01b0316816001600160a01b0316837f2f8788117e7eff1d82e926ec794901d17c78024a50270940304540a733656f0d60405160405180910390a45050565b600062000342836001600160a01b0384166200034b565b90505b92915050565b6000818152600183016020526040812054620003945750815460018181018455600084815260208082209093018490558454848252828601909352604090209190915562000345565b50600062000345565b80516001600160a01b0381168114620003b557600080fd5b919050565b6000808284036060811215620003cf57600080fd5b6040811215620003de57600080fd5b50604080519081016001600160401b03811182821017156200041057634e487b7160e01b600052604160045260246000fd5b6040526200041e846200039d565b81526020848101519082015291506200043a604084016200039d565b90509250929050565b60805160a05160c05160e0516101005161012051612b2c620004936000396000611ed501526000611f2401526000611eff01526000611e5801526000611e8201526000611eac0152612b2c6000f3fe6080604052600436106100dd5760003560e01c80637a614c501161007f57806391d148541161005957806391d148541461027d578063a217fddf1461029d578063ca15c873146102b2578063d547741f146102d257600080fd5b80637a614c50146102125780637e71cdba146102325780639010d07c1461024557600080fd5b806336568abe116100bb57806336568abe146101775780633dd738bf1461019757806343fad86e146101cb57806375b238fc146101de57600080fd5b806301ffc9a7146100e2578063248a9ca3146101175780632f2ff15d14610155575b600080fd5b3480156100ee57600080fd5b506101026100fd36600461238b565b6102f2565b60405190151581526020015b60405180910390f35b34801561012357600080fd5b506101476101323660046123b5565b60009081526020819052604090206001015490565b60405190815260200161010e565b34801561016157600080fd5b506101756101703660046123ea565b610303565b005b34801561018357600080fd5b506101756101923660046123ea565b61032d565b3480156101a357600080fd5b506101477f81ca36344a4f558cd4400c00adda99aa282181fb2be3acccdcb92f502e4e1d5581565b6101756101d93660046125dc565b6103b0565b3480156101ea57600080fd5b506101477fa49807205ce4d355092ef5a8a18f56e8913cf4a201fbe287825b095693c2177581565b34801561021e57600080fd5b5061017561022d36600461264c565b6106d2565b6101756102403660046126a3565b610728565b34801561025157600080fd5b50610265610260366004612728565b6108eb565b6040516001600160a01b03909116815260200161010e565b34801561028957600080fd5b506101026102983660046123ea565b61090a565b3480156102a957600080fd5b50610147600081565b3480156102be57600080fd5b506101476102cd3660046123b5565b610933565b3480156102de57600080fd5b506101756102ed3660046123ea565b61094a565b60006102fd82610a08565b92915050565b60008281526020819052604090206001015461031e81610a2d565b6103288383610a37565b505050565b6001600160a01b03811633146103a25760405162461bcd60e51b815260206004820152602f60248201527f416363657373436f6e74726f6c3a2063616e206f6e6c792072656e6f756e636560448201526e103937b632b9903337b91039b2b63360891b60648201526084015b60405180910390fd5b6103ac8282610a59565b5050565b60028054036104015760405162461bcd60e51b815260206004820152601f60248201527f5265656e7472616e637947756172643a207265656e7472616e742063616c6c006044820152606401610399565b60028055826104525760405162461bcd60e51b815260206004820152601c60248201527f4275794e6674733a2043616e277420427579205a65726f204e465473000000006044820152606401610399565b83604001518311156104a65760405162461bcd60e51b815260206004820152601d60248201527f4275794e6674733a2045786365656473206d6178207175616e746974790000006044820152606401610399565b6104dc846000015185602001518660400151876060015188608001518960a001518a60c001518b60e001518c6101000151610a7b565b6104e7848383610b5e565b5060208401516000906104fa9085610ec6565b606086015190915033906001600160a01b031661056657813410156105615760405162461bcd60e51b815260206004820152601a60248201527f4275794e6674733a20496e73756666696369656e742066756e640000000000006044820152606401610399565b6106ab565b6060860151604051636eb1769f60e11b81526001600160a01b0383811660048301523060248301528492169063dd62ed3e90604401602060405180830381865afa1580156105b8573d6000803e3d6000fd5b505050506040513d601f19601f820116820180604052508101906105dc919061274a565b101561062a5760405162461bcd60e51b815260206004820152601760248201527f4275794e6674733a204c65737320616c6c6f77616e63650000000000000000006044820152606401610399565b60608601516040516323b872dd60e01b81526001600160a01b03838116600483015230602483015260448201859052909116906323b872dd906064016020604051808303816000875af1158015610685573d6000803e3d6000fd5b505050506040513d601f19601f820116820180604052508101906106a99190612763565b505b6106c586600001518760a00151886080015185858a610ed2565b5050600160025550505050565b6106da6110e1565b61071c5760405162461bcd60e51b81526020600482015260136024820152722932b9ba3934b1ba32b2103a379037bbb732b960691b6044820152606401610399565b61072581611123565b50565b6107306110e1565b6107725760405162461bcd60e51b81526020600482015260136024820152722932b9ba3934b1ba32b2103a379037bbb732b960691b6044820152606401610399565b60028054036107c35760405162461bcd60e51b815260206004820152601f60248201527f5265656e7472616e637947756172643a207265656e7472616e742063616c6c006044820152606401610399565b60028055836108145760405162461bcd60e51b815260206004820152601c60248201527f4275794e6674733a2043616e277420427579205a65726f204e465473000000006044820152606401610399565b84604001518411156108685760405162461bcd60e51b815260206004820152601d60248201527f4275794e6674733a2045786365656473206d6178207175616e746974790000006044820152606401610399565b61089e856000015186602001518760400151886060015189608001518a60a001518b60c001518c60e001518d6101000151610a7b565b6108a9858484610b5e565b5060208501516000906108bc9086610ec6565b905060008290506108dd87600001518860a00151896080015185858b610ed2565b505060016002555050505050565b600082815260016020526040812061090390836111ae565b9392505050565b6000918252602082815260408084206001600160a01b0393909316845291905290205460ff1690565b60008181526001602052604081206102fd906111ba565b60008281526020819052604090206001015461096581610a2d565b6103288383610a59565b610979828261090a565b6103ac576000828152602081815260408083206001600160a01b03851684529091529020805460ff191660011790556109af3390565b6001600160a01b0316816001600160a01b0316837f2f8788117e7eff1d82e926ec794901d17c78024a50270940304540a733656f0d60405160405180910390a45050565b6000610903836001600160a01b0384166111c4565b60006001600160e01b03198216635a05180f60e01b14806102fd57506102fd82611213565b6107258133611248565b610a41828261096f565b600082815260016020526040902061032890826109f3565b610a6382826112ac565b60008281526001602052604090206103289082611311565b6001600160a01b0380851660009081526003602090815260408083208d84528252808320938916835292905220600281015415610ad15787816002016000828254610ac6919061279b565b90915550610b529050565b89815560018101899055600281018890556003810180546001600160a01b03808a166001600160a01b03199283161790925560048301805489841690831617905560058301805488841690831617905560068301805492871692909116919091179055600781018390558151610b5090600883019060208501906122bc565b505b50505050505050505050565b600033610ba55760405162461bcd60e51b81526020600482015260156024820152744275794e6674733a205a65726f204164647265737360581b6044820152606401610399565b6000846040015111610c045760405162461bcd60e51b815260206004820152602260248201527f4275794e6674733a20576f6e7420416363657074205a65726f205175616e7469604482015261747960f01b6064820152608401610399565b610c118460a00151611326565b610c5d5760405162461bcd60e51b815260206004820152601c60248201527f4275794e6674733a20496e76616c6964204e46542041646472657373000000006044820152606401610399565b60808401516001600160a01b03163303610ccc5760405162461bcd60e51b815260206004820152602a60248201527f4275794e667473203a204f776e6572204973204e6f7420416c6c6f77656420546044820152696f20427579204e66747360b01b6064820152608401610399565b60808401516001600160a01b0316610d265760405162461bcd60e51b815260206004820152601760248201527f53656c6c204e6674733a205a65726f20416464726573730000000000000000006044820152606401610399565b610d2e6110e1565b15610d7b5760405162461bcd60e51b815260206004820152601e60248201527f4275794e6674733a2041646d696e2043616e6e6f7420427579204e66747300006044820152606401610399565b6000846020015111610dcf5760405162461bcd60e51b815260206004820152601f60248201527f4275794e6674733a20576f6e7420416363657074205a65726f205072696365006044820152606401610399565b6000610e27610deb866000015187608001518860a0015161147c565b85858080601f01602080910402602001604051908101604052809392919081815260200183838082843760009201919091525061159d92505050565b9050610e537fa49807205ce4d355092ef5a8a18f56e8913cf4a201fbe287825b095693c217758261090a565b80610e645750610e6460008261090a565b610ebb5760405162461bcd60e51b815260206004820152602260248201527f4e4654205369676e617475726520766572696669636174696f6e206661696c65604482015261642160f01b6064820152608401610399565b506001949350505050565b600061090382846127b3565b6001600160a01b0380861660009081526003602090815260408083208a8452825280832088851684529091529020600681015460078201546008830180549394610fb29488948c948e948a949290921692909190610f2f906127d2565b80601f0160208091040260200160405190810160405280929190818152602001828054610f5b906127d2565b8015610fa85780601f10610f7d57610100808354040283529160200191610fa8565b820191906000526020600020905b815481529060010190602001808311610f8b57829003601f168201915b50505050506115b2565b6003810154610fcc9085906001600160a01b0316876117c5565b818160020154610fdc919061280c565b60028201819055600003611074576001600160a01b0380871660009081526003602081815260408084208c85528252808420948a168452939052918120818155600181018290556002810182905591820180546001600160a01b031990811690915560048301805482169055600583018054821690556006830180549091169055600782018190556110716008830182612340565b50505b60018101546003820154604080519283526001600160a01b03918216602084015285821683820152606083018590525187821692918916918a917f8f52f68a77e5305f8c032bbf718984be7fc7e37748db7a9fd3690c9f64a6b0c79181900360800190a450505050505050565b600061110d7fa49807205ce4d355092ef5a8a18f56e8913cf4a201fbe287825b095693c217753361090a565b8061111e575061111e60003361090a565b905090565b611388816020015111156111845760405162461bcd60e51b815260206004820152602260248201527f4665653a206d617820616c6c6f776564207065726563656e7461676520697320604482015261035360f41b6064820152608401610399565b8051600480546001600160a01b0319166001600160a01b0390921691909117905560200151600555565b60006109038383611b08565b60006102fd825490565b600081815260018301602052604081205461120b575081546001818101845560008481526020808220909301849055845484825282860190935260409020919091556102fd565b5060006102fd565b60006001600160e01b03198216637965db0b60e01b14806102fd57506301ffc9a760e01b6001600160e01b03198316146102fd565b611252828261090a565b6103ac5761126a816001600160a01b03166014611b32565b611275836020611b32565b604051602001611286929190612853565b60408051601f198184030181529082905262461bcd60e51b8252610399916004016128f4565b6112b6828261090a565b156103ac576000828152602081815260408083206001600160a01b0385168085529252808320805460ff1916905551339285917ff6391f5c32d9c69d2a47ea670b442974b53935d1edc7fd64eb21e047a839171b9190a45050565b6000610903836001600160a01b038416611cce565b60006001600160a01b0382166113745760405162461bcd60e51b815260206004820152601360248201527269734e46543a205a65726f204164647265737360681b6044820152606401610399565b6006546040516301ffc9a760e01b81526001600160a01b038416916301ffc9a7916113b59160e01b906004016001600160e01b031991909116815260200190565b602060405180830381865afa1580156113d2573d6000803e3d6000fd5b505050506040513d601f19601f820116820180604052508101906113f69190612763565b806102fd57506006546040516301ffc9a760e01b815264010000000090910460e01b6001600160e01b03191660048201526001600160a01b038316906301ffc9a790602401602060405180830381865afa158015611458573d6000803e3d6000fd5b505050506040513d601f19601f820116820180604052508101906102fd9190612763565b6001600160a01b0380821660009081526003602081815260408084208885528252808420878616855290915280832060018101546002820154938201546004830154600584015460068501546007860154965198999598611594987f81ca36344a4f558cd4400c00adda99aa282181fb2be3acccdcb92f502e4e1d55988f989196821695821694821693909116916115189060088d0190612907565b60408051918290038220602083019b909b52810198909852606088019690965260808701949094526001600160a01b0392831660a087015290821660c0860152811660e0850152166101008301526101208201526101408101919091526101600160405160208183030381529060405280519060200120611dc1565b95945050505050565b6000806115aa8484611e0f565b949350505050565b6006546040516301ffc9a760e01b81526001600160a01b038816916301ffc9a7916115f39160e01b906004016001600160e01b031991909116815260200190565b602060405180830381865afa158015611610573d6000803e3d6000fd5b505050506040513d601f19601f820116820180604052508101906116349190612763565b156116b9576040805180820182526001600160a01b038086168252602082018590529151630cc3961b60e41b8152909188169063cc3961b090611681908b908a90879087906004016129a2565b600060405180830381600087803b15801561169b57600080fd5b505af11580156116af573d6000803e3d6000fd5b50505050506117bc565b6006546040516301ffc9a760e01b815264010000000090910460e01b6001600160e01b03191660048201526001600160a01b038716906301ffc9a790602401602060405180830381865afa158015611715573d6000803e3d6000fd5b505050506040513d601f19601f820116820180604052508101906117399190612763565b156117bc576040805180820182526001600160a01b03808616825260208201859052915163fc038ab360e01b8152909188169063fc038ab390611788908b908a908a90889088906004016129ee565b600060405180830381600087803b1580156117a257600080fd5b505af11580156117b6573d6000803e3d6000fd5b50505050505b50505050505050565b6005546000908190156117f1576005546117ee90612710906117e8908890610ec6565b90611e33565b90505b6117fb8582611e3f565b91506001600160a01b03841661198a576004546001600160a01b0316158015906118255750600081115b156118e1576004546040516000916001600160a01b03169083908381818185875af1925050503d8060008114611877576040519150601f19603f3d011682016040523d82523d6000602084013e61187c565b606091505b50509050806118df5760405162461bcd60e51b815260206004820152602960248201527f5472616e7366657220746f20706c6174666f726d20666565207265636569766560448201526839103330b4b632b21760b91b6064820152608401610399565b505b6000836001600160a01b03168360405160006040518083038185875af1925050503d806000811461192e576040519150601f19603f3d011682016040523d82523d6000602084013e611933565b606091505b50509050806119845760405162461bcd60e51b815260206004820152601a60248201527f5472616e7366657220746f2073656c6c6572206661696c65642e0000000000006044820152606401610399565b50611a99565b6004546001600160a01b0316158015906119a45750600081115b15611a24576004805460405163a9059cbb60e01b81526001600160a01b03918216928101929092526024820183905285169063a9059cbb906044016020604051808303816000875af11580156119fe573d6000803e3d6000fd5b505050506040513d601f19601f82011682018060405250810190611a229190612763565b505b60405163a9059cbb60e01b81526001600160a01b0384811660048301526024820184905285169063a9059cbb906044016020604051808303816000875af1158015611a73573d6000803e3d6000fd5b505050506040513d601f19601f82011682018060405250810190611a979190612763565b505b6040805180820182526001600160a01b0380861682526020808301869052835180850185526004549092168252810184905291517f40487f252a20d8f2b6b418aa086921caabfdfcef0fd4c378ac2c09dff3cfb70b92611af99291612a41565b60405180910390a15050505050565b6000826000018281548110611b1f57611b1f612a7b565b9060005260206000200154905092915050565b60606000611b418360026127b3565b611b4c90600261279b565b67ffffffffffffffff811115611b6457611b64612416565b6040519080825280601f01601f191660200182016040528015611b8e576020820181803683370190505b509050600360fc1b81600081518110611ba957611ba9612a7b565b60200101906001600160f81b031916908160001a905350600f60fb1b81600181518110611bd857611bd8612a7b565b60200101906001600160f81b031916908160001a9053506000611bfc8460026127b3565b611c0790600161279b565b90505b6001811115611c7f576f181899199a1a9b1b9c1cb0b131b232b360811b85600f1660108110611c3b57611c3b612a7b565b1a60f81b828281518110611c5157611c51612a7b565b60200101906001600160f81b031916908160001a90535060049490941c93611c7881612a91565b9050611c0a565b5083156109035760405162461bcd60e51b815260206004820181905260248201527f537472696e67733a20686578206c656e67746820696e73756666696369656e746044820152606401610399565b60008181526001830160205260408120548015611db7576000611cf260018361280c565b8554909150600090611d069060019061280c565b9050818114611d6b576000866000018281548110611d2657611d26612a7b565b9060005260206000200154905080876000018481548110611d4957611d49612a7b565b6000918252602080832090910192909255918252600188019052604090208390555b8554869080611d7c57611d7c612aa8565b6001900381819060005260206000200160009055905585600101600086815260200190815260200160002060009055600193505050506102fd565b60009150506102fd565b60006102fd611dce611e4b565b8360405161190160f01b6020820152602281018390526042810182905260009060620160405160208183030381529060405280519060200120905092915050565b6000806000611e1e8585611f72565b91509150611e2b81611fe0565b509392505050565b60006109038284612abe565b6000610903828461280c565b6000306001600160a01b037f000000000000000000000000000000000000000000000000000000000000000016148015611ea457507f000000000000000000000000000000000000000000000000000000000000000046145b15611ece57507f000000000000000000000000000000000000000000000000000000000000000090565b50604080517f00000000000000000000000000000000000000000000000000000000000000006020808301919091527f0000000000000000000000000000000000000000000000000000000000000000828401527f000000000000000000000000000000000000000000000000000000000000000060608301524660808301523060a0808401919091528351808403909101815260c0909201909252805191012090565b6000808251604103611fa85760208301516040840151606085015160001a611f9c87828585612196565b94509450505050611fd9565b8251604003611fd15760208301516040840151611fc6868383612283565b935093505050611fd9565b506000905060025b9250929050565b6000816004811115611ff457611ff4612ae0565b03611ffc5750565b600181600481111561201057612010612ae0565b0361205d5760405162461bcd60e51b815260206004820152601860248201527f45434453413a20696e76616c6964207369676e617475726500000000000000006044820152606401610399565b600281600481111561207157612071612ae0565b036120be5760405162461bcd60e51b815260206004820152601f60248201527f45434453413a20696e76616c6964207369676e6174757265206c656e677468006044820152606401610399565b60038160048111156120d2576120d2612ae0565b0361212a5760405162461bcd60e51b815260206004820152602260248201527f45434453413a20696e76616c6964207369676e6174757265202773272076616c604482015261756560f01b6064820152608401610399565b600481600481111561213e5761213e612ae0565b036107255760405162461bcd60e51b815260206004820152602260248201527f45434453413a20696e76616c6964207369676e6174757265202776272076616c604482015261756560f01b6064820152608401610399565b6000807f7fffffffffffffffffffffffffffffff5d576e7357a4501ddfe92f46681b20a08311156121cd575060009050600361227a565b8460ff16601b141580156121e557508460ff16601c14155b156121f6575060009050600461227a565b6040805160008082526020820180845289905260ff881692820192909252606081018690526080810185905260019060a0016020604051602081039080840390855afa15801561224a573d6000803e3d6000fd5b5050604051601f1901519150506001600160a01b0381166122735760006001925092505061227a565b9150600090505b94509492505050565b6000806001600160ff1b038316816122a060ff86901c601b61279b565b90506122ae87828885612196565b935093505050935093915050565b8280546122c8906127d2565b90600052602060002090601f0160209004810192826122ea5760008555612330565b82601f1061230357805160ff1916838001178555612330565b82800160010185558215612330579182015b82811115612330578251825591602001919060010190612315565b5061233c929150612376565b5090565b50805461234c906127d2565b6000825580601f1061235c575050565b601f01602090049060005260206000209081019061072591905b5b8082111561233c5760008155600101612377565b60006020828403121561239d57600080fd5b81356001600160e01b03198116811461090357600080fd5b6000602082840312156123c757600080fd5b5035919050565b80356001600160a01b03811681146123e557600080fd5b919050565b600080604083850312156123fd57600080fd5b8235915061240d602084016123ce565b90509250929050565b634e487b7160e01b600052604160045260246000fd5b604051610120810167ffffffffffffffff8111828210171561245057612450612416565b60405290565b600082601f83011261246757600080fd5b813567ffffffffffffffff8082111561248257612482612416565b604051601f8301601f19908116603f011681019082821181831017156124aa576124aa612416565b816040528381528660208588010111156124c357600080fd5b836020870160208301376000602085830101528094505050505092915050565b600061012082840312156124f657600080fd5b6124fe61242c565b9050813581526020820135602082015260408201356040820152612524606083016123ce565b6060820152612535608083016123ce565b608082015261254660a083016123ce565b60a082015261255760c083016123ce565b60c082015260e082013560e08201526101008083013567ffffffffffffffff81111561258257600080fd5b61258e85828601612456565b82840152505092915050565b60008083601f8401126125ac57600080fd5b50813567ffffffffffffffff8111156125c457600080fd5b602083019150836020828501011115611fd957600080fd5b600080600080606085870312156125f257600080fd5b843567ffffffffffffffff8082111561260a57600080fd5b612616888389016124e3565b955060208701359450604087013591508082111561263357600080fd5b506126408782880161259a565b95989497509550505050565b60006040828403121561265e57600080fd5b6040516040810181811067ffffffffffffffff8211171561268157612681612416565b60405261268d836123ce565b8152602083013560208201528091505092915050565b6000806000806000608086880312156126bb57600080fd5b853567ffffffffffffffff808211156126d357600080fd5b6126df89838a016124e3565b96506020880135955060408801359150808211156126fc57600080fd5b506127098882890161259a565b909450925061271c9050606087016123ce565b90509295509295909350565b6000806040838503121561273b57600080fd5b50508035926020909101359150565b60006020828403121561275c57600080fd5b5051919050565b60006020828403121561277557600080fd5b8151801515811461090357600080fd5b634e487b7160e01b600052601160045260246000fd5b600082198211156127ae576127ae612785565b500190565b60008160001904831182151516156127cd576127cd612785565b500290565b600181811c908216806127e657607f821691505b60208210810361280657634e487b7160e01b600052602260045260246000fd5b50919050565b60008282101561281e5761281e612785565b500390565b60005b8381101561283e578181015183820152602001612826565b8381111561284d576000848401525b50505050565b7f416363657373436f6e74726f6c3a206163636f756e742000000000000000000081526000835161288b816017850160208801612823565b7001034b99036b4b9b9b4b733903937b6329607d1b60179184019182015283516128bc816028840160208801612823565b01602801949350505050565b600081518084526128e0816020860160208601612823565b601f01601f19169290920160200192915050565b60208152600061090360208301846128c8565b600080835481600182811c91508083168061292357607f831692505b6020808410820361294257634e487b7160e01b86526022600452602486fd5b818015612956576001811461296757612994565b60ff19861689528489019650612994565b60008a81526020902060005b8681101561298c5781548b820152908501908301612973565b505084890196505b509498975050505050505050565b60018060a01b038516815283602082015260a0604082015260006129c960a08301856128c8565b83516001600160a01b0316606084015260208401516080840152905095945050505050565b60018060a01b038616815284602082015283604082015260c060608201526000612a1b60c08301856128c8565b83516001600160a01b03166080840152602084015160a084015290509695505050505050565b82516001600160a01b03168152602080840151908201526080810182516001600160a01b0316604083015260208301516060830152610903565b634e487b7160e01b600052603260045260246000fd5b600081612aa057612aa0612785565b506000190190565b634e487b7160e01b600052603160045260246000fd5b600082612adb57634e487b7160e01b600052601260045260246000fd5b500490565b634e487b7160e01b600052602160045260246000fdfea264697066735822122043a09511a756d6ffff6c865c2070fd14db50f416f9b086c084173816aa53dcaf64736f6c634300080d0033",
  "immutableReferences": {
    "6037": [
      {
        "length": 32,
        "start": 7852
      }
    ],
    "6039": [
      {
        "length": 32,
        "start": 7810
      }
    ],
    "6041": [
      {
        "length": 32,
        "start": 7768
      }
    ],
    "6043": [
      {
        "length": 32,
        "start": 7935
      }
    ],
    "6045": [
      {
        "length": 32,
        "start": 7972
      }
    ],
    "6047": [
      {
        "length": 32,
        "start": 7893
      }
    ]
  },
  "source": "/**\n * SPDX-License-Identifier: MIT\n * @author Accubits\n * @title PrimaryFixedPriceNFTMarketPlace\n */\npragma solidity 0.8.13;\n\nimport '@openzeppelin/contracts/token/ERC721/IERC721.sol';\nimport '@openzeppelin/contracts/token/ERC1155/IERC1155.sol';\nimport '@openzeppelin/contracts/token/ERC20/IERC20.sol';\nimport '@openzeppelin/contracts/access/AccessControlEnumerable.sol';\nimport '@openzeppelin/contracts/security/ReentrancyGuard.sol';\nimport '@openzeppelin/contracts/utils/math/SafeMath.sol';\nimport '@openzeppelin/contracts/utils/Address.sol';\nimport '@openzeppelin/contracts/utils/cryptography/draft-EIP712.sol';\n\n/**\n * @notice ERC1155 interface to support custom functionalites\n */\ninterface ERC1155 {\n  struct Royalties {\n    address payable account;\n    uint256 percentage;\n  }\n\n  function mint(\n    address receiver,\n    uint256 collectibleId,\n    uint256 ntokens,\n    bytes memory IPFS_hash,\n    Royalties calldata royalties\n  ) external;\n\n  function safeTransferFrom(\n    address from,\n    address to,\n    uint256 id,\n    uint256 ntokens,\n    bytes calldata data\n  ) external;\n}\n\n/**\n * @notice ERC721 interface to support custom functionalites\n */\ninterface ERC721 {\n  struct Royalties {\n    address payable account;\n    uint256 percentage;\n  }\n\n  function mint(\n    address receiver,\n    uint256 collectibleId,\n    string memory IPFSHash,\n    Royalties calldata royalties\n  ) external;\n}\n\n/**\n * @title Primary Fixed Price NFT MarketPlace\n * NFT MarketPlace contract to handle primary NFT sales with fixed price\n */\ncontract PrimaryFixedPriceNFTMarketPlace is AccessControlEnumerable, ReentrancyGuard, EIP712 {\n  using SafeMath for uint256;\n  using Address for address;\n\n  /**\n   * @notice To store NFT metadata\n   */\n  struct Metadata {\n    uint256 tokenId;\n    uint256 price;\n    uint256 quantity;\n    address erc20Token;\n    address seller;\n    address nftAddress;\n    address royaltyReceiver;\n    uint256 royaltyPercentage;\n    string IPFSHash;\n  }\n\n  struct Fee {\n    address receiver;\n    uint256 percentageValue;\n  }\n\n  event NftSold(\n    uint256 indexed tokenId,\n    address indexed nftAddress,\n    address indexed seller,\n    uint256 price,\n    address erc20Token,\n    address buyer,\n    uint256 quantity\n  );\n\n  event FundTransfer(Fee sellerProfit, Fee platformFee);\n\n  mapping(address => mapping(uint256 => mapping(address => Metadata))) private mapSale;\n  Fee private platformFee;\n\n  bytes32 public constant ADMIN_ROLE = keccak256('ADMIN_ROLE');\n  bytes4 private ERC721InterfaceId = 0x80ac58cd; // Interface Id of ERC721\n  bytes4 private ERC1155InterfaceId = 0xd9b67a26; // Interface Id of ERC1155\n\n  /**\n    @notice For signature verification of Fixed Price Typed Data\n  */\n  bytes32 public constant FIXED_PRICE_TYPEHASH =\n    keccak256(\n      'FixedPrice(uint256 tokenId,uint256 price,uint256 quantity,address erc20Token,address seller,address nftAddress,address royaltyReceiver,uint256 royaltyPercentage,string IPFSHash)'\n    );\n\n  /**\n   * @notice modifier to check admin rights.\n   * contract owner and root admin have admin rights\n   */\n  modifier onlyAdmin() {\n    require(_isAdmin(), 'Restricted to owner');\n    _;\n  }\n\n  /**\n   * @notice Constructor\n   * Invokes EIP712 constructor with Domain - Used for signature verification\n   * @param _platformFee Fee type. Fee percentage and Receiver address\n   * @param _rootAdmin Root admin address\n   */\n  constructor(Fee memory _platformFee, address _rootAdmin) EIP712('PrimaryFixedPriceNFTMarketPlace', '0.0.1') {\n    _setPlatformFee(_platformFee);\n    _setupRole(DEFAULT_ADMIN_ROLE, msg.sender);\n    _setupRole(ADMIN_ROLE, _rootAdmin);\n  }\n\n  /**\n   * @notice To set platform fee and fee receiver\n   * @param _platformFee Fee and fee receiver details\n   */\n  function PlatformFee(Fee memory _platformFee) external onlyAdmin {\n    _setPlatformFee(_platformFee);\n  }\n\n  /**\n   * @notice SetSaleDetails\n   *         For storing NFT details on sale\n   * @param _tokenId NFT unique ID\n   * @param _price Unit price\n   * @param _quantity Total number of tokens in sale\n   * @param _erc20Token ERC20 token address, which can be used to buy this NFT\n   * @param _seller Seller address\n   * @param _nftAddress ERC721 or ERC1155 address\n   * @param _royaltyReceiver Royalty receiver address\n   * @param _royaltyPercentage Royalty percentage\n   * @param _IPFSHash IPFS Hash of NFT\n   */\n  function _setSaleDetails(\n    uint256 _tokenId,\n    uint256 _price,\n    uint256 _quantity,\n    address _erc20Token,\n    address _seller,\n    address _nftAddress,\n    address _royaltyReceiver,\n    uint256 _royaltyPercentage,\n    string memory _IPFSHash\n  ) internal {\n    Metadata storage NftForSale = mapSale[_nftAddress][_tokenId][_seller];\n\n    /// Giving the ability to increase the quantity if the item is already listed\n    /// Otherwise create a new listing\n    if (NftForSale.quantity > 0) {\n      NftForSale.quantity += _quantity;\n    } else {\n      NftForSale.tokenId = _tokenId;\n      NftForSale.price = _price;\n      NftForSale.quantity = _quantity;\n      NftForSale.erc20Token = _erc20Token;\n      NftForSale.seller = _seller;\n      NftForSale.nftAddress = _nftAddress;\n      NftForSale.royaltyReceiver = _royaltyReceiver;\n      NftForSale.royaltyPercentage = _royaltyPercentage;\n      NftForSale.IPFSHash = _IPFSHash;\n    }\n  }\n\n  /**\n   * @notice buyNft\n   *         For buying NFT using native coin or ERC20 tokens.\n   * @param _metadata Details of NFT in Metadata format\n   * @param _purchasingQuantity Purchasing amount of tokens\n   * @param _signature Metadata signature signed by admin during NFT creation on platform\n   */\n  function buyNft(\n    Metadata memory _metadata,\n    uint256 _purchasingQuantity,\n    bytes calldata _signature\n  ) public payable nonReentrant {\n    require(_purchasingQuantity > 0, \"BuyNfts: Can't Buy Zero NFTs\");\n    require(_purchasingQuantity <= _metadata.quantity, 'BuyNfts: Exceeds max quantity');\n\n    _setSaleDetails(\n      _metadata.tokenId,\n      _metadata.price,\n      _metadata.quantity,\n      _metadata.erc20Token,\n      _metadata.seller,\n      _metadata.nftAddress,\n      _metadata.royaltyReceiver,\n      _metadata.royaltyPercentage,\n      _metadata.IPFSHash\n    );\n\n    _verifyNFT(_metadata, _signature);\n\n    uint256 buyAmount = _metadata.price.mul(_purchasingQuantity);\n    address buyer = msg.sender;\n\n    if (_metadata.erc20Token == address(0)) {\n      require(msg.value >= buyAmount, 'BuyNfts: Insufficient fund');\n      /// else means for erc20 token\n    } else {\n      require(IERC20(_metadata.erc20Token).allowance(buyer, address(this)) >= buyAmount, 'BuyNfts: Less allowance');\n      IERC20(_metadata.erc20Token).transferFrom(buyer, address(this), buyAmount);\n    }\n    _NftSale(_metadata.tokenId, _metadata.nftAddress, _metadata.seller, buyAmount, buyer, _purchasingQuantity);\n  }\n\n  /**\n   * @notice This function can only be called by the admin account\n   * The fiat payment will be converted into to crypto via on-ramp and transferred to the contract for\n   * administering the payment split and token transfer on-chain\n   * IMPORTANT: It should only be called after the right amount of crypto/token should received in the contract\n   * The transfer should be confirmed off chain before calling this function\n   * @param _metadata Details of NFT in Metadata format\n   * @param _purchasingQuantity Purchasing amount of tokens\n   * @param _signature Metadata signature signed by admin during NFT creation on platform\n   * @param _buyer NFT receiver address\n   */\n  function fiatPurchase(\n    Metadata memory _metadata,\n    uint256 _purchasingQuantity,\n    bytes calldata _signature,\n    address _buyer\n  ) public payable onlyAdmin nonReentrant {\n    require(_purchasingQuantity > 0, \"BuyNfts: Can't Buy Zero NFTs\");\n    require(_purchasingQuantity <= _metadata.quantity, 'BuyNfts: Exceeds max quantity');\n\n    _setSaleDetails(\n      _metadata.tokenId,\n      _metadata.price,\n      _metadata.quantity,\n      _metadata.erc20Token,\n      _metadata.seller,\n      _metadata.nftAddress,\n      _metadata.royaltyReceiver,\n      _metadata.royaltyPercentage,\n      _metadata.IPFSHash\n    );\n\n    _verifyNFT(_metadata, _signature);\n\n    uint256 buyAmount = _metadata.price.mul(_purchasingQuantity);\n    address buyer = _buyer;\n\n    _NftSale(_metadata.tokenId, _metadata.nftAddress, _metadata.seller, buyAmount, buyer, _purchasingQuantity);\n  }\n\n  /**\n   * @notice Mint NFT\n   *         Calling ERC20 or ERC1155 Mint function\n   * @param _receiver NFT Receiver\n   * @param _nftAddress ERC721 or ERC1155 address\n   * @param _tokenId NFT unique ID\n   * @param _quantity Purchasing amount of tokens\n   * @param _royaltyReceiver Royalty receiver address\n   * @param _royaltyPercentage Royalty percentage\n   * @param _ipfsHash IPFS Hash of NFT\n   */\n  function _mintNFT(\n    address _receiver,\n    address _nftAddress,\n    uint256 _tokenId,\n    uint256 _quantity,\n    address _royaltyReceiver,\n    uint256 _royaltyPercentage,\n    string memory _ipfsHash\n  ) internal {\n    if (IERC721(_nftAddress).supportsInterface(ERC721InterfaceId)) {\n      ERC721.Royalties memory royalties = ERC721.Royalties(payable(_royaltyReceiver), _royaltyPercentage);\n      ERC721(_nftAddress).mint(_receiver, _tokenId, _ipfsHash, royalties);\n    } else if (IERC1155(_nftAddress).supportsInterface(ERC1155InterfaceId)) {\n      ERC1155.Royalties memory royalties = ERC1155.Royalties(payable(_royaltyReceiver), _royaltyPercentage);\n      ERC1155(_nftAddress).mint(_receiver, _tokenId, _quantity, bytes(_ipfsHash), royalties);\n    }\n  }\n\n  /**\n   * @notice Supports Interface\n   *         Function to check wether the contract support specific interface\n   * @param interfaceId Interface type\n   * @return boolean\n   */\n  function supportsInterface(bytes4 interfaceId) public view override(AccessControlEnumerable) returns (bool) {\n    return super.supportsInterface(interfaceId);\n  }\n\n  /**\n   * @notice Is Admin\n   *         Checks if the msg.sender has admin roles assigned\n   * @return boolean\n   */\n  function _isAdmin() internal view returns (bool) {\n    return (hasRole(ADMIN_ROLE, _msgSender()) || hasRole(DEFAULT_ADMIN_ROLE, _msgSender()));\n  }\n\n  /**\n   * @notice PlatformFee\n   *         Internal function to set platform fee and fee receiver\n   * @param _platformFee Fee and fee receiver details\n   */\n  function _setPlatformFee(Fee memory _platformFee) internal {\n    require(_platformFee.percentageValue <= 5000, 'Fee: max allowed perecentage is 50');\n    platformFee = _platformFee;\n  }\n\n  /**\n   * @notice Pay Out\n   *         To debit fees during NFT purchase\n   * @param _price Fee\n   * @param _currency Type of currency\n   * @param _seller Seller address\n   */\n  function _payOut(\n    uint256 _price,\n    address _currency,\n    address _seller\n  ) internal {\n    uint256 sellerProfit;\n    uint256 platformProfit;\n\n    if (platformFee.percentageValue > 0) {\n      platformProfit = _price.mul(platformFee.percentageValue).div(10000);\n    }\n    sellerProfit = _price.sub(platformProfit);\n\n    if (_currency == address(0)) {\n      if (platformFee.receiver != address(0) && platformProfit > 0) {\n        (bool isPlatformFeeTransferSuccess, ) = payable(platformFee.receiver).call{ value: platformProfit }('');\n        require(isPlatformFeeTransferSuccess, 'Transfer to platform fee receiver failed.');\n      }\n      (bool isSellerTransferSuccess, ) = payable(_seller).call{ value: sellerProfit }('');\n      require(isSellerTransferSuccess, 'Transfer to seller failed.');\n    } else {\n      if (platformFee.receiver != address(0) && platformProfit > 0) {\n        IERC20(_currency).transfer(platformFee.receiver, platformProfit);\n      }\n      IERC20(_currency).transfer(_seller, sellerProfit);\n    }\n    emit FundTransfer(Fee(_seller, sellerProfit), Fee(platformFee.receiver, platformProfit));\n  }\n\n  /**\n   * @notice NFT Sale\n   *         To handle mint and payout\n   * @param _tokenId NFT unique ID\n   * @param _nftAddress ERC721 or ERC1155 address\n   * @param _seller Seller address\n   * @param _buyAmount Total amount\n   * @param _buyer Receiver address\n   * @param _purchasingQuantity Purchasing amount of tokens\n   */\n  function _NftSale(\n    uint256 _tokenId,\n    address _nftAddress,\n    address _seller,\n    uint256 _buyAmount,\n    address _buyer,\n    uint256 _purchasingQuantity\n  ) internal {\n    Metadata storage nftOnSaleStorage = mapSale[_nftAddress][_tokenId][_seller];\n\n    _mintNFT(\n      _buyer,\n      _nftAddress,\n      _tokenId,\n      _purchasingQuantity,\n      nftOnSaleStorage.royaltyReceiver,\n      nftOnSaleStorage.royaltyPercentage,\n      nftOnSaleStorage.IPFSHash\n    );\n    _payOut(_buyAmount, nftOnSaleStorage.erc20Token, _seller);\n\n    nftOnSaleStorage.quantity = nftOnSaleStorage.quantity - _purchasingQuantity;\n\n    if (nftOnSaleStorage.quantity == 0) {\n      delete mapSale[_nftAddress][_tokenId][_seller];\n    }\n    emit NftSold(_tokenId, _nftAddress, _seller, nftOnSaleStorage.price, nftOnSaleStorage.erc20Token, _buyer, _purchasingQuantity);\n  }\n\n  /**\n   * @notice Is NFT\n   *         Checks if the nft address specified is ERC721 or ERC1155\n   * @param _nftAddress NFT Contract address\n   * @return boolean\n   */\n  function _isNFT(address _nftAddress) internal view returns (bool) {\n    require(_nftAddress != address(0), 'isNFT: Zero Address');\n    return (IERC721(_nftAddress).supportsInterface(ERC721InterfaceId) || IERC1155(_nftAddress).supportsInterface(ERC1155InterfaceId));\n  }\n\n  /**\n   * @notice Hash Mint Data\n   *         To hash the nft metadata\n   * @param tokenId NFT unique ID\n   * @param seller Seller address\n   * @param nftAddress ERC721 or ERC1155 address\n   * @return Hash Hash of metadata\n   */\n  function _hashTypedData(\n    uint256 tokenId,\n    address seller,\n    address nftAddress\n  ) internal view returns (bytes32) {\n    Metadata storage NftForSale = mapSale[nftAddress][tokenId][seller];\n    return\n      _hashTypedDataV4(\n        keccak256(\n          abi.encode(\n            FIXED_PRICE_TYPEHASH,\n            tokenId,\n            NftForSale.price,\n            NftForSale.quantity,\n            NftForSale.erc20Token,\n            NftForSale.seller,\n            NftForSale.nftAddress,\n            NftForSale.royaltyReceiver,\n            NftForSale.royaltyPercentage,\n            keccak256(bytes(NftForSale.IPFSHash))\n          )\n        )\n      );\n  }\n\n  /**\n   * @notice Verify Minter\n   *         To extract signer address from signature\n   * @param digest Data hash\n   * @param signature Signature\n   * @return Signer Signer address\n   */\n  function _verifyMinter(bytes32 digest, bytes memory signature) internal pure returns (address) {\n    address signer = ECDSA.recover(digest, signature);\n    return signer;\n  }\n\n  /**\n   * @notice Verify NFT\n   *         To peerform signature verification and common validaitons\n   * @param metadata NFT details in metadata format\n   * @param signature Metadata signed by admin during NFT creation on platform\n   * @return boolean Verification status\n   */\n  function _verifyNFT(Metadata memory metadata, bytes calldata signature) internal view returns (bool) {\n    require(msg.sender != address(0), 'BuyNfts: Zero Address');\n    require(metadata.quantity > 0, 'BuyNfts: Wont Accept Zero Quantity');\n    require(_isNFT(metadata.nftAddress), 'BuyNfts: Invalid NFT Address');\n    require(msg.sender != metadata.seller, 'BuyNfts : Owner Is Not Allowed To Buy Nfts');\n    require(metadata.seller != address(0), 'Sell Nfts: Zero Address');\n    require(!_isAdmin(), 'BuyNfts: Admin Cannot Buy Nfts');\n    require(metadata.price > 0, 'BuyNfts: Wont Accept Zero Price');\n\n    address signer = _verifyMinter(_hashTypedData(metadata.tokenId, metadata.seller, metadata.nftAddress), signature);\n    require(hasRole(ADMIN_ROLE, signer) || hasRole(DEFAULT_ADMIN_ROLE, signer), 'NFT Signature verification failed!');\n\n    return true;\n  }\n}\n",
  "sourcePath": "/home/accubits-prasanth/Documents/Accubits/NFT 2.0/Smart Contract/contracts/PrimaryFixedPriceNFTMarketPlace.sol",
  "compiler": {
    "name": "solc",
    "version": "0.8.13+commit.abaa5c0e.Emscripten.clang"
  },
  "schemaVersion": "3.4.6",
  "updatedAt": "2022-09-15T11:28:42.673Z",
  "devdoc": {
    "kind": "dev",
    "methods": {
      "PlatformFee((address,uint256))": {
        "params": {
          "_platformFee": "Fee and fee receiver details"
        }
      },
      "buyNft((uint256,uint256,uint256,address,address,address,address,uint256,string),uint256,bytes)": {
        "params": {
          "_metadata": "Details of NFT in Metadata format",
          "_purchasingQuantity": "Purchasing amount of tokens",
          "_signature": "Metadata signature signed by admin during NFT creation on platform"
        }
      },
      "constructor": {
        "params": {
          "_platformFee": "Fee type. Fee percentage and Receiver address",
          "_rootAdmin": "Root admin address"
        }
      },
      "fiatPurchase((uint256,uint256,uint256,address,address,address,address,uint256,string),uint256,bytes,address)": {
        "params": {
          "_buyer": "NFT receiver address",
          "_metadata": "Details of NFT in Metadata format",
          "_purchasingQuantity": "Purchasing amount of tokens",
          "_signature": "Metadata signature signed by admin during NFT creation on platform"
        }
      },
      "getRoleAdmin(bytes32)": {
        "details": "Returns the admin role that controls `role`. See {grantRole} and {revokeRole}. To change a role's admin, use {_setRoleAdmin}."
      },
      "getRoleMember(bytes32,uint256)": {
        "details": "Returns one of the accounts that have `role`. `index` must be a value between 0 and {getRoleMemberCount}, non-inclusive. Role bearers are not sorted in any particular way, and their ordering may change at any point. WARNING: When using {getRoleMember} and {getRoleMemberCount}, make sure you perform all queries on the same block. See the following https://forum.openzeppelin.com/t/iterating-over-elements-on-enumerableset-in-openzeppelin-contracts/2296[forum post] for more information."
      },
      "getRoleMemberCount(bytes32)": {
        "details": "Returns the number of accounts that have `role`. Can be used together with {getRoleMember} to enumerate all bearers of a role."
      },
      "grantRole(bytes32,address)": {
        "details": "Grants `role` to `account`. If `account` had not been already granted `role`, emits a {RoleGranted} event. Requirements: - the caller must have ``role``'s admin role. May emit a {RoleGranted} event."
      },
      "hasRole(bytes32,address)": {
        "details": "Returns `true` if `account` has been granted `role`."
      },
      "renounceRole(bytes32,address)": {
        "details": "Revokes `role` from the calling account. Roles are often managed via {grantRole} and {revokeRole}: this function's purpose is to provide a mechanism for accounts to lose their privileges if they are compromised (such as when a trusted device is misplaced). If the calling account had been revoked `role`, emits a {RoleRevoked} event. Requirements: - the caller must be `account`. May emit a {RoleRevoked} event."
      },
      "revokeRole(bytes32,address)": {
        "details": "Revokes `role` from `account`. If `account` had been granted `role`, emits a {RoleRevoked} event. Requirements: - the caller must have ``role``'s admin role. May emit a {RoleRevoked} event."
      },
      "supportsInterface(bytes4)": {
        "params": {
          "interfaceId": "Interface type"
        },
        "returns": {
          "_0": "boolean"
        }
      }
    },
    "title": "Primary Fixed Price NFT MarketPlace NFT MarketPlace contract to handle primary NFT sales with fixed price",
    "version": 1
  },
  "userdoc": {
    "kind": "user",
    "methods": {
      "FIXED_PRICE_TYPEHASH()": {
        "notice": "For signature verification of Fixed Price Typed Data"
      },
      "PlatformFee((address,uint256))": {
        "notice": "To set platform fee and fee receiver"
      },
      "buyNft((uint256,uint256,uint256,address,address,address,address,uint256,string),uint256,bytes)": {
        "notice": "buyNft         For buying NFT using native coin or ERC20 tokens."
      },
      "constructor": {
        "notice": "Constructor Invokes EIP712 constructor with Domain - Used for signature verification"
      },
      "fiatPurchase((uint256,uint256,uint256,address,address,address,address,uint256,string),uint256,bytes,address)": {
        "notice": "This function can only be called by the admin account The fiat payment will be converted into to crypto via on-ramp and transferred to the contract for administering the payment split and token transfer on-chain IMPORTANT: It should only be called after the right amount of crypto/token should received in the contract The transfer should be confirmed off chain before calling this function"
      },
      "supportsInterface(bytes4)": {
        "notice": "Supports Interface         Function to check wether the contract support specific interface"
      }
    },
    "version": 1
  }
}